{
  "_format": "hh-sol-artifact-1",
  "contractName": "BetMarket",
  "sourceName": "contracts/BetMarket.sol",
  "abi": [
    {
      "inputs": [
        {
          "internalType": "address",
          "name": "owner",
          "type": "address"
        }
      ],
      "stateMutability": "nonpayable",
      "type": "constructor"
    },
    {
      "inputs": [
        {
          "internalType": "address",
          "name": "owner",
          "type": "address"
        }
      ],
      "name": "OwnableInvalidOwner",
      "type": "error"
    },
    {
      "inputs": [
        {
          "internalType": "address",
          "name": "account",
          "type": "address"
        }
      ],
      "name": "OwnableUnauthorizedAccount",
      "type": "error"
    },
    {
      "inputs": [
        {
          "internalType": "uint256",
          "name": "x",
          "type": "uint256"
        },
        {
          "internalType": "uint256",
          "name": "y",
          "type": "uint256"
        }
      ],
      "name": "PRBMath_MulDiv18_Overflow",
      "type": "error"
    },
    {
      "inputs": [
        {
          "internalType": "uint256",
          "name": "x",
          "type": "uint256"
        },
        {
          "internalType": "uint256",
          "name": "y",
          "type": "uint256"
        },
        {
          "internalType": "uint256",
          "name": "denominator",
          "type": "uint256"
        }
      ],
      "name": "PRBMath_MulDiv_Overflow",
      "type": "error"
    },
    {
      "inputs": [],
      "name": "PRBMath_SD59x18_Div_InputTooSmall",
      "type": "error"
    },
    {
      "inputs": [
        {
          "internalType": "SD59x18",
          "name": "x",
          "type": "int256"
        },
        {
          "internalType": "SD59x18",
          "name": "y",
          "type": "int256"
        }
      ],
      "name": "PRBMath_SD59x18_Div_Overflow",
      "type": "error"
    },
    {
      "inputs": [
        {
          "internalType": "SD59x18",
          "name": "x",
          "type": "int256"
        }
      ],
      "name": "PRBMath_SD59x18_Exp2_InputTooBig",
      "type": "error"
    },
    {
      "inputs": [
        {
          "internalType": "SD59x18",
          "name": "x",
          "type": "int256"
        }
      ],
      "name": "PRBMath_SD59x18_Exp_InputTooBig",
      "type": "error"
    },
    {
      "inputs": [
        {
          "internalType": "SD59x18",
          "name": "x",
          "type": "int256"
        }
      ],
      "name": "PRBMath_SD59x18_Log_InputTooSmall",
      "type": "error"
    },
    {
      "inputs": [],
      "name": "PRBMath_SD59x18_Mul_InputTooSmall",
      "type": "error"
    },
    {
      "inputs": [
        {
          "internalType": "SD59x18",
          "name": "x",
          "type": "int256"
        },
        {
          "internalType": "SD59x18",
          "name": "y",
          "type": "int256"
        }
      ],
      "name": "PRBMath_SD59x18_Mul_Overflow",
      "type": "error"
    },
    {
      "inputs": [
        {
          "internalType": "address",
          "name": "token",
          "type": "address"
        }
      ],
      "name": "SafeERC20FailedOperation",
      "type": "error"
    },
    {
      "anonymous": false,
      "inputs": [
        {
          "indexed": true,
          "internalType": "uint256",
          "name": "poolId",
          "type": "uint256"
        },
        {
          "indexed": true,
          "internalType": "address",
          "name": "creator",
          "type": "address"
        },
        {
          "indexed": false,
          "internalType": "string",
          "name": "title",
          "type": "string"
        },
        {
          "indexed": false,
          "internalType": "uint256",
          "name": "initialLiquidity",
          "type": "uint256"
        },
        {
          "indexed": false,
          "internalType": "uint256",
          "name": "closingTime",
          "type": "uint256"
        }
      ],
      "name": "BetCreated",
      "type": "event"
    },
    {
      "anonymous": false,
      "inputs": [
        {
          "indexed": false,
          "internalType": "address",
          "name": "collateralToken",
          "type": "address"
        },
        {
          "indexed": false,
          "internalType": "uint8",
          "name": "decimals",
          "type": "uint8"
        }
      ],
      "name": "Configured",
      "type": "event"
    },
    {
      "anonymous": false,
      "inputs": [
        {
          "indexed": true,
          "internalType": "address",
          "name": "owner",
          "type": "address"
        },
        {
          "indexed": false,
          "internalType": "uint256",
          "name": "amount",
          "type": "uint256"
        }
      ],
      "name": "DustCollected",
      "type": "event"
    },
    {
      "anonymous": false,
      "inputs": [
        {
          "indexed": true,
          "internalType": "address",
          "name": "recipient",
          "type": "address"
        },
        {
          "indexed": false,
          "internalType": "uint256",
          "name": "amount",
          "type": "uint256"
        }
      ],
      "name": "FeesWithdrawn",
      "type": "event"
    },
    {
      "anonymous": false,
      "inputs": [
        {
          "indexed": true,
          "internalType": "address",
          "name": "previousOwner",
          "type": "address"
        },
        {
          "indexed": true,
          "internalType": "address",
          "name": "newOwner",
          "type": "address"
        }
      ],
      "name": "OwnershipTransferred",
      "type": "event"
    },
    {
      "anonymous": false,
      "inputs": [
        {
          "indexed": true,
          "internalType": "uint256",
          "name": "poolId",
          "type": "uint256"
        },
        {
          "indexed": false,
          "internalType": "enum BetMarket.Resolution",
          "name": "outcome",
          "type": "uint8"
        }
      ],
      "name": "PoolResolved",
      "type": "event"
    },
    {
      "anonymous": false,
      "inputs": [
        {
          "indexed": true,
          "internalType": "uint256",
          "name": "poolId",
          "type": "uint256"
        }
      ],
      "name": "PoolResolving",
      "type": "event"
    },
    {
      "anonymous": false,
      "inputs": [
        {
          "indexed": true,
          "internalType": "uint256",
          "name": "poolId",
          "type": "uint256"
        },
        {
          "indexed": true,
          "internalType": "address",
          "name": "trader",
          "type": "address"
        },
        {
          "indexed": false,
          "internalType": "bool",
          "name": "isBuy",
          "type": "bool"
        },
        {
          "indexed": false,
          "internalType": "bool",
          "name": "isYes",
          "type": "bool"
        },
        {
          "indexed": false,
          "internalType": "uint256",
          "name": "tokenAmount",
          "type": "uint256"
        },
        {
          "indexed": false,
          "internalType": "uint256",
          "name": "collateralAmount",
          "type": "uint256"
        }
      ],
      "name": "Trade",
      "type": "event"
    },
    {
      "anonymous": false,
      "inputs": [
        {
          "indexed": true,
          "internalType": "uint256",
          "name": "poolId",
          "type": "uint256"
        },
        {
          "indexed": true,
          "internalType": "address",
          "name": "user",
          "type": "address"
        },
        {
          "indexed": false,
          "internalType": "uint256",
          "name": "amount",
          "type": "uint256"
        }
      ],
      "name": "Withdrawn",
      "type": "event"
    },
    {
      "inputs": [],
      "name": "REFERRER_FEE_BPS",
      "outputs": [
        {
          "internalType": "uint256",
          "name": "",
          "type": "uint256"
        }
      ],
      "stateMutability": "view",
      "type": "function"
    },
    {
      "inputs": [],
      "name": "TOTAL_FEE_BPS",
      "outputs": [
        {
          "internalType": "uint256",
          "name": "",
          "type": "uint256"
        }
      ],
      "stateMutability": "view",
      "type": "function"
    },
    {
      "inputs": [
        {
          "internalType": "uint256",
          "name": "",
          "type": "uint256"
        }
      ],
      "name": "betIds",
      "outputs": [
        {
          "internalType": "uint256",
          "name": "",
          "type": "uint256"
        }
      ],
      "stateMutability": "view",
      "type": "function"
    },
    {
      "inputs": [],
      "name": "betIdsLength",
      "outputs": [
        {
          "internalType": "uint256",
          "name": "",
          "type": "uint256"
        }
      ],
      "stateMutability": "view",
      "type": "function"
    },
    {
      "inputs": [
        {
          "internalType": "uint256",
          "name": "poolId",
          "type": "uint256"
        },
        {
          "internalType": "uint256",
          "name": "amount",
          "type": "uint256"
        },
        {
          "internalType": "address",
          "name": "referrer",
          "type": "address"
        }
      ],
      "name": "buyNo",
      "outputs": [],
      "stateMutability": "nonpayable",
      "type": "function"
    },
    {
      "inputs": [
        {
          "internalType": "uint256",
          "name": "poolId",
          "type": "uint256"
        },
        {
          "internalType": "uint256",
          "name": "amount",
          "type": "uint256"
        },
        {
          "internalType": "address",
          "name": "referrer",
          "type": "address"
        }
      ],
      "name": "buyYes",
      "outputs": [],
      "stateMutability": "nonpayable",
      "type": "function"
    },
    {
      "inputs": [],
      "name": "collateralDecimals",
      "outputs": [
        {
          "internalType": "uint8",
          "name": "",
          "type": "uint8"
        }
      ],
      "stateMutability": "view",
      "type": "function"
    },
    {
      "inputs": [],
      "name": "collateralToken",
      "outputs": [
        {
          "internalType": "contract IERC20",
          "name": "",
          "type": "address"
        }
      ],
      "stateMutability": "view",
      "type": "function"
    },
    {
      "inputs": [
        {
          "internalType": "address",
          "name": "to",
          "type": "address"
        }
      ],
      "name": "collectDust",
      "outputs": [],
      "stateMutability": "nonpayable",
      "type": "function"
    },
    {
      "inputs": [
        {
          "internalType": "address",
          "name": "_collateralToken",
          "type": "address"
        },
        {
          "internalType": "address",
          "name": "_dtnResolver",
          "type": "address"
        },
        {
          "internalType": "address",
          "name": "_reserveAddress",
          "type": "address"
        }
      ],
      "name": "configure",
      "outputs": [],
      "stateMutability": "nonpayable",
      "type": "function"
    },
    {
      "inputs": [
        {
          "internalType": "uint256",
          "name": "poolId",
          "type": "uint256"
        },
        {
          "internalType": "uint256",
          "name": "amount",
          "type": "uint256"
        }
      ],
      "name": "costToBuyNo",
      "outputs": [
        {
          "internalType": "uint256",
          "name": "",
          "type": "uint256"
        }
      ],
      "stateMutability": "view",
      "type": "function"
    },
    {
      "inputs": [
        {
          "internalType": "uint256",
          "name": "poolId",
          "type": "uint256"
        },
        {
          "internalType": "uint256",
          "name": "amount",
          "type": "uint256"
        }
      ],
      "name": "costToBuyYes",
      "outputs": [
        {
          "internalType": "uint256",
          "name": "",
          "type": "uint256"
        }
      ],
      "stateMutability": "view",
      "type": "function"
    },
    {
      "inputs": [
        {
          "internalType": "string",
          "name": "_title",
          "type": "string"
        },
        {
          "internalType": "string",
          "name": "_resolutionPrompt",
          "type": "string"
        },
        {
          "internalType": "uint256",
          "name": "_initialLiquidity",
          "type": "uint256"
        },
        {
          "internalType": "uint256",
          "name": "_closingTime",
          "type": "uint256"
        },
        {
          "internalType": "uint256",
          "name": "_resolutionTime",
          "type": "uint256"
        },
        {
          "internalType": "string",
          "name": "_discussionUrl",
          "type": "string"
        },
        {
          "internalType": "string",
          "name": "_tags",
          "type": "string"
        },
        {
          "internalType": "string",
          "name": "_logoUrl",
          "type": "string"
        }
      ],
      "name": "createBet",
      "outputs": [],
      "stateMutability": "nonpayable",
      "type": "function"
    },
    {
      "inputs": [],
      "name": "dtnResolver",
      "outputs": [
        {
          "internalType": "contract IBetResolver",
          "name": "",
          "type": "address"
        }
      ],
      "stateMutability": "view",
      "type": "function"
    },
    {
      "inputs": [
        {
          "internalType": "uint256[]",
          "name": "_betIds",
          "type": "uint256[]"
        }
      ],
      "name": "getBetSummaries",
      "outputs": [
        {
          "internalType": "uint256[]",
          "name": "_yesSupply",
          "type": "uint256[]"
        },
        {
          "internalType": "uint256[]",
          "name": "_noSupply",
          "type": "uint256[]"
        },
        {
          "internalType": "uint256[]",
          "name": "_collaterals",
          "type": "uint256[]"
        },
        {
          "internalType": "uint8[]",
          "name": "_resolutions",
          "type": "uint8[]"
        }
      ],
      "stateMutability": "view",
      "type": "function"
    },
    {
      "inputs": [
        {
          "internalType": "uint256",
          "name": "",
          "type": "uint256"
        },
        {
          "internalType": "address",
          "name": "",
          "type": "address"
        }
      ],
      "name": "isBlockedFromTrading",
      "outputs": [
        {
          "internalType": "bool",
          "name": "",
          "type": "bool"
        }
      ],
      "stateMutability": "view",
      "type": "function"
    },
    {
      "inputs": [
        {
          "internalType": "uint256",
          "name": "",
          "type": "uint256"
        },
        {
          "internalType": "address",
          "name": "",
          "type": "address"
        }
      ],
      "name": "noBalances",
      "outputs": [
        {
          "internalType": "uint256",
          "name": "",
          "type": "uint256"
        }
      ],
      "stateMutability": "view",
      "type": "function"
    },
    {
      "inputs": [
        {
          "internalType": "uint256",
          "name": "poolId",
          "type": "uint256"
        },
        {
          "internalType": "enum IBetResolver.Outcome",
          "name": "outcome",
          "type": "uint8"
        }
      ],
      "name": "onPoolResolve",
      "outputs": [],
      "stateMutability": "nonpayable",
      "type": "function"
    },
    {
      "inputs": [],
      "name": "owner",
      "outputs": [
        {
          "internalType": "address",
          "name": "",
          "type": "address"
        }
      ],
      "stateMutability": "view",
      "type": "function"
    },
    {
      "inputs": [
        {
          "internalType": "uint256",
          "name": "",
          "type": "uint256"
        }
      ],
      "name": "pools",
      "outputs": [
        {
          "internalType": "uint256",
          "name": "id",
          "type": "uint256"
        },
        {
          "internalType": "address",
          "name": "creator",
          "type": "address"
        },
        {
          "internalType": "uint256",
          "name": "closingTime",
          "type": "uint256"
        },
        {
          "internalType": "uint256",
          "name": "resolutionTime",
          "type": "uint256"
        },
        {
          "internalType": "SD59x18",
          "name": "b",
          "type": "int256"
        },
        {
          "internalType": "SD59x18",
          "name": "nYes",
          "type": "int256"
        },
        {
          "internalType": "SD59x18",
          "name": "nNo",
          "type": "int256"
        },
        {
          "internalType": "uint256",
          "name": "totalSupplyYes",
          "type": "uint256"
        },
        {
          "internalType": "uint256",
          "name": "totalSupplyNo",
          "type": "uint256"
        },
        {
          "internalType": "uint256",
          "name": "collateral",
          "type": "uint256"
        },
        {
          "internalType": "enum BetMarket.Resolution",
          "name": "resolution",
          "type": "uint8"
        },
        {
          "internalType": "string",
          "name": "title",
          "type": "string"
        },
        {
          "internalType": "string",
          "name": "resolutionPrompt",
          "type": "string"
        },
        {
          "internalType": "string",
          "name": "discussionUrl",
          "type": "string"
        },
        {
          "internalType": "string",
          "name": "tags",
          "type": "string"
        },
        {
          "internalType": "string",
          "name": "logoUrl",
          "type": "string"
        }
      ],
      "stateMutability": "view",
      "type": "function"
    },
    {
      "inputs": [],
      "name": "renounceOwnership",
      "outputs": [],
      "stateMutability": "nonpayable",
      "type": "function"
    },
    {
      "inputs": [],
      "name": "reserveAddress",
      "outputs": [
        {
          "internalType": "address",
          "name": "",
          "type": "address"
        }
      ],
      "stateMutability": "view",
      "type": "function"
    },
    {
      "inputs": [
        {
          "internalType": "uint256",
          "name": "poolId",
          "type": "uint256"
        }
      ],
      "name": "resolve",
      "outputs": [],
      "stateMutability": "payable",
      "type": "function"
    },
    {
      "inputs": [
        {
          "internalType": "uint256",
          "name": "poolId",
          "type": "uint256"
        },
        {
          "internalType": "uint256",
          "name": "amount",
          "type": "uint256"
        }
      ],
      "name": "revenueFromSellNo",
      "outputs": [
        {
          "internalType": "uint256",
          "name": "",
          "type": "uint256"
        }
      ],
      "stateMutability": "view",
      "type": "function"
    },
    {
      "inputs": [
        {
          "internalType": "uint256",
          "name": "poolId",
          "type": "uint256"
        },
        {
          "internalType": "uint256",
          "name": "amount",
          "type": "uint256"
        }
      ],
      "name": "revenueFromSellYes",
      "outputs": [
        {
          "internalType": "uint256",
          "name": "",
          "type": "uint256"
        }
      ],
      "stateMutability": "view",
      "type": "function"
    },
    {
      "inputs": [],
      "name": "scalingFactor",
      "outputs": [
        {
          "internalType": "uint256",
          "name": "",
          "type": "uint256"
        }
      ],
      "stateMutability": "view",
      "type": "function"
    },
    {
      "inputs": [
        {
          "internalType": "uint256",
          "name": "poolId",
          "type": "uint256"
        },
        {
          "internalType": "uint256",
          "name": "amount",
          "type": "uint256"
        },
        {
          "internalType": "address",
          "name": "referrer",
          "type": "address"
        }
      ],
      "name": "sellNo",
      "outputs": [],
      "stateMutability": "nonpayable",
      "type": "function"
    },
    {
      "inputs": [
        {
          "internalType": "uint256",
          "name": "poolId",
          "type": "uint256"
        },
        {
          "internalType": "uint256",
          "name": "amount",
          "type": "uint256"
        },
        {
          "internalType": "address",
          "name": "referrer",
          "type": "address"
        }
      ],
      "name": "sellYes",
      "outputs": [],
      "stateMutability": "nonpayable",
      "type": "function"
    },
    {
      "inputs": [],
      "name": "totalCollateral",
      "outputs": [
        {
          "internalType": "uint256",
          "name": "",
          "type": "uint256"
        }
      ],
      "stateMutability": "view",
      "type": "function"
    },
    {
      "inputs": [
        {
          "internalType": "address",
          "name": "newOwner",
          "type": "address"
        }
      ],
      "name": "transferOwnership",
      "outputs": [],
      "stateMutability": "nonpayable",
      "type": "function"
    },
    {
      "inputs": [
        {
          "internalType": "uint256",
          "name": "poolId",
          "type": "uint256"
        }
      ],
      "name": "withdraw",
      "outputs": [],
      "stateMutability": "nonpayable",
      "type": "function"
    },
    {
      "inputs": [],
      "name": "withdrawFees",
      "outputs": [],
      "stateMutability": "nonpayable",
      "type": "function"
    },
    {
      "inputs": [
        {
          "internalType": "uint256",
          "name": "poolId",
          "type": "uint256"
        },
        {
          "internalType": "address",
          "name": "user",
          "type": "address"
        }
      ],
      "name": "withdrawableAmount",
      "outputs": [
        {
          "internalType": "uint256",
          "name": "",
          "type": "uint256"
        }
      ],
      "stateMutability": "view",
      "type": "function"
    },
    {
      "inputs": [
        {
          "internalType": "address",
          "name": "",
          "type": "address"
        }
      ],
      "name": "withdrawableFees",
      "outputs": [
        {
          "internalType": "uint256",
          "name": "",
          "type": "uint256"
        }
      ],
      "stateMutability": "view",
      "type": "function"
    },
    {
      "inputs": [
        {
          "internalType": "uint256",
          "name": "",
          "type": "uint256"
        },
        {
          "internalType": "address",
          "name": "",
          "type": "address"
        }
      ],
      "name": "yesBalances",
      "outputs": [
        {
          "internalType": "uint256",
          "name": "",
          "type": "uint256"
        }
      ],
      "stateMutability": "view",
      "type": "function"
    }
  ],
  "bytecode": "0x60803460bc57601f613dad38819003918201601f19168301916001600160401b0383118484101760c15780849260209460405283398101031260bc57516001600160a01b0381169081900360bc57801560a657600080546001600160a01b031981168317825560405192916001600160a01b03909116907f8be0079c531659141344cd1fd0a4f28419497f9722a3daafe3b4186f6b6457e09080a3613cd590816100d88239f35b631e4fbdf760e01b600052600060045260246000fd5b600080fd5b634e487b7160e01b600052604160045260246000fdfe60a0604052600436101561001257600080fd5b6000803560e01c806311173807146122b5578063228f07a61461229b5780632e1a7d4d146121a457806342f24ed214612183578063476343ee146120ce5780634a2d5b9414611f275780634ac8eb5f14611f095780634f896d4f14611d4957806350a87b3b14611d0257806355d28f2014611b2f5780636f28507c14611b13578063715018a614611ab95780637831a74f14611a925780637ed708cb1461196057806386c68f11146119425780638a00de091461190e5780638da5cb5b146118e7578063974f74d1146118c5578063a1d5fec114610da0578063ac4afa3814610c1c578063b2016bd414610bf3578063b5ff0b5914610ab3578063b991c37e14610892578063ba624d0e14610858578063bb484ac21461083c578063be489060146107f5578063c82cfeb4146107cc578063cce3866e14610601578063e2c9f66e1461049a578063ec9c6c3014610476578063ed3437f814610458578063f0c6a48e14610288578063f2fde38b14610202578063f79ed94b146101d95763fd8749951461019e57600080fd5b346101d65760203660031901126101d6576020906040906001600160a01b036101c5612319565b168152600583522054604051908152f35b80fd5b50346101d657806003193601126101d6576003546040516001600160a01b039091168152602090f35b50346101d65760203660031901126101d65761021c612319565b610224612b3b565b6001600160a01b031680156102745781546001600160a01b03198116821783556001600160a01b03167f8be0079c531659141344cd1fd0a4f28419497f9722a3daafe3b4186f6b6457e08380a380f35b631e4fbdf760e01b82526004829052602482fd5b50346101d65760203660031901126101d6576004356001600160401b0381116104545736602382011215610454578060040135906102c58261256c565b916102d3604051938461236f565b8083526024602084019160051b8301019136831161045057602401905b82821061044057835185856103048361297b565b9161030e8461297b565b6103178561297b565b906103218661256c565b9561032f604051978861236f565b80875261033b8161256c565b602088019590601f1901368737845b8281106103cd575050506103916103769692610383602093604051998a9960808b5260808b0190612583565b90898203868b0152612583565b908782036040890152612583565b91858303606087015251918281520192915b8181106103b1575050500390f35b825160ff168452859450602093840193909201916001016103a3565b806103de600192849b999a9b6129ad565b518752600860205260ff600a604089208c6103fe856007840154926129ad565b52600881015461040e858a6129ad565b52600981015461041e858b6129ad565b5201541661042b816124da565b610435828a6129ad565b52019796959761034a565b81358152602091820191016102f0565b8480fd5b5080fd5b50346101d657806003193601126101d6576020600454604051908152f35b50346101d657806003193601126101d657602060ff60035460a01c16604051908152f35b50346101d6576104a936612345565b8284939293526008602052604084206104c23382612dc4565b6104cd841515612afa565b6104d78484612d0f565b9160148302838104601414841517156105ed5761271090046104f98185612704565b9260098101610509868254612704565b905561051785600754612704565b600755610526600454886125cd565b6005820180548a83820193841291129080158216911516176105d9579260076105a1936105b69693600080516020613c80833981519152999896550161056d8a8254612704565b9055878a52600960205260408a2060018060a01b033316600052602052604060002061059a8a8254612704565b9055612ed3565b600154309033906001600160a01b0316612b64565b60408051600180825260208201529081019490945260608401523392608090a380f35b634e487b7160e01b8a52601160045260248afd5b634e487b7160e01b87526011600452602487fd5b50346101d65761061036612345565b8284526008602052604084209192916106293382612dc4565b610634841515612afa565b61063e8484612d6c565b9160148302838104601414841517156105ed5761271090046106608185612704565b9260098101610670868254612704565b905561067e85600754612704565b60075561068d600454886125cd565b8815610739576005820180548a83820193841291129080158216911516176105d9579361070a93600761073397946105a194600080516020613c808339815191529a9855016106dd8b8254612704565b9055888b52600960205260408b2060018060a01b033316600052602052604060002061059a8b8254612704565b604051918291339688846060919493926080820195600183521515602083015260408201520152565b0390a380f35b600682939694959201948554600083820193841291129080158216911516176107b657600080516020613c8083398151915296600861070a956105a1946107339955016107878b8254612704565b905588600052600a602052604060002060018060a01b033316600052602052604060002061059a8b8254612704565b634e487b7160e01b600052601160045260246000fd5b50346101d657806003193601126101d6576002546040516001600160a01b039091168152602090f35b50346101d65760403660031901126101d65760406108116122fe565b916004358152600a602052209060018060a01b03166000526020526020604060002054604051908152f35b50346101d657806003193601126101d6576020604051600a8152f35b50346101d65760203660031901126101d65760043590600c548210156101d65760206108838361253b565b90549060031b1c604051908152f35b50346101d6576108a136612345565b8284939293526008602052604084206108ba3382612dc4565b6108c5841515612afa565b82855260096020908152604080872033600090815292529020548411610a6e576108f1600185856129c1565b918215610a3157601483028381046014036105ed576127109004808411156109f55761091d8185612600565b926009810161092d868254612600565b905561093b85600754612600565b60075561094a600454886125cd565b6005820180548a83820393128184128116918413901516176105d9579260076109be936109d19693600080516020613c8083398151915299989655016109918a8254612600565b9055878a52600960205260408a2060018060a01b033316600052602052604060002061059a8a8254612600565b60015433906001600160a01b0316612aba565b6040805160008152600160208201529081019490945260608401523392608090a380f35b60405162461bcd60e51b8152602060048201526014602482015273526566756e64206c657373207468616e2066656560601b6044820152606490fd5b60405162461bcd60e51b8152602060048201526015602482015274526566756e642063616e6e6f74206265207a65726f60581b6044820152606490fd5b60405162461bcd60e51b815260206004820152601860248201527f496e73756666696369656e74205945532062616c616e636500000000000000006044820152606490fd5b50346101d65760203660031901126101d657610acd612319565b610ad5612b3b565b6001546040516370a0823160e01b81523060048201526001600160a01b039091169190602081602481865afa908115610be8578491610bb2575b5060075480821115610ba957610b2491612600565b915b8215610b6f5781610b5b847f51eb5aa877b3d80e186f9a323c6dce052491963271d09ee40615d0bb182359d594602094612aba565b6040519384526001600160a01b031692a280f35b60405162461bcd60e51b8152602060048201526012602482015271139bc8191d5cdd081d1bc818dbdb1b1958dd60721b6044820152606490fd5b50508291610b26565b90506020813d602011610be0575b81610bcd6020938361236f565b81010312610bdc575138610b0f565b8380fd5b3d9150610bc0565b6040513d86823e3d90fd5b50346101d657806003193601126101d6576001546040516001600160a01b039091168152602090f35b50346101d65760203660031901126101d657600435815260086020526040902080549080600160a01b6001900360018201541660028201546003830154600484015460058501546006860154600787015490600888015492600989015494600a8a015460ff1696600b8b01610c9090612436565b98610c9d600c8d01612436565b9a610caa600d8e01612436565b9c600e01610cb790612436565b9d600f01610cc490612436565b9e604051608052608051526080516020015260805160400152608051606001526080516080015260805160a0015260805160c0015260805160e0015260805161010001526080516101200152610d19816124da565b608051610140015260805161016001610200905260805161020001610d3d916124fa565b60805181036080516101800152610d53916124fa565b60805181036080516101a00152610d69916124fa565b60805181036080516101c00152610d7f916124fa565b9060805182036080516101e0015260805191610d9a916124fa565b03608051f35b50346101d6576101003660031901126101d6576004356001600160401b03811161045457610dd29036906004016123a6565b6024356001600160401b0381116118c157610df19036906004016123a6565b906084359160a4356001600160401b03811161045057610e159036906004016123a6565b60c4356001600160401b0381116118bd57610e349036906004016123a6565b9360e4356001600160401b0381116118b957610e549036906004016123a6565b60443515611874574260643511156118245760643582106117e05761080084511161179b576001546001600160a01b03161561175657600654956000198714611742576001870160065560443560011b604435810460020361172e576064900493610ed0610ec486604435612704565b60011c95604435612704565b60011c95600454610eeb610ee482896125cd565b91896125cd565b906040519661020088018881106001600160401b0382111761171a5760405260018c0188523360208901526064356040890152606088015268056bc75e2d63100000608088015260a087015260c08601528560e08601528661010086015260443561012086015289610140860152876101608601526101808501526101a08401526101c08301526101e0820152600185018652600860205260408620815181556001810160018060a01b036020840151166001600160601b0360a01b82541617905560408201516002820155606082015160038201556080820151600482015560a0820151600582015560c0820151600682015560e0820151600782015561010082015160088201556101208201516009820155600a8101610140830151611012816124da565b61101b816124da565b60ff801983541691161790556101608201518051906001600160401b03821161164257819061104d600b8501546123fc565b601f81116116ca575b50602090601f8311600114611661578a92611656575b50508160011b916000199060031b1c191617600b8201555b6101808201518051906001600160401b0382116116425781906110aa600c8501546123fc565b601f81116115ef575b50602090601f8311600114611586578a9261157b575b50508160011b916000199060031b1c191617600c8201555b600d81016101a08301518051906001600160401b0382116114a957819061110884546123fc565b601f811161152b575b50602090601f83116001146114c8578b926114bd575b50508160011b916000199060031b1c19161790555b600e81016101c08301518051906001600160401b0382116114a95761116183546123fc565b601f8111611464575b50602090601f83116001146113fa579180600f94926101e096948d926113ef575b50508160011b916000199060031b1c19161790555b019101518051906001600160401b0382116113db5781906111c184546123fc565b601f811161138b575b50602090601f831160011461132857899261131d575b50508160011b916000199060031b1c19161790555b6001848101808752600b60209081526040808920336000818152918452828220805460ff1916909617909555838a5260098352818a20858252835281812095909555918852600a815281882092845291909152902055600c54680100000000000000008110156113095780600161126f9201600c5561253b565b81549060031b9060018501821b91600019901b1916179055611295604435600754612704565b6007556001546112b59060443590309033906001600160a01b0316612b64565b7f0c06e0bf49f5d31fc398a077db97270a76e6b0d9a883ab354de578f6c89270a76112eb604051926060845260608401906124fa565b9160443560208201526064356040820152806001339501930390a380f35b634e487b7160e01b84526041600452602484fd5b0151905038806111e0565b848a52818a209250601f1984168a5b818110611373575090846001959493921061135a575b505050811b0190556111f5565b015160001960f88460031b161c1916905538808061134d565b92936020600181928786015181550195019301611337565b90915083895260208920601f840160051c810191602085106113d1575b90601f859493920160051c01905b8181106113c357506111ca565b8a81558493506001016113b6565b90915081906113a8565b634e487b7160e01b88526041600452602488fd5b01519050388061118b565b838b52818b209190601f1984168c5b81811061144c57509260019285926101e09896600f989610611433575b505050811b0190556111a0565b015160001960f88460031b161c19169055388080611426565b92936020600181928786015181550195019301611409565b838b5260208b20601f840160051c8101916020851061149f575b601f0160051c01905b818110611494575061116a565b8b8155600101611487565b909150819061147e565b634e487b7160e01b8a52604160045260248afd5b015190503880611127565b848c52818c209250601f1984168c5b81811061151357509084600195949392106114fa575b505050811b01905561113c565b015160001960f88460031b161c191690553880806114ed565b929360206001819287860151815501950193016114d7565b909150838b5260208b20601f840160051c81019160208510611571575b90601f859493920160051c01905b8181106115635750611111565b8c8155849350600101611556565b9091508190611548565b0151905038806110c9565b600c85018b52818b209250601f1984168b5b8181106115d757509084600195949392106115be575b505050811b01600c8201556110e1565b015160001960f88460031b161c191690553880806115ae565b92936020600181928786015181550195019301611598565b909150600c84018a5260208a20601f840160051c81019160208510611638575b90601f859493920160051c01905b81811061162a57506110b3565b8b815584935060010161161d565b909150819061160f565b634e487b7160e01b89526041600452602489fd5b01519050388061106c565b600b85018b52818b209250601f1984168b5b8181106116b25750908460019594939210611699575b505050811b01600b820155611084565b015160001960f88460031b161c19169055388080611689565b92936020600181928786015181550195019301611673565b909150600b84018a5260208a20601f840160051c810160208510611713575b90849392915b601f830160051c82018110611705575050611056565b8c81558594506001016116ef565b50806116e9565b634e487b7160e01b8e52604160045260248efd5b634e487b7160e01b89526011600452602489fd5b634e487b7160e01b88526011600452602488fd5b60405162461bcd60e51b815260206004820152601760248201527f436f6e7472616374206e6f7420636f6e666967757265640000000000000000006044820152606490fd5b60405162461bcd60e51b815260206004820152601a60248201527f5265736f6c7574696f6e2070726f6d707420746f6f206c6f6e670000000000006044820152606490fd5b606460405162461bcd60e51b815260206004820152602060248201527f5265736f6c7574696f6e206d75737420626520616674657220636c6f73696e676044820152fd5b60405162461bcd60e51b815260206004820152602260248201527f436c6f73696e672074696d65206d75737420626520696e207468652066757475604482015261726560f01b6064820152608490fd5b60405162461bcd60e51b815260206004820152601d60248201527f496e697469616c206c6971756964697479206d757374206265203e20300000006044820152606490fd5b8680fd5b8580fd5b8280fd5b50346101d65760206118df6118d93661232f565b906128f3565b604051908152f35b50346101d657806003193601126101d657546040516001600160a01b039091168152602090f35b50346101d6576118df60209161271061192f6119293661232f565b90612d6c565b91611939836125b7565b90500490612704565b50346101d657806003193601126101d6576020600c54604051908152f35b50346101d65760403660031901126101d65760043560243560048110156118c1576002546001600160a01b03163303611a4d57602060ff7f3c3a67175a1c5129745432bb986e789f21683b1114f335db0389ecae9fc669869284865260088352600a604087206119d281541515612711565b01908154906119ec8483166119e6816124da565b15612753565b6119f5816124da565b60018103611a1f575050600182198254161781555b541660405190611a19816124da565b8152a280f35b600290611a2b816124da565b03611a40575060028219825416178155611a0a565b8219166003178155611a0a565b60405162461bcd60e51b815260206004820152601860248201527f43616c6c6572206973206e6f7420746865206f7261636c6500000000000000006044820152606490fd5b50346101d65760403660031901126101d65760206118df611ab16122fe565b600435612797565b50346101d657806003193601126101d657611ad2612b3b565b80546001600160a01b03198116825581906001600160a01b03167f8be0079c531659141344cd1fd0a4f28419497f9722a3daafe3b4186f6b6457e08280a380f35b50346101d657806003193601126101d657602060405160148152f35b50346101d65760603660031901126101d657611b49612319565b611b516122fe565b906044356001600160a01b0381169190829003610bdc57611b70612b3b565b60018060a01b031691826001600160601b0360a01b600154161760015560018060a01b03166001600160601b0360a01b6002541617600255600354816001600160601b0360a01b8216176003556040519163313ce56760e01b8352602083600481875afa8015611cf7578590611cb8575b6001600160a81b03199092161760a091821b60ff60a01b16176003819055901c60ff16905060128111611c73578060120360ff8111611c5f5760ff16604d8111611c5f57916040917f80ea7e7260ba14b6b9ebaa4bba7952934aa422b762e22040f15469683809552793600a0a60045582519182526020820152a180f35b634e487b7160e01b84526011600452602484fd5b60405162461bcd60e51b815260206004820152601f60248201527f546f6b656e20646563696d616c732063616e6e6f7420657863656564203138006044820152606490fd5b50916020813d602011611cef575b81611cd36020938361236f565b8101031261045057519160ff831683036104505760ff92611be1565b3d9150611cc6565b6040513d87823e3d90fd5b50346101d65760403660031901126101d6576040611d1e6122fe565b9160043581526009602052209060018060a01b03166000526020526020604060002054604051908152f35b5060203660031901126101d657600435808252600860205260408220611d7181541515612711565b6003810154421115611ec45780611d9360ff600a86940154166119e6816124da565b600254600c91909101906001600160a01b0316803b156118c15760405191637bf13d4d60e01b8352846004840152606060248401528390805490611dd6826123fc565b918260648701528686600183169283600014611e9e57505050600114611e65575b5050839183808093637ed708cb60e01b6044830152039134905af18015611e5a57611e45575b50807fa021fe3d475b6e003ef1b4cbc9fcf4e069d1df9fcf4bc0da5ebba0f9db7ec15e91a280f35b81611e4f9161236f565b610454578138611e1d565b6040513d84823e3d90fd5b8552602085208592505b818310611e8457505082016084018183611df7565b805460848685010152879550602090920191600101611e6f565b60ff191660848083019190915294151560051b8101909401945085939250611df7915050565b60405162461bcd60e51b815260206004820152601760248201527f4e6f7420796574207265736f6c7574696f6e2074696d650000000000000000006044820152606490fd5b50346101d657806003193601126101d6576020600754604051908152f35b50346101d657611f3636612345565b828452600860205260408420919391611f4f3382612dc4565b611f5a851515612afa565b838352600a60209081526040808520338652909152832054851161208957611f838386866129c1565b918215610a31576014830283810460140361207557612710900493848411156109f557611fb08585612600565b9160098401611fc0868254612600565b9055611fce85600754612600565b600755611fdd600454896125cd565b915060068401958654600084820394128185128116918513901516176107b6576008612053956109be94600080516020613c808339815191529955016120248a8254612600565b905587600052600a602052604060002060018060a01b033316600052602052604060002061059a8a8254612600565b60408051600080825260208201529081019490945260608401523392608090a3005b634e487b7160e01b85526011600452602485fd5b60405162461bcd60e51b815260206004820152601760248201527f496e73756666696369656e74204e4f2062616c616e63650000000000000000006044820152606490fd5b50346101d657806003193601126101d65733815260056020526040812054801561214857338083526005602052604083208390556001546121199183916001600160a01b0316612aba565b6040519081527fc0819c13be868895eb93e40eaceb96de976442fa1d404e5c55f14bb65a8c489a60203392a280f35b60405162461bcd60e51b81526020600482015260136024820152724e6f206665657320746f20776974686472617760681b6044820152606490fd5b50346101d6576118df60209161271061192f61219e3661232f565b90612d0f565b50346101d65760203660031901126101d6576004356121c33382612797565b90811561225f5780835260096020818152604080862033808852908352818720879055848752600a835281872090875282528086208690558386526008909152842001546007546122149190612600565b60075560015461223090839033906001600160a01b0316612aba565b6040519182527fcf7d23a3cbe4e8b36ff82fd1b05b1b17373dc7804b4ebbd6e2356716ef20237260203393a380f35b60405162461bcd60e51b81526020600482015260146024820152734e6f2066756e647320746f20776974686472617760601b6044820152606490fd5b50346101d65760206118df6122af3661232f565b9061260d565b50346101d65760403660031901126101d65760ff60406020926122d66122fe565b6004358252600b85528282206001600160a01b03909116825284522054604051911615158152f35b602435906001600160a01b038216820361231457565b600080fd5b600435906001600160a01b038216820361231457565b6040906003190112612314576004359060243590565b60609060031901126123145760043590602435906044356001600160a01b03811681036123145790565b90601f801991011681019081106001600160401b0382111761239057604052565b634e487b7160e01b600052604160045260246000fd5b81601f82011215612314578035906001600160401b03821161239057604051926123da601f8401601f19166020018561236f565b8284526020838301011161231457816000926020809301838601378301015290565b90600182811c9216801561242c575b602083101461241657565b634e487b7160e01b600052602260045260246000fd5b91607f169161240b565b906040519182600082549261244a846123fc565b80845293600181169081156124b85750600114612471575b5061246f9250038361236f565b565b90506000929192526020600020906000915b81831061249c57505090602061246f9282010138612462565b6020919350806001915483858901015201910190918492612483565b90506020925061246f94915060ff191682840152151560051b82010138612462565b600411156124e457565b634e487b7160e01b600052602160045260246000fd5b919082519283825260005b848110612526575050826000602080949584010152601f8019910116010190565b80602080928401015182828601015201612505565b600c5481101561255657600c60005260206000200190600090565b634e487b7160e01b600052603260045260246000fd5b6001600160401b0381116123905760051b60200190565b906020808351928381520192019060005b8181106125a15750505090565b8251845260209384019390920191600101612594565b906014820291808304601414901517156107b657565b818102929181159184041417156107b657565b81156125ea570490565b634e487b7160e01b600052601260045260246000fd5b919082039182116107b657565b9190600092835260086020526040832061262a60045480936125cd565b60058201549060046006840154930154916126748361266f61266a6126576126528487612f93565b613046565b612664612652858b612f93565b90612f77565b61309e565b6130d6565b938783820393128184128116918413901516176105ed5761266a8392612664612652856126aa6126526126b09961266f98612f93565b93612f93565b90848282039212818312811691831390151617611c5f576126d29293506125e0565b60148102818104601414821517156107b6576127109004808211156126fd576126fa91612600565b90565b5050600090565b919082018092116107b657565b1561271857565b60405162461bcd60e51b8152602060048201526013602482015272141bdbdb08191bd95cc81b9bdd08195e1a5cdd606a1b6044820152606490fd5b1561275a57565b60405162461bcd60e51b8152602060048201526015602482015274141bdbdb08185b1c9958591e481c995cdbdb1d9959605a1b6044820152606490fd5b80600052600860205260406000209060ff600a83015416926127b8846124da565b83156128ba57816000526009602052604060002060018060a01b03821660005260205260406000205491600052600a60205260406000209060018060a01b031660005260205260406000205490600093612811816124da565b6001810361284e575090506007820154918261282e575b50505090565b61284693509060096128419201546125cd565b6125e0565b388080612828565b60029061285a816124da565b0361287157506008820154918261282e5750505090565b91906128866007830154600884015490612704565b9283612894575b5050505090565b6128b194506128a96128419392600992612704565b9101546125cd565b3880808061288d565b60405162461bcd60e51b8152602060048201526011602482015270141bdbdb081b9bdd081c995cdbdb1d9959607a1b6044820152606490fd5b9190600092835260086020526040832061291060045480936125cd565b60058201549160046006820154910154916129458361266f61266a612938612652848a612f93565b6126646126528589612f93565b938782820392128183128116918313901516176105ed5761266a8392612664612652856126aa6126526126b09961266f98612f93565b906129858261256c565b612992604051918261236f565b82815280926129a3601f199161256c565b0190602036910137565b80518210156125565760209160051b010190565b600052600860205260406000206129db60045480936125cd565b906005810154906004600682015491015491612a048361266f61266a6129386126528487612f93565b9560009015612a655750600084820394128185128116918513901516176107b65761266a61266f91612664612652856126aa61265282612a439a612f93565b915b600083820393128184128116918413901516176107b6576126fa916125e0565b9091818582969596039412818512811691851390151617612aa6575061266a8392612664612652856126aa612652612aa09961266f98612f93565b91612a45565b634e487b7160e01b81526011600452602490fd5b60405163a9059cbb60e01b60208201526001600160a01b03909216602483015260448083019390935291815261246f91612af560648361236f565b612ca8565b15612b0157565b60405162461bcd60e51b81526020600482015260126024820152710416d6f756e74206d757374206265203e20360741b6044820152606490fd5b6000546001600160a01b03163303612b4f57565b63118cdaa760e01b6000523360045260246000fd5b6040516323b872dd60e01b60208201526001600160a01b03928316602482015292909116604483015260648083019390935291815261246f91612af560848361236f565b612652836126aa61265282612bbc95612f93565b90600082820192831291129080158216911516176107b657612bdd90613a9c565b670de0b6b3a7640000810290808205670de0b6b3a764000014901517156107b6576714057b7ef767814f9005600160ff1b81148015612c9b575b612c8a576000811215612c8157612c3f816000035b6000841215612c7a578360000390613be7565b916001600160ff1b038311612c625760001991181315612c5c5790565b60000390565b9063120b5b4360e01b60005260045260245260446000fd5b8390613be7565b612c3f81612c2c565b63a6070c2560e01b60005260046000fd5b50600160ff1b8214612c17565b906000602091828151910182855af115612d03576000513d612cfa57506001600160a01b0381163b155b612cd95750565b635274afe760e01b60009081526001600160a01b0391909116600452602490fd5b60011415612cd2565b6040513d6000823e3d90fd5b6000526008602052604060002090612d2a60045480926125cd565b6005830154926004600682015491015491612d46838387612ba8565b94600090818382019384129112908015821691151617612aa6575090612a459291612ba8565b6000526008602052604060002090612d8760045480926125cd565b6005830154906004600685015494015490612da3828685612ba8565b94600082820192831291129080158216911516176107b657612a4592612ba8565b805490612dd2821515612711565b60028101544211612e9957600a015460ff16612ded816124da565b612e6157600052600b60205260406000209060018060a01b031660005260205260ff60406000205416612e1c57565b60405162461bcd60e51b815260206004820152601f60248201527f4164647265737320697320626c6f636b65642066726f6d2074726164696e67006044820152606490fd5b60405162461bcd60e51b815260206004820152601060248201526f141bdbdb081a5cc81c995cdbdb1d995960821b6044820152606490fd5b60405162461bcd60e51b8152602060048201526012602482015271151c98591a5b99c81a185cc818db1bdcd95960721b6044820152606490fd5b908115612f73576000906001600160a01b031680151580612f5e575b612f25575b50612efe91612600565b60018060a01b03600354166000526005602052612f216040600020918254612704565b9055565b9050600a820291808304600a036107b6576014612efe93049160005260056020526040600020612f56838254612704565b905591612ef4565b506003546001600160a01b0316811415612eef565b5050565b919091600083820193841291129080158216911516176107b657565b600160ff1b8114801561301f575b61300e57600081121561300557612fc9816000035b6000841215612ffe57836000039061310a565b916001600160ff1b038311612fe65760001991181315612c5c5790565b9063d49c26b360e01b60005260045260245260446000fd5b839061310a565b612fc981612fb6565b6309fe2b4560e41b60005260046000fd5b50600160ff1b8214612fa1565b80156125ea576ec097ce7bc90715b34b9f10000000000590565b68023f2fa8f6da5b9d3119811261309857680736ea4425c11ac630811361308457670de0b6b3a76400006714057b7ef767814f6126fa9202056131cc565b63ca7ec0c560e01b60005260045260246000fd5b50600090565b6130a790613a9c565b670de0b6b3a7640000810290808205670de0b6b3a764000014901517156107b6576714057b7ef767814f900590565b600160ff1b81148015612c9b57612c8a576000811215612c8157612c3f816000036000841215612c7a578360000390613be7565b600019670de0b6b3a7640000820991670de0b6b3a76400008202918280851094039380850394146131c0578184101561319d57670de0b6b3a764000082910960018219018216809204600281600302188082026002030280820260020302808202600203028082026002030280820260020302809102600203029360018380600003040190848311900302920304170290565b630c740aef60e31b600052600452670de0b6b3a764000060245260445260646000fd5b50906126fa92506125e0565b60008112156131fb5768033dd1780914b97114198112613098576131f2906000036131cc565b6126fa9061302c565b680a688906bd8affffff8113613a8957670de0b6b3a76400009060401b05600160bf1b67ff000000000000008216613960575b670de0b6b3a76400009066ff0000000000008316613850575b65ff00000000008316613748575b64ff000000008316613648575b63ff0000008316613550575b62ff00008316613460575b61ff008316613378575b60ff8316613298575b029060401c60bf031c90565b60808316613365575b60408316613352575b6020831661333f575b6010831661332c575b60088316613319575b60048316613306575b600283166132f3575b600183161561328c57680100000000000000010260401c61328c565b680100000000000000010260401c6132d7565b680100000000000000030260401c6132ce565b680100000000000000060260401c6132c5565b6801000000000000000b0260401c6132bc565b680100000000000000160260401c6132b3565b6801000000000000002c0260401c6132aa565b680100000000000000590260401c6132a1565b618000831661344d575b614000831661343a575b6120008316613427575b6110008316613414575b6108008316613401575b61040083166133ee575b61020083166133db575b61010083161561328357680100000000000000b10260401c613283565b680100000000000001630260401c6133be565b680100000000000002c60260401c6133b4565b6801000000000000058c0260401c6133aa565b68010000000000000b170260401c6133a0565b6801000000000000162e0260401c613396565b68010000000000002c5d0260401c61338c565b680100000000000058b90260401c613382565b62800000831661353d575b62400000831661352a575b622000008316613517575b621000008316613504575b6208000083166134f1575b6204000083166134de575b6202000083166134cb575b62010000831615613279576801000000000000b1720260401c613279565b680100000000000162e40260401c6134ad565b6801000000000002c5c80260401c6134a2565b68010000000000058b910260401c613497565b680100000000000b17210260401c61348c565b68010000000000162e430260401c613481565b680100000000002c5c860260401c613476565b6801000000000058b90c0260401c61346b565b63800000008316613635575b63400000008316613622575b6320000000831661360f575b631000000083166135fc575b630800000083166135e9575b630400000083166135d6575b630200000083166135c3575b630100000083161561326e5768010000000000b172180260401c61326e565b6801000000000162e4300260401c6135a4565b68010000000002c5c8600260401c613598565b680100000000058b90c00260401c61358c565b6801000000000b17217f0260401c613580565b680100000000162e42ff0260401c613574565b6801000000002c5c85fe0260401c613568565b68010000000058b90bfc0260401c61355c565b6480000000008316613735575b6440000000008316613722575b642000000000831661370f575b64100000000083166136fc575b64080000000083166136e9575b64040000000083166136d6575b64020000000083166136c3575b64010000000083161561326257680100000000b17217f80260401c613262565b68010000000162e42ff10260401c6136a3565b680100000002c5c85fe30260401c613696565b6801000000058b90bfce0260401c613689565b68010000000b17217fbb0260401c61367c565b6801000000162e42fff00260401c61366f565b68010000002c5c8601cc0260401c613662565b680100000058b90c0b490260401c613655565b65800000000000831661383d575b65400000000000831661382a575b652000000000008316613817575b651000000000008316613804575b6508000000000083166137f1575b6504000000000083166137de575b6502000000000083166137cb575b65010000000000831615613255576801000000b1721835510260401c613255565b680100000162e430e5a20260401c6137aa565b6801000002c5c863b73f0260401c61379c565b68010000058b90cf1e6e0260401c61378e565b680100000b1721bcfc9a0260401c613780565b68010000162e43f4f8310260401c613772565b680100002c5c89d5ec6d0260401c613764565b6801000058b91b5bc9ae0260401c613756565b6680000000000000831661394d575b6640000000000000831661393a575b66200000000000008316613927575b66100000000000008316613914575b66080000000000008316613901575b660400000000000083166138ee575b660200000000000083166138db575b66010000000000008316156132475768010000b17255775c040260401c613247565b6801000162e525ee05470260401c6138b9565b68010002c5cc37da94920260401c6138aa565b680100058ba01fb9f96d0260401c61389b565b6801000b175effdc76ba0260401c61388c565b680100162f3904051fa10260401c61387d565b6801002c605e2e8cec500260401c61386e565b68010058c86da1c09ea20260401c61385f565b6780000000000000008216613a76575b670de0b6b3a7640000906740000000000000008316613a63575b6720000000000000008316613a50575b6710000000000000008316613a3d575b6708000000000000008316613a2a575b6704000000000000008316613a17575b6702000000000000008316613a04575b67010000000000000083166139f1575b905061322e565b680100b1afa5abcbed610260401c6139ea565b68010163da9fb33356d80260401c6139da565b680102c9a3e778060ee70260401c6139ca565b6801059b0d31585743ae0260401c6139ba565b68010b5586cf9890f62a0260401c6139aa565b6801172b83c7d517adce0260401c61399a565b6801306fe0a31b7152df0260401c61398a565b5068016a09e667f3bcc909607f1b613970565b626c1a0560e31b60005260045260246000fd5b806000811315613bd357670de0b6b3a76400008112613bb257506001905b670de0b6b3a764000081056fffffffffffffffffffffffffffffffff811160071b90811c6001600160401b03811160061b90811c63ffffffff811160051b90811c61ffff811160041b90811c9060ff821160031b91821c92600f841160021b93841c94600160038711811b96871c119617171717171717670de0b6b3a7640000810291811d90670de0b6b3a76400008214613b9f57506706f05b59d3b20000905b60008213613b695750500290565b80670de0b6b3a764000091020590671bc16d674ec80000821215613b91575b60011d90613b5b565b809192019160011d90613b88565b9050670de0b6b3a7640000929150020290565b600019915080156125ea576ec097ce7bc90715b34b9f100000000005613aba565b63059b101b60e01b60005260045260246000fd5b90919060001983820983820291828083109203918083039214613c6e57670de0b6b3a7640000821015613c55577faccb18165bd6fe31ae1cf318dc5b51eee0e1ba569b88cd74c1773b91fac106699394670de0b6b3a7640000910990828211900360ee1b910360121c170290565b8490635173648d60e01b60005260045260245260446000fd5b5050670de0b6b3a76400009004915056fe1080a6e42ac16e1e06ceeec56bfcd11d5f64a6b48cdf10db0f6566172e7f92a0a2646970667358221220a21583d79c8c38ac9785a4ed73ce6a59c1599c1c94267b78643ddb1d84da43ee64736f6c634300081c0033",
  "linkReferences": {},
  "deployedLinkReferences": {}
}