{
  "_format": "hh-sol-artifact-1",
  "contractName": "BetResolver",
  "sourceName": "contracts/BetResolver.sol",
  "abi": [
    {
      "inputs": [
        {
          "internalType": "address",
          "name": "owner",
          "type": "address"
        }
      ],
      "stateMutability": "nonpayable",
      "type": "constructor"
    },
    {
      "inputs": [
        {
          "internalType": "address",
          "name": "owner",
          "type": "address"
        }
      ],
      "name": "OwnableInvalidOwner",
      "type": "error"
    },
    {
      "inputs": [
        {
          "internalType": "address",
          "name": "account",
          "type": "address"
        }
      ],
      "name": "OwnableUnauthorizedAccount",
      "type": "error"
    },
    {
      "inputs": [
        {
          "internalType": "address",
          "name": "token",
          "type": "address"
        }
      ],
      "name": "SafeERC20FailedOperation",
      "type": "error"
    },
    {
      "anonymous": false,
      "inputs": [
        {
          "indexed": true,
          "internalType": "uint256",
          "name": "betId",
          "type": "uint256"
        },
        {
          "indexed": true,
          "internalType": "bytes32",
          "name": "requestId",
          "type": "bytes32"
        },
        {
          "indexed": false,
          "internalType": "bytes",
          "name": "data",
          "type": "bytes"
        }
      ],
      "name": "BetResolutionCallbackFailed",
      "type": "event"
    },
    {
      "anonymous": false,
      "inputs": [
        {
          "indexed": true,
          "internalType": "uint256",
          "name": "betId",
          "type": "uint256"
        },
        {
          "indexed": true,
          "internalType": "bytes32",
          "name": "requestId",
          "type": "bytes32"
        },
        {
          "indexed": false,
          "internalType": "string",
          "name": "message",
          "type": "string"
        }
      ],
      "name": "BetResolutionFailed",
      "type": "event"
    },
    {
      "anonymous": false,
      "inputs": [
        {
          "indexed": true,
          "internalType": "uint256",
          "name": "betId",
          "type": "uint256"
        },
        {
          "indexed": false,
          "internalType": "enum IBetResolver.Outcome",
          "name": "outcome",
          "type": "uint8"
        },
        {
          "indexed": false,
          "internalType": "string",
          "name": "rawResult",
          "type": "string"
        }
      ],
      "name": "BetResolved",
      "type": "event"
    },
    {
      "anonymous": false,
      "inputs": [
        {
          "indexed": false,
          "internalType": "address",
          "name": "dtnAi",
          "type": "address"
        },
        {
          "indexed": false,
          "internalType": "string",
          "name": "systemPrompt1",
          "type": "string"
        },
        {
          "indexed": false,
          "internalType": "string",
          "name": "systemPrompt2",
          "type": "string"
        },
        {
          "indexed": false,
          "internalType": "string",
          "name": "modelName",
          "type": "string"
        },
        {
          "indexed": false,
          "internalType": "string",
          "name": "nodeName",
          "type": "string"
        }
      ],
      "name": "ConfigUpdated",
      "type": "event"
    },
    {
      "anonymous": false,
      "inputs": [
        {
          "indexed": false,
          "internalType": "uint256",
          "name": "feePerByteReq",
          "type": "uint256"
        },
        {
          "indexed": false,
          "internalType": "uint256",
          "name": "feePerByteRes",
          "type": "uint256"
        },
        {
          "indexed": false,
          "internalType": "uint256",
          "name": "totalFeePerRes",
          "type": "uint256"
        },
        {
          "indexed": false,
          "internalType": "uint256",
          "name": "resolutionGasLimit",
          "type": "uint256"
        }
      ],
      "name": "FeesUpdated",
      "type": "event"
    },
    {
      "anonymous": false,
      "inputs": [
        {
          "indexed": true,
          "internalType": "address",
          "name": "previousOwner",
          "type": "address"
        },
        {
          "indexed": true,
          "internalType": "address",
          "name": "newOwner",
          "type": "address"
        }
      ],
      "name": "OwnershipTransferred",
      "type": "event"
    },
    {
      "anonymous": false,
      "inputs": [
        {
          "indexed": true,
          "internalType": "uint256",
          "name": "betId",
          "type": "uint256"
        },
        {
          "indexed": true,
          "internalType": "bytes32",
          "name": "requestId",
          "type": "bytes32"
        }
      ],
      "name": "ResolveRequested",
      "type": "event"
    },
    {
      "anonymous": false,
      "inputs": [
        {
          "indexed": false,
          "internalType": "uint256",
          "name": "sessionId",
          "type": "uint256"
        },
        {
          "indexed": false,
          "internalType": "uint256",
          "name": "fundedAmount",
          "type": "uint256"
        }
      ],
      "name": "SessionRestarted",
      "type": "event"
    },
    {
      "inputs": [],
      "name": "ai",
      "outputs": [
        {
          "internalType": "contract IDtnAi",
          "name": "",
          "type": "address"
        }
      ],
      "stateMutability": "view",
      "type": "function"
    },
    {
      "inputs": [],
      "name": "betMarket",
      "outputs": [
        {
          "internalType": "address",
          "name": "",
          "type": "address"
        }
      ],
      "stateMutability": "view",
      "type": "function"
    },
    {
      "inputs": [
        {
          "internalType": "uint256",
          "name": "",
          "type": "uint256"
        }
      ],
      "name": "bets",
      "outputs": [
        {
          "internalType": "bytes32",
          "name": "requestId",
          "type": "bytes32"
        },
        {
          "internalType": "enum IBetResolver.Outcome",
          "name": "outcome",
          "type": "uint8"
        },
        {
          "internalType": "bytes4",
          "name": "onResolve",
          "type": "bytes4"
        },
        {
          "internalType": "string",
          "name": "aiRawResult",
          "type": "string"
        },
        {
          "internalType": "string",
          "name": "aiError",
          "type": "string"
        }
      ],
      "stateMutability": "view",
      "type": "function"
    },
    {
      "inputs": [
        {
          "internalType": "bytes32",
          "name": "_requestId",
          "type": "bytes32"
        }
      ],
      "name": "callbackResolve",
      "outputs": [],
      "stateMutability": "nonpayable",
      "type": "function"
    },
    {
      "inputs": [
        {
          "internalType": "bytes32",
          "name": "_requestId",
          "type": "bytes32"
        }
      ],
      "name": "callbackResolveError",
      "outputs": [],
      "stateMutability": "nonpayable",
      "type": "function"
    },
    {
      "inputs": [
        {
          "internalType": "address",
          "name": "_betMarket",
          "type": "address"
        },
        {
          "internalType": "address",
          "name": "_dtnAi",
          "type": "address"
        },
        {
          "internalType": "string",
          "name": "_systemPrompt1",
          "type": "string"
        },
        {
          "internalType": "string",
          "name": "_systemPrompt2",
          "type": "string"
        },
        {
          "internalType": "string",
          "name": "_modelName",
          "type": "string"
        },
        {
          "internalType": "string",
          "name": "_nodeName",
          "type": "string"
        }
      ],
      "name": "configure",
      "outputs": [],
      "stateMutability": "nonpayable",
      "type": "function"
    },
    {
      "inputs": [],
      "name": "feePerByteReq",
      "outputs": [
        {
          "internalType": "uint256",
          "name": "",
          "type": "uint256"
        }
      ],
      "stateMutability": "view",
      "type": "function"
    },
    {
      "inputs": [],
      "name": "feePerByteRes",
      "outputs": [
        {
          "internalType": "uint256",
          "name": "",
          "type": "uint256"
        }
      ],
      "stateMutability": "view",
      "type": "function"
    },
    {
      "inputs": [],
      "name": "modelName",
      "outputs": [
        {
          "internalType": "string",
          "name": "",
          "type": "string"
        }
      ],
      "stateMutability": "view",
      "type": "function"
    },
    {
      "inputs": [],
      "name": "nodeName",
      "outputs": [
        {
          "internalType": "string",
          "name": "",
          "type": "string"
        }
      ],
      "stateMutability": "view",
      "type": "function"
    },
    {
      "inputs": [],
      "name": "owner",
      "outputs": [
        {
          "internalType": "address",
          "name": "",
          "type": "address"
        }
      ],
      "stateMutability": "view",
      "type": "function"
    },
    {
      "inputs": [],
      "name": "renounceOwnership",
      "outputs": [],
      "stateMutability": "nonpayable",
      "type": "function"
    },
    {
      "inputs": [
        {
          "internalType": "bytes32",
          "name": "",
          "type": "bytes32"
        }
      ],
      "name": "requestToBet",
      "outputs": [
        {
          "internalType": "uint256",
          "name": "",
          "type": "uint256"
        }
      ],
      "stateMutability": "view",
      "type": "function"
    },
    {
      "inputs": [],
      "name": "resolutionGasLimit",
      "outputs": [
        {
          "internalType": "uint256",
          "name": "",
          "type": "uint256"
        }
      ],
      "stateMutability": "view",
      "type": "function"
    },
    {
      "inputs": [
        {
          "internalType": "uint256",
          "name": "betId",
          "type": "uint256"
        },
        {
          "internalType": "string",
          "name": "betPrompt",
          "type": "string"
        },
        {
          "internalType": "bytes4",
          "name": "onResolve",
          "type": "bytes4"
        }
      ],
      "name": "resolve",
      "outputs": [],
      "stateMutability": "payable",
      "type": "function"
    },
    {
      "inputs": [],
      "name": "restartSession",
      "outputs": [],
      "stateMutability": "nonpayable",
      "type": "function"
    },
    {
      "inputs": [],
      "name": "sessionId",
      "outputs": [
        {
          "internalType": "uint256",
          "name": "",
          "type": "uint256"
        }
      ],
      "stateMutability": "view",
      "type": "function"
    },
    {
      "inputs": [
        {
          "internalType": "uint256",
          "name": "_feePerByteReq",
          "type": "uint256"
        },
        {
          "internalType": "uint256",
          "name": "_feePerByteRes",
          "type": "uint256"
        },
        {
          "internalType": "uint256",
          "name": "_totalFeePerRes",
          "type": "uint256"
        },
        {
          "internalType": "uint256",
          "name": "_resolutionGasLimit",
          "type": "uint256"
        }
      ],
      "name": "setFees",
      "outputs": [],
      "stateMutability": "nonpayable",
      "type": "function"
    },
    {
      "inputs": [],
      "name": "systemPrompt1",
      "outputs": [
        {
          "internalType": "string",
          "name": "",
          "type": "string"
        }
      ],
      "stateMutability": "view",
      "type": "function"
    },
    {
      "inputs": [],
      "name": "systemPrompt2",
      "outputs": [
        {
          "internalType": "string",
          "name": "",
          "type": "string"
        }
      ],
      "stateMutability": "view",
      "type": "function"
    },
    {
      "inputs": [],
      "name": "totalFeePerRes",
      "outputs": [
        {
          "internalType": "uint256",
          "name": "",
          "type": "uint256"
        }
      ],
      "stateMutability": "view",
      "type": "function"
    },
    {
      "inputs": [
        {
          "internalType": "address",
          "name": "newOwner",
          "type": "address"
        }
      ],
      "name": "transferOwnership",
      "outputs": [],
      "stateMutability": "nonpayable",
      "type": "function"
    }
  ],
  "bytecode": "0x6080346100e957601f61268638819003918201601f19168301916001600160401b038311848410176100ee578084926020946040528339810103126100e957516001600160a01b038116908190036100e95780156100d357600180546001600160a01b03198116831790915560405191906001600160a01b03167f8be0079c531659141344cd1fd0a4f28419497f9722a3daafe3b4186f6b6457e0600080a366038d7ea4c68000600a5566038d7ea4c68000600b55670de0b6b3a7640000600c5562061a80600d5561258190816101058239f35b631e4fbdf760e01b600052600060045260246000fd5b600080fd5b634e487b7160e01b600052604160045260246000fdfe6080604052600436101561001257600080fd5b6000803560e01c806322af00fa14611e07578063288d29dc14611ac057806330a9056f1461144a57806331a9b1041461142c578063321653461461140e57806368be1b1e146113e75780636a924cbd146113cb5780636fcba37714611359578063715018a6146112fc578063795769e514610fdb5780637bf13d4d1461060157806384cc5c26146105e55780638da5cb5b146105bc5780639648c9f41461059e5780639d648d6714610580578063a6edb342146104eb578063a81675c71461042a578063c8b894a314610400578063cfe152c0146103d7578063daf81269146103b9578063f2fde38b146103305763fa2b94431461010f57600080fd5b3461032d57602036600319011261032d5780546004359060249083906001600160a01b031661013f3382146121c6565b6040519283809263d1e4be0760e01b82528660048301525afa9081156103225783916102fd575b50818352600460205260408320549081845260036020526003604085200181516001600160401b0381116102e95761019e8254611e89565b601f81116102a4575b506020601f821160011461021e5791817f70685f7cbeda2418040e1bd2e3e95cdda3133b1a80ea33ccaa06ce38c7c040bb949261020d948991610213575b508160011b916000199060031b1c19161790555b604051918291602083526020830190612129565b0390a380f35b9050830151386101e5565b82875280872090601f198316885b81811061028c57509261020d9492600192827f70685f7cbeda2418040e1bd2e3e95cdda3133b1a80ea33ccaa06ce38c7c040bb989610610273575b5050811b0190556101f9565b85015160001960f88460031b161c191690553880610267565b9192602060018192868a01518155019401920161022c565b82875260208720601f830160051c810191602084106102df575b601f0160051c01905b8181106102d457506101a7565b8781556001016102c7565b90915081906102be565b634e487b7160e01b86526041600452602486fd5b61031991503d8085833e6103118183611ef4565b810190612264565b50905038610166565b6040513d85823e3d90fd5b80fd5b503461032d57602036600319011261032d5761034a61214e565b6103526124a2565b6001600160a01b031680156103a557600180546001600160a01b0319811683179091556001600160a01b03167f8be0079c531659141344cd1fd0a4f28419497f9722a3daafe3b4186f6b6457e08380a380f35b631e4fbdf760e01b82526004829052602482fd5b503461032d578060031936011261032d576020600a54604051908152f35b503461032d578060031936011261032d576002546040516001600160a01b039091168152602090f35b503461032d57602036600319011261032d5760406020916004358152600483522054604051908152f35b503461032d578060031936011261032d5760405190806008549061044d82611e89565b80855291600181169081156104c45750600114610479575b610475846101f981860382611ef4565b0390f35b600881526000805160206124ec833981519152939250905b8082106104aa575090915081016020016101f982610465565b919260018160209254838588010152019101909291610491565b60ff191660208087019190915292151560051b850190920192506101f99150839050610465565b503461032d578060031936011261032d5760405190806009549061050e82611e89565b80855291600181169081156104c4575060011461053557610475846101f981860382611ef4565b6009815260008051602061250c833981519152939250905b808210610566575090915081016020016101f982610465565b91926001816020925483858801015201910190929161054d565b503461032d578060031936011261032d576020600c54604051908152f35b503461032d578060031936011261032d576020600554604051908152f35b503461032d578060031936011261032d576001546040516001600160a01b039091168152602090f35b503461032d578060031936011261032d576104756101f9611fbc565b50606036600319011261032d576024356001600160401b038111610fd75761062d90369060040161217f565b906044356001600160e01b031981168103610fd75760043515610fa257825115610f69576001600160e01b0319811615610f30576002546001600160a01b03163303610efa57600d5490813410610ec2576080906040519461068f8387611ef4565b60038652601f198301855b818110610eb15750506106ab611fbc565b6106b487612302565b526106be86612302565b506106c886612325565b526106d285612325565b506106db611f15565b6106e486612335565b526106ee85612335565b50604080516106fd8282611ef4565b60018152601f1982013660208301378151602081019087816009549161072283611e89565b9260018116908115610e965750600114610e4d575b61074a925003601f198101835282611ef4565b51902061075682612302565b528584835161076481611ec3565b60608152606060208201528285820152826060820152015260209682519161078c8984611ef4565b87835260003681378351926107a084611ec3565b83528883015260018383015260086060830152868583015282519081848101918a80830152805180935260608201928b60608260051b8501019201938b905b8d838310610e2157505050506107fe925003601f198101835282611ef4565b600a54600b54600c54918551938460c08101106001600160401b0360c087011117610e0d5760c085018752845285516108378c82611ef4565b8a81528b85015260018685015260608401528683015260a08201528251958660608101106001600160401b03606089011117610df957606087018452630a234a7760e21b875263fa2b944360e01b89880152308488015283516008548a9082908b906108a281611e89565b9060018116908115610ddb5750600114610da0575b506108cb925003601f198101835282611ef4565b8981519101209660018060a01b03895416936005549886519963728eb41160e11b8b5260048b015260248a015261012060448a01528761093461091d8b60a061012486519201526101c48d0190612345565b838e01518c820361012319016101448e0152612345565b9163ffffffff88820151166101648c015260ff6060820151166101848c015201516005811015610d8c576101a48a01526003198982030160648a0152610996610986855160c0845260c0840190612129565b858d0151838203848f0152612129565b93868101516002811015610d78578783015260608082015190830152888101518983015260a09081015191015280516001600160e01b031990811660848a01528a8201511660a48901528401516001600160a01b031660c48801523360e48801526101048701528791869182900390829034905af1938415610d6e578594610d3b575b508385526004865260043581862055805191610a3483611ec3565b8483528683018681526001600160e01b0319909116828401908152825192610a5c8985611ef4565b87845260608501938452805195610a738a88611ef4565b88875285019586526004358852600389528720935184556001840191516004811015610d2757610aa390836122cb565b51815464ffffffff00191660d89190911c64ffffffff001617905551805160028301916001600160401b038211610d1357610ade8354611e89565b601f8111610cd0575b508790601f8311600114610c6a57600394939291889183610c5f575b50508160011b9160001990861b1c19161790555b019051938451906001600160401b038211610c4b57610b368354611e89565b601f8111610c08575b5080601f8311600114610ba3575084958293949592610b98575b50508160011b916000199060031b1c19161790555b6004357fcefd1532ce99545b2ecdecfe9555dbb5f55800cf824606d71bd0b0e3fb54f52e8380a380f35b015190503880610b59565b90601f198316968487528287209287905b898210610bf05750508360019596979810610bd7575b505050811b019055610b6e565b015160001960f88460031b161c19169055388080610bca565b80600185968294968601518155019501930190610bb4565b838652818620601f840160051c810191838510610c41575b601f0160051c01905b818110610c365750610b3f565b868155600101610c29565b9091508190610c20565b634e487b7160e01b85526041600452602485fd5b015190503880610b03565b8388528888209190601f198416895b8b828210610cba57505091600193918560039897969410610ca2575b505050811b019055610b17565b015160001983881b60f8161c19169055388080610c95565b6001859682939686015181550195019301610c79565b838852888820601f840160051c8101918a8510610d09575b601f0160051c01905b818110610cfe5750610ae7565b888155600101610cf1565b9091508190610ce8565b634e487b7160e01b87526041600452602487fd5b634e487b7160e01b88526021600452602488fd5b9093508581813d8311610d67575b610d538183611ef4565b81010312610d6357519238610a19565b8480fd5b503d610d49565b81513d87823e3d90fd5b634e487b7160e01b8c52602160045260248cfd5b634e487b7160e01b8b52602160045260248bfd5b905060088c52828c208c905b828210610dc4575050916108cb928201018c926108b7565b805486830186015285935090840190600101610dac565b60ff191684860152508d9381151590910283010190506108cb6108b7565b634e487b7160e01b88526041600452602488fd5b634e487b7160e01b8b52604160045260248bfd5b8091939550610e3d60019395605f198a82030186528851612129565b96019201920185939194926107df565b505060098952818960008051602061250c8339815191525b838210610e7c575050602061074a92820101610737565b602091925080600191548385880101520191018391610e65565b60ff191686525061074a928015150282016020019050610737565b806060602080938b0101520161069a565b60405162461bcd60e51b815260206004820152601060248201526f696e73756666696369656e742067617360801b6044820152606490fd5b60405162461bcd60e51b815260206004820152600e60248201526d34b73b30b634b21039b2b73232b960911b6044820152606490fd5b60405162461bcd60e51b8152602060048201526011602482015270696e76616c6964206f6e5265736f6c766560781b6044820152606490fd5b60405162461bcd60e51b81526020600482015260116024820152701a5b9d985b1a590818995d141c9bdb5c1d607a1b6044820152606490fd5b60405162461bcd60e51b815260206004820152600d60248201526c1a5b9d985b1a590818995d1259609a1b6044820152606490fd5b5080fd5b503461032d578060031936011261032d57610ff46124a2565b80600554806112a5575b5050805460405163647846a560e01b81526001600160a01b0390911690602081600481855afa908115610322578391611286575b506040516370a0823160e01b8152306004820152916001600160a01b039190911690602083602481855afa92831561127b578493611247575b508215611212578360206004926040519384809263669e34ad60e11b82525afa80156112055760209282916111d8575b5060405163a9059cbb60e01b8482019081526001600160a01b039092166024820152604480820187905281526110d2606482611ef4565b519082855af1156111cd5782513d6111c45750803b155b6111b257508154604051636d8de31f60e01b8152906020908290600490829087906001600160a01b03165af190811561032257839161115b575b50807f82efe7218a4d776c25c08af33123acef8998c9049484a73357d0dd8ed91ff9dd9260409260055582519182526020820152a180f35b90506020813d6020116111aa575b8161117660209383611ef4565b810103126111a557517f82efe7218a4d776c25c08af33123acef8998c9049484a73357d0dd8ed91ff9dd611123565b600080fd5b3d9150611169565b635274afe760e01b8352600452602482fd5b600114156110e9565b6040513d84823e3d90fd5b6111f89150833d85116111fe575b6111f08183611ef4565b8101906122e3565b3861109b565b503d6111e6565b50604051903d90823e3d90fd5b60405162461bcd60e51b815260206004820152600d60248201526c4e6f2066656520746f6b656e7360981b6044820152606490fd5b9092506020813d602011611273575b8161126360209383611ef4565b810103126111a55751913861106b565b3d9150611256565b6040513d86823e3d90fd5b61129f915060203d6020116111fe576111f08183611ef4565b38611032565b81546001600160a01b031690813b156112f857829160248392604051958693849263e2d6f51b60e01b845260048401525af18015611205576112e8575b90610ffe565b6112f191611ef4565b38816112e2565b5050fd5b503461032d578060031936011261032d576113156124a2565b600180546001600160a01b0319811690915581906001600160a01b03167f8be0079c531659141344cd1fd0a4f28419497f9722a3daafe3b4186f6b6457e08280a380f35b503461032d57608036600319011261032d577f16e6f67290546b8dd0e587f4b7f67d4f61932ae17ffd8c60d3509dbc05c175fe60806004356064356044356024356113a26124a2565b83600a5580600b5581600c5582600d55604051938452602084015260408301526060820152a180f35b503461032d578060031936011261032d576104756101f9611f15565b503461032d578060031936011261032d57546040516001600160a01b039091168152602090f35b503461032d578060031936011261032d576020600d54604051908152f35b503461032d578060031936011261032d576020600b54604051908152f35b503461032d5760c036600319011261032d5761146461214e565b906024356001600160a01b03811690819003610fd7576044356001600160401b038111611abc5761149990369060040161217f565b906064356001600160401b038111611ab8576114b990369060040161217f565b936084356001600160401b038111610d63576114d990369060040161217f565b60a4356001600160401b038111611ab4576114f890369060040161217f565b916115016124a2565b836bffffffffffffffffffffffff60a01b87541617865560018060a01b03166bffffffffffffffffffffffff60a01b600254161760025583516001600160401b0381116102e957611553600654611e89565b601f8111611a49575b50806020601f82116001146119da5787916119cf575b508160011b916000199060031b1c1916176006555b85516001600160401b0381116102e9576115a2600754611e89565b601f8111611964575b50806020601f82116001146118f35787916118e8575b508160011b916000199060031b1c1916176007555b80516001600160401b0381116102e9576115f1600854611e89565b601f811161187d575b50806020601f821160011461180e578791611803575b508160011b916000199060031b1c1916176008555b8151956001600160401b0387116102e957611641600954611e89565b601f8111611798575b50602096601f81116001146116fd57916116d06116de92846116ec96958a9b7fb189524b4a4d28735ed1e814418b9bde84ef638c0a2eea241e624e9a122904f49b916116f2575b508160011b916000199060031b1c1916176009555b6116c2604051988998895260a060208a015260a0890190612129565b908782036040890152612129565b908582036060870152612129565b908382036080850152612129565b0390a180f35b905086015138611691565b6009875260008051602061250c833981519152601f198216885b8181106117805750926001836116d0937fb189524b4a4d28735ed1e814418b9bde84ef638c0a2eea241e624e9a122904f49b9c6116ec9998966116de9810611767575b5050811b016009556116a6565b88015160001960f88460031b161c19169055388061175a565b868b0151835560209a8b019a60019093019201611717565b60098752601f880160051c60008051602061250c8339815191520190602089106117ed575b601f0160051c60008051602061250c83398151915201905b8181106117e2575061164a565b8781556001016117d5565b60008051602061250c83398151915291506117bd565b905082015138611610565b600888526000805160206124ec8339815191529150601f198316885b8181106118655750908360019493921061184c575b5050811b01600855611625565b84015160001960f88460031b161c19169055388061183f565b9192602060018192868901518155019401920161182a565b60088752601f820160051c6000805160206124ec8339815191520190602083106118d2575b601f0160051c6000805160206124ec83398151915201905b8181106118c757506115fa565b8781556001016118ba565b6000805160206124ec83398151915291506118a2565b9050870151386115c1565b600788526000805160206124cc8339815191529150601f198316885b8a82821061194c5750509083600194939210611933575b5050811b016007556115d6565b89015160001960f88460031b161c191690553880611926565b6001849560209395849301518155019401920161190f565b60078752601f820160051c6000805160206124cc8339815191520190602083106119b9575b601f0160051c6000805160206124cc83398151915201905b8181106119ae57506115ab565b8781556001016119a1565b6000805160206124cc8339815191529150611989565b905085015138611572565b6006885260008051602061252c8339815191529150601f198316885b818110611a3157509083600194939210611a18575b5050811b01600655611587565b87015160001960f88460031b161c191690553880611a0b565b9192602060018192868c0151815501940192016119f6565b60068752601f820160051c60008051602061252c833981519152019060208310611a9e575b601f0160051c60008051602061252c83398151915201905b818110611a93575061155c565b878155600101611a86565b60008051602061252c8339815191529150611a6e565b8580fd5b8380fd5b8280fd5b503461032d57602036600319011261032d5780546004359060249083906001600160a01b0316611af13382146121c6565b6040519283809263d1e4be0760e01b82528660048301525afa908115610322578391611dea575b508051810190602081830312611ab8576020810151916001600160401b038311610d6357611b4d926020809201920101612247565b611b5681612379565b90828452600460205260408420549283855260036020526040852060026001820191611b908663ffffffff60e01b855460d81b16946122cb565b0183516001600160401b038111610df95791818793611bb08a9454611e89565b601f8111611d93575b506020601f8211600114611cfd57937f4cdfd2dabd9bcce8c3b563affcc5fbecb1b95914a0f02da623a9fcf5f13b0d9b989693611ca09693838394611c8f9b988591611cf2575b508160011b916000199060031b1c19161790555b60018060a01b0360025416908260405160208101928352866024820152611c3e604482018c6120e3565b60448152611c4d606482611ef4565b51925af13d15611cea573d90611c6282612164565b91611c706040519384611ef4565b82523d8b602084013e5b15611ca6575b505050604051938480946120e3565b604060208401526040830190612129565b0390a280f35b611cdf7fe9c0294b4419b2194cbe1d9f814a03250327281e6e123b1e7288822710d8a8bf91604051918291602083526020830190612129565b0390a3388681611c80565b606090611c7a565b905088015138611c00565b82855280852090601f198316865b818110611d755750936001848895947f4cdfd2dabd9bcce8c3b563affcc5fbecb1b95914a0f02da623a9fcf5f13b0d9b9d9b9894611c8f9d9a96611ca09c9910611d5c575b5050811b019055611c14565b8a015160001960f88460031b161c191690553880611d50565b8a83015184558c98508d975060019093019260209283019201611d0b565b919384919395505260208920601f830160051c81019160208410611de0575b9189959391601f8c96940160051c01905b818110611dd05750611bb9565b9485558995508a94600101611dc3565b9091508190611db2565b611dfe91503d8085833e6103118183611ef4565b91505038611b18565b503461032d57602036600319011261032d57604090600435815260036020522080546104756001830154926116de611e4d6003611e4660028501612041565b9301612041565b916040519586958652611e666020870160ff83166120e3565b60d81b6001600160e01b031916604086015260a060608601819052850190612129565b90600182811c92168015611eb9575b6020831014611ea357565b634e487b7160e01b600052602260045260246000fd5b91607f1691611e98565b60a081019081106001600160401b03821117611ede57604052565b634e487b7160e01b600052604160045260246000fd5b90601f801991011681019081106001600160401b03821117611ede57604052565b6040519060008260075491611f2983611e89565b8083529260018116908115611f9d5750600114611f4f575b611f4d92500383611ef4565b565b506007600090815290916000805160206124cc8339815191525b818310611f81575050906020611f4d92820101611f41565b6020919350806001915483858901015201910190918492611f69565b60209250611f4d94915060ff191682840152151560051b820101611f41565b6040519060008260065491611fd083611e89565b8083529260018116908115611f9d5750600114611ff357611f4d92500383611ef4565b5060066000908152909160008051602061252c8339815191525b818310612025575050906020611f4d92820101611f41565b602091935080600191548385890101520191019091849261200d565b906040519182600082549261205584611e89565b80845293600181169081156120c1575060011461207a575b50611f4d92500383611ef4565b90506000929192526020600020906000915b8183106120a5575050906020611f4d928201013861206d565b602091935080600191548385890101520191019091849261208c565b905060209250611f4d94915060ff191682840152151560051b8201013861206d565b9060048210156120f05752565b634e487b7160e01b600052602160045260246000fd5b60005b8381106121195750506000910152565b8181015183820152602001612109565b9060209161214281518092818552858086019101612106565b601f01601f1916010190565b600435906001600160a01b03821682036111a557565b6001600160401b038111611ede57601f01601f191660200190565b81601f820112156111a55780359061219682612164565b926121a46040519485611ef4565b828452602083830101116111a557816000926020809301838601378301015290565b156121cd57565b60405162461bcd60e51b815260206004820152601f60248201527f4f6e6c792044746e2063616e2063616c6c20746869732066756e6374696f6e006044820152606490fd5b9092919261221f81612164565b9161222d6040519384611ef4565b8294828452828201116111a5576020611f4d930190612106565b9080601f830112156111a557815161226192602001612212565b90565b90916060828403126111a557815160038110156111a5579260208301516001600160401b0381116111a5578161229b918501612247565b926040810151906001600160401b0382116111a557019080601f830112156111a557815161226192602001612212565b9060048110156120f05760ff80198354169116179055565b908160209103126111a557516001600160a01b03811681036111a55790565b80511561230f5760200190565b634e487b7160e01b600052603260045260246000fd5b80516001101561230f5760400190565b80516002101561230f5760600190565b906020808351928381520192019060005b8181106123635750505090565b8251845260209384019390920191600101612356565b602081519101207f6273151f959616268004b58dbb21e5c851b7b8d04498b4aabee12291d22fc03481148015612479575b8015612450575b61244a577fba9154e0baa69c78e0ca563b867df81bae9d177c4ea1452c35c84386a70f0f7a8114908115612420575b81156123f6575b506123f157600390565b600290565b7fa357fcb91396b2afa7ab60192e270c625a2eb250b8f839ddb179f207b40459b4915014386123e7565b7fa2dad57cc42b2b0635f411233812e479f7896335ae3219ac4ef034f5a34c3f0b811491506123e0565b50600190565b507f7749ed7587e6dbf171ce6be50bea67236732d7ccfd51e327bc28b612ec06faa781146123b1565b507f23025ebdc5cdfc5bdfe2d2c2a52d7e7f374f5c135d6d47e3c935c86567e86a5381146123aa565b6001546001600160a01b031633036124b657565b63118cdaa760e01b6000523360045260246000fdfea66cc928b5edb82af9bd49922954155ab7b0942694bea4ce44661d9a8736c688f3f7a9fe364faab93b216da50a3214154f22a0a2b415b23a84c8169e8b636ee36e1540171b6c0c960b71a7020d9f60077f6af931a8bbf590da0223dacf75c7aff652222313e28459528d920b65115c16c04f3efc82aaedc97be59f3f377c0d3fa264697066735822122021bd7399c88d6c43537956bfd535d6eaa29ec233077aa20be66b4b3abdd64e0164736f6c634300081c0033",
  "linkReferences": {},
  "deployedLinkReferences": {}
}