{
  "contracts/BetResolver.sol": {
    "BetResolver": {
      "abi": [
        {
          "inputs": [
            {
              "internalType": "address",
              "name": "owner",
              "type": "address"
            }
          ],
          "stateMutability": "nonpayable",
          "type": "constructor"
        },
        {
          "inputs": [
            {
              "internalType": "address",
              "name": "owner",
              "type": "address"
            }
          ],
          "name": "OwnableInvalidOwner",
          "type": "error"
        },
        {
          "inputs": [
            {
              "internalType": "address",
              "name": "account",
              "type": "address"
            }
          ],
          "name": "OwnableUnauthorizedAccount",
          "type": "error"
        },
        {
          "inputs": [
            {
              "internalType": "address",
              "name": "token",
              "type": "address"
            }
          ],
          "name": "SafeERC20FailedOperation",
          "type": "error"
        },
        {
          "anonymous": false,
          "inputs": [
            {
              "indexed": true,
              "internalType": "uint256",
              "name": "betId",
              "type": "uint256"
            },
            {
              "indexed": true,
              "internalType": "bytes32",
              "name": "requestId",
              "type": "bytes32"
            },
            {
              "indexed": false,
              "internalType": "bytes",
              "name": "data",
              "type": "bytes"
            }
          ],
          "name": "BetResolutionCallbackFailed",
          "type": "event"
        },
        {
          "anonymous": false,
          "inputs": [
            {
              "indexed": true,
              "internalType": "uint256",
              "name": "betId",
              "type": "uint256"
            },
            {
              "indexed": true,
              "internalType": "bytes32",
              "name": "requestId",
              "type": "bytes32"
            },
            {
              "indexed": false,
              "internalType": "string",
              "name": "message",
              "type": "string"
            }
          ],
          "name": "BetResolutionFailed",
          "type": "event"
        },
        {
          "anonymous": false,
          "inputs": [
            {
              "indexed": true,
              "internalType": "uint256",
              "name": "betId",
              "type": "uint256"
            },
            {
              "indexed": false,
              "internalType": "enum IBetResolver.Outcome",
              "name": "outcome",
              "type": "uint8"
            },
            {
              "indexed": false,
              "internalType": "string",
              "name": "rawResult",
              "type": "string"
            }
          ],
          "name": "BetResolved",
          "type": "event"
        },
        {
          "anonymous": false,
          "inputs": [
            {
              "indexed": false,
              "internalType": "address",
              "name": "dtnAi",
              "type": "address"
            },
            {
              "indexed": false,
              "internalType": "string",
              "name": "systemPrompt1",
              "type": "string"
            },
            {
              "indexed": false,
              "internalType": "string",
              "name": "systemPrompt2",
              "type": "string"
            },
            {
              "indexed": false,
              "internalType": "string",
              "name": "modelName",
              "type": "string"
            },
            {
              "indexed": false,
              "internalType": "string",
              "name": "nodeName",
              "type": "string"
            }
          ],
          "name": "ConfigUpdated",
          "type": "event"
        },
        {
          "anonymous": false,
          "inputs": [
            {
              "indexed": false,
              "internalType": "uint256",
              "name": "feePerByteReq",
              "type": "uint256"
            },
            {
              "indexed": false,
              "internalType": "uint256",
              "name": "feePerByteRes",
              "type": "uint256"
            },
            {
              "indexed": false,
              "internalType": "uint256",
              "name": "totalFeePerRes",
              "type": "uint256"
            },
            {
              "indexed": false,
              "internalType": "uint256",
              "name": "resolutionGasLimit",
              "type": "uint256"
            }
          ],
          "name": "FeesUpdated",
          "type": "event"
        },
        {
          "anonymous": false,
          "inputs": [
            {
              "indexed": true,
              "internalType": "address",
              "name": "previousOwner",
              "type": "address"
            },
            {
              "indexed": true,
              "internalType": "address",
              "name": "newOwner",
              "type": "address"
            }
          ],
          "name": "OwnershipTransferred",
          "type": "event"
        },
        {
          "anonymous": false,
          "inputs": [
            {
              "indexed": true,
              "internalType": "uint256",
              "name": "betId",
              "type": "uint256"
            },
            {
              "indexed": true,
              "internalType": "bytes32",
              "name": "requestId",
              "type": "bytes32"
            }
          ],
          "name": "ResolveRequested",
          "type": "event"
        },
        {
          "anonymous": false,
          "inputs": [
            {
              "indexed": false,
              "internalType": "uint256",
              "name": "sessionId",
              "type": "uint256"
            },
            {
              "indexed": false,
              "internalType": "uint256",
              "name": "fundedAmount",
              "type": "uint256"
            }
          ],
          "name": "SessionRestarted",
          "type": "event"
        },
        {
          "inputs": [],
          "name": "ai",
          "outputs": [
            {
              "internalType": "contract IDtnAi",
              "name": "",
              "type": "address"
            }
          ],
          "stateMutability": "view",
          "type": "function"
        },
        {
          "inputs": [],
          "name": "betMarket",
          "outputs": [
            {
              "internalType": "address",
              "name": "",
              "type": "address"
            }
          ],
          "stateMutability": "view",
          "type": "function"
        },
        {
          "inputs": [
            {
              "internalType": "uint256",
              "name": "",
              "type": "uint256"
            }
          ],
          "name": "bets",
          "outputs": [
            {
              "internalType": "bytes32",
              "name": "requestId",
              "type": "bytes32"
            },
            {
              "internalType": "enum IBetResolver.Outcome",
              "name": "outcome",
              "type": "uint8"
            },
            {
              "internalType": "bytes4",
              "name": "onResolve",
              "type": "bytes4"
            },
            {
              "internalType": "string",
              "name": "aiRawResult",
              "type": "string"
            },
            {
              "internalType": "string",
              "name": "aiError",
              "type": "string"
            }
          ],
          "stateMutability": "view",
          "type": "function"
        },
        {
          "inputs": [
            {
              "internalType": "bytes32",
              "name": "_requestId",
              "type": "bytes32"
            }
          ],
          "name": "callbackResolve",
          "outputs": [],
          "stateMutability": "nonpayable",
          "type": "function"
        },
        {
          "inputs": [
            {
              "internalType": "bytes32",
              "name": "_requestId",
              "type": "bytes32"
            }
          ],
          "name": "callbackResolveError",
          "outputs": [],
          "stateMutability": "nonpayable",
          "type": "function"
        },
        {
          "inputs": [
            {
              "internalType": "address",
              "name": "_betMarket",
              "type": "address"
            },
            {
              "internalType": "address",
              "name": "_dtnAi",
              "type": "address"
            },
            {
              "internalType": "string",
              "name": "_systemPrompt1",
              "type": "string"
            },
            {
              "internalType": "string",
              "name": "_systemPrompt2",
              "type": "string"
            },
            {
              "internalType": "string",
              "name": "_modelName",
              "type": "string"
            },
            {
              "internalType": "string",
              "name": "_nodeName",
              "type": "string"
            }
          ],
          "name": "configure",
          "outputs": [],
          "stateMutability": "nonpayable",
          "type": "function"
        },
        {
          "inputs": [],
          "name": "feePerByteReq",
          "outputs": [
            {
              "internalType": "uint256",
              "name": "",
              "type": "uint256"
            }
          ],
          "stateMutability": "view",
          "type": "function"
        },
        {
          "inputs": [],
          "name": "feePerByteRes",
          "outputs": [
            {
              "internalType": "uint256",
              "name": "",
              "type": "uint256"
            }
          ],
          "stateMutability": "view",
          "type": "function"
        },
        {
          "inputs": [],
          "name": "modelName",
          "outputs": [
            {
              "internalType": "string",
              "name": "",
              "type": "string"
            }
          ],
          "stateMutability": "view",
          "type": "function"
        },
        {
          "inputs": [],
          "name": "nodeName",
          "outputs": [
            {
              "internalType": "string",
              "name": "",
              "type": "string"
            }
          ],
          "stateMutability": "view",
          "type": "function"
        },
        {
          "inputs": [],
          "name": "owner",
          "outputs": [
            {
              "internalType": "address",
              "name": "",
              "type": "address"
            }
          ],
          "stateMutability": "view",
          "type": "function"
        },
        {
          "inputs": [],
          "name": "renounceOwnership",
          "outputs": [],
          "stateMutability": "nonpayable",
          "type": "function"
        },
        {
          "inputs": [
            {
              "internalType": "bytes32",
              "name": "",
              "type": "bytes32"
            }
          ],
          "name": "requestToBet",
          "outputs": [
            {
              "internalType": "uint256",
              "name": "",
              "type": "uint256"
            }
          ],
          "stateMutability": "view",
          "type": "function"
        },
        {
          "inputs": [],
          "name": "resolutionGasLimit",
          "outputs": [
            {
              "internalType": "uint256",
              "name": "",
              "type": "uint256"
            }
          ],
          "stateMutability": "view",
          "type": "function"
        },
        {
          "inputs": [
            {
              "internalType": "uint256",
              "name": "betId",
              "type": "uint256"
            },
            {
              "internalType": "string",
              "name": "betPrompt",
              "type": "string"
            },
            {
              "internalType": "bytes4",
              "name": "onResolve",
              "type": "bytes4"
            }
          ],
          "name": "resolve",
          "outputs": [],
          "stateMutability": "payable",
          "type": "function"
        },
        {
          "inputs": [],
          "name": "restartSession",
          "outputs": [],
          "stateMutability": "nonpayable",
          "type": "function"
        },
        {
          "inputs": [],
          "name": "sessionId",
          "outputs": [
            {
              "internalType": "uint256",
              "name": "",
              "type": "uint256"
            }
          ],
          "stateMutability": "view",
          "type": "function"
        },
        {
          "inputs": [
            {
              "internalType": "uint256",
              "name": "_feePerByteReq",
              "type": "uint256"
            },
            {
              "internalType": "uint256",
              "name": "_feePerByteRes",
              "type": "uint256"
            },
            {
              "internalType": "uint256",
              "name": "_totalFeePerRes",
              "type": "uint256"
            },
            {
              "internalType": "uint256",
              "name": "_resolutionGasLimit",
              "type": "uint256"
            }
          ],
          "name": "setFees",
          "outputs": [],
          "stateMutability": "nonpayable",
          "type": "function"
        },
        {
          "inputs": [],
          "name": "systemPrompt1",
          "outputs": [
            {
              "internalType": "string",
              "name": "",
              "type": "string"
            }
          ],
          "stateMutability": "view",
          "type": "function"
        },
        {
          "inputs": [],
          "name": "systemPrompt2",
          "outputs": [
            {
              "internalType": "string",
              "name": "",
              "type": "string"
            }
          ],
          "stateMutability": "view",
          "type": "function"
        },
        {
          "inputs": [],
          "name": "totalFeePerRes",
          "outputs": [
            {
              "internalType": "uint256",
              "name": "",
              "type": "uint256"
            }
          ],
          "stateMutability": "view",
          "type": "function"
        },
        {
          "inputs": [
            {
              "internalType": "address",
              "name": "newOwner",
              "type": "address"
            }
          ],
          "name": "transferOwnership",
          "outputs": [],
          "stateMutability": "nonpayable",
          "type": "function"
        }
      ],
      "evm": {
        "bytecode": {
          "linkReferences": {},
          "object": "6080346100e957601f61268638819003918201601f19168301916001600160401b038311848410176100ee578084926020946040528339810103126100e957516001600160a01b038116908190036100e95780156100d357600180546001600160a01b03198116831790915560405191906001600160a01b03167f8be0079c531659141344cd1fd0a4f28419497f9722a3daafe3b4186f6b6457e0600080a366038d7ea4c68000600a5566038d7ea4c68000600b55670de0b6b3a7640000600c5562061a80600d5561258190816101058239f35b631e4fbdf760e01b600052600060045260246000fd5b600080fd5b634e487b7160e01b600052604160045260246000fdfe6080604052600436101561001257600080fd5b6000803560e01c806322af00fa14611e07578063288d29dc14611ac057806330a9056f1461144a57806331a9b1041461142c578063321653461461140e57806368be1b1e146113e75780636a924cbd146113cb5780636fcba37714611359578063715018a6146112fc578063795769e514610fdb5780637bf13d4d1461060157806384cc5c26146105e55780638da5cb5b146105bc5780639648c9f41461059e5780639d648d6714610580578063a6edb342146104eb578063a81675c71461042a578063c8b894a314610400578063cfe152c0146103d7578063daf81269146103b9578063f2fde38b146103305763fa2b94431461010f57600080fd5b3461032d57602036600319011261032d5780546004359060249083906001600160a01b031661013f3382146121c6565b6040519283809263d1e4be0760e01b82528660048301525afa9081156103225783916102fd575b50818352600460205260408320549081845260036020526003604085200181516001600160401b0381116102e95761019e8254611e89565b601f81116102a4575b506020601f821160011461021e5791817f70685f7cbeda2418040e1bd2e3e95cdda3133b1a80ea33ccaa06ce38c7c040bb949261020d948991610213575b508160011b916000199060031b1c19161790555b604051918291602083526020830190612129565b0390a380f35b9050830151386101e5565b82875280872090601f198316885b81811061028c57509261020d9492600192827f70685f7cbeda2418040e1bd2e3e95cdda3133b1a80ea33ccaa06ce38c7c040bb989610610273575b5050811b0190556101f9565b85015160001960f88460031b161c191690553880610267565b9192602060018192868a01518155019401920161022c565b82875260208720601f830160051c810191602084106102df575b601f0160051c01905b8181106102d457506101a7565b8781556001016102c7565b90915081906102be565b634e487b7160e01b86526041600452602486fd5b61031991503d8085833e6103118183611ef4565b810190612264565b50905038610166565b6040513d85823e3d90fd5b80fd5b503461032d57602036600319011261032d5761034a61214e565b6103526124a2565b6001600160a01b031680156103a557600180546001600160a01b0319811683179091556001600160a01b03167f8be0079c531659141344cd1fd0a4f28419497f9722a3daafe3b4186f6b6457e08380a380f35b631e4fbdf760e01b82526004829052602482fd5b503461032d578060031936011261032d576020600a54604051908152f35b503461032d578060031936011261032d576002546040516001600160a01b039091168152602090f35b503461032d57602036600319011261032d5760406020916004358152600483522054604051908152f35b503461032d578060031936011261032d5760405190806008549061044d82611e89565b80855291600181169081156104c45750600114610479575b610475846101f981860382611ef4565b0390f35b600881526000805160206124ec833981519152939250905b8082106104aa575090915081016020016101f982610465565b919260018160209254838588010152019101909291610491565b60ff191660208087019190915292151560051b850190920192506101f99150839050610465565b503461032d578060031936011261032d5760405190806009549061050e82611e89565b80855291600181169081156104c4575060011461053557610475846101f981860382611ef4565b6009815260008051602061250c833981519152939250905b808210610566575090915081016020016101f982610465565b91926001816020925483858801015201910190929161054d565b503461032d578060031936011261032d576020600c54604051908152f35b503461032d578060031936011261032d576020600554604051908152f35b503461032d578060031936011261032d576001546040516001600160a01b039091168152602090f35b503461032d578060031936011261032d576104756101f9611fbc565b50606036600319011261032d576024356001600160401b038111610fd75761062d90369060040161217f565b906044356001600160e01b031981168103610fd75760043515610fa257825115610f69576001600160e01b0319811615610f30576002546001600160a01b03163303610efa57600d5490813410610ec2576080906040519461068f8387611ef4565b60038652601f198301855b818110610eb15750506106ab611fbc565b6106b487612302565b526106be86612302565b506106c886612325565b526106d285612325565b506106db611f15565b6106e486612335565b526106ee85612335565b50604080516106fd8282611ef4565b60018152601f1982013660208301378151602081019087816009549161072283611e89565b9260018116908115610e965750600114610e4d575b61074a925003601f198101835282611ef4565b51902061075682612302565b528584835161076481611ec3565b60608152606060208201528285820152826060820152015260209682519161078c8984611ef4565b87835260003681378351926107a084611ec3565b83528883015260018383015260086060830152868583015282519081848101918a80830152805180935260608201928b60608260051b8501019201938b905b8d838310610e2157505050506107fe925003601f198101835282611ef4565b600a54600b54600c54918551938460c08101106001600160401b0360c087011117610e0d5760c085018752845285516108378c82611ef4565b8a81528b85015260018685015260608401528683015260a08201528251958660608101106001600160401b03606089011117610df957606087018452630a234a7760e21b875263fa2b944360e01b89880152308488015283516008548a9082908b906108a281611e89565b9060018116908115610ddb5750600114610da0575b506108cb925003601f198101835282611ef4565b8981519101209660018060a01b03895416936005549886519963728eb41160e11b8b5260048b015260248a015261012060448a01528761093461091d8b60a061012486519201526101c48d0190612345565b838e01518c820361012319016101448e0152612345565b9163ffffffff88820151166101648c015260ff6060820151166101848c015201516005811015610d8c576101a48a01526003198982030160648a0152610996610986855160c0845260c0840190612129565b858d0151838203848f0152612129565b93868101516002811015610d78578783015260608082015190830152888101518983015260a09081015191015280516001600160e01b031990811660848a01528a8201511660a48901528401516001600160a01b031660c48801523360e48801526101048701528791869182900390829034905af1938415610d6e578594610d3b575b508385526004865260043581862055805191610a3483611ec3565b8483528683018681526001600160e01b0319909116828401908152825192610a5c8985611ef4565b87845260608501938452805195610a738a88611ef4565b88875285019586526004358852600389528720935184556001840191516004811015610d2757610aa390836122cb565b51815464ffffffff00191660d89190911c64ffffffff001617905551805160028301916001600160401b038211610d1357610ade8354611e89565b601f8111610cd0575b508790601f8311600114610c6a57600394939291889183610c5f575b50508160011b9160001990861b1c19161790555b019051938451906001600160401b038211610c4b57610b368354611e89565b601f8111610c08575b5080601f8311600114610ba3575084958293949592610b98575b50508160011b916000199060031b1c19161790555b6004357fcefd1532ce99545b2ecdecfe9555dbb5f55800cf824606d71bd0b0e3fb54f52e8380a380f35b015190503880610b59565b90601f198316968487528287209287905b898210610bf05750508360019596979810610bd7575b505050811b019055610b6e565b015160001960f88460031b161c19169055388080610bca565b80600185968294968601518155019501930190610bb4565b838652818620601f840160051c810191838510610c41575b601f0160051c01905b818110610c365750610b3f565b868155600101610c29565b9091508190610c20565b634e487b7160e01b85526041600452602485fd5b015190503880610b03565b8388528888209190601f198416895b8b828210610cba57505091600193918560039897969410610ca2575b505050811b019055610b17565b015160001983881b60f8161c19169055388080610c95565b6001859682939686015181550195019301610c79565b838852888820601f840160051c8101918a8510610d09575b601f0160051c01905b818110610cfe5750610ae7565b888155600101610cf1565b9091508190610ce8565b634e487b7160e01b87526041600452602487fd5b634e487b7160e01b88526021600452602488fd5b9093508581813d8311610d67575b610d538183611ef4565b81010312610d6357519238610a19565b8480fd5b503d610d49565b81513d87823e3d90fd5b634e487b7160e01b8c52602160045260248cfd5b634e487b7160e01b8b52602160045260248bfd5b905060088c52828c208c905b828210610dc4575050916108cb928201018c926108b7565b805486830186015285935090840190600101610dac565b60ff191684860152508d9381151590910283010190506108cb6108b7565b634e487b7160e01b88526041600452602488fd5b634e487b7160e01b8b52604160045260248bfd5b8091939550610e3d60019395605f198a82030186528851612129565b96019201920185939194926107df565b505060098952818960008051602061250c8339815191525b838210610e7c575050602061074a92820101610737565b602091925080600191548385880101520191018391610e65565b60ff191686525061074a928015150282016020019050610737565b806060602080938b0101520161069a565b60405162461bcd60e51b815260206004820152601060248201526f696e73756666696369656e742067617360801b6044820152606490fd5b60405162461bcd60e51b815260206004820152600e60248201526d34b73b30b634b21039b2b73232b960911b6044820152606490fd5b60405162461bcd60e51b8152602060048201526011602482015270696e76616c6964206f6e5265736f6c766560781b6044820152606490fd5b60405162461bcd60e51b81526020600482015260116024820152701a5b9d985b1a590818995d141c9bdb5c1d607a1b6044820152606490fd5b60405162461bcd60e51b815260206004820152600d60248201526c1a5b9d985b1a590818995d1259609a1b6044820152606490fd5b5080fd5b503461032d578060031936011261032d57610ff46124a2565b80600554806112a5575b5050805460405163647846a560e01b81526001600160a01b0390911690602081600481855afa908115610322578391611286575b506040516370a0823160e01b8152306004820152916001600160a01b039190911690602083602481855afa92831561127b578493611247575b508215611212578360206004926040519384809263669e34ad60e11b82525afa80156112055760209282916111d8575b5060405163a9059cbb60e01b8482019081526001600160a01b039092166024820152604480820187905281526110d2606482611ef4565b519082855af1156111cd5782513d6111c45750803b155b6111b257508154604051636d8de31f60e01b8152906020908290600490829087906001600160a01b03165af190811561032257839161115b575b50807f82efe7218a4d776c25c08af33123acef8998c9049484a73357d0dd8ed91ff9dd9260409260055582519182526020820152a180f35b90506020813d6020116111aa575b8161117660209383611ef4565b810103126111a557517f82efe7218a4d776c25c08af33123acef8998c9049484a73357d0dd8ed91ff9dd611123565b600080fd5b3d9150611169565b635274afe760e01b8352600452602482fd5b600114156110e9565b6040513d84823e3d90fd5b6111f89150833d85116111fe575b6111f08183611ef4565b8101906122e3565b3861109b565b503d6111e6565b50604051903d90823e3d90fd5b60405162461bcd60e51b815260206004820152600d60248201526c4e6f2066656520746f6b656e7360981b6044820152606490fd5b9092506020813d602011611273575b8161126360209383611ef4565b810103126111a55751913861106b565b3d9150611256565b6040513d86823e3d90fd5b61129f915060203d6020116111fe576111f08183611ef4565b38611032565b81546001600160a01b031690813b156112f857829160248392604051958693849263e2d6f51b60e01b845260048401525af18015611205576112e8575b90610ffe565b6112f191611ef4565b38816112e2565b5050fd5b503461032d578060031936011261032d576113156124a2565b600180546001600160a01b0319811690915581906001600160a01b03167f8be0079c531659141344cd1fd0a4f28419497f9722a3daafe3b4186f6b6457e08280a380f35b503461032d57608036600319011261032d577f16e6f67290546b8dd0e587f4b7f67d4f61932ae17ffd8c60d3509dbc05c175fe60806004356064356044356024356113a26124a2565b83600a5580600b5581600c5582600d55604051938452602084015260408301526060820152a180f35b503461032d578060031936011261032d576104756101f9611f15565b503461032d578060031936011261032d57546040516001600160a01b039091168152602090f35b503461032d578060031936011261032d576020600d54604051908152f35b503461032d578060031936011261032d576020600b54604051908152f35b503461032d5760c036600319011261032d5761146461214e565b906024356001600160a01b03811690819003610fd7576044356001600160401b038111611abc5761149990369060040161217f565b906064356001600160401b038111611ab8576114b990369060040161217f565b936084356001600160401b038111610d63576114d990369060040161217f565b60a4356001600160401b038111611ab4576114f890369060040161217f565b916115016124a2565b836bffffffffffffffffffffffff60a01b87541617865560018060a01b03166bffffffffffffffffffffffff60a01b600254161760025583516001600160401b0381116102e957611553600654611e89565b601f8111611a49575b50806020601f82116001146119da5787916119cf575b508160011b916000199060031b1c1916176006555b85516001600160401b0381116102e9576115a2600754611e89565b601f8111611964575b50806020601f82116001146118f35787916118e8575b508160011b916000199060031b1c1916176007555b80516001600160401b0381116102e9576115f1600854611e89565b601f811161187d575b50806020601f821160011461180e578791611803575b508160011b916000199060031b1c1916176008555b8151956001600160401b0387116102e957611641600954611e89565b601f8111611798575b50602096601f81116001146116fd57916116d06116de92846116ec96958a9b7fb189524b4a4d28735ed1e814418b9bde84ef638c0a2eea241e624e9a122904f49b916116f2575b508160011b916000199060031b1c1916176009555b6116c2604051988998895260a060208a015260a0890190612129565b908782036040890152612129565b908582036060870152612129565b908382036080850152612129565b0390a180f35b905086015138611691565b6009875260008051602061250c833981519152601f198216885b8181106117805750926001836116d0937fb189524b4a4d28735ed1e814418b9bde84ef638c0a2eea241e624e9a122904f49b9c6116ec9998966116de9810611767575b5050811b016009556116a6565b88015160001960f88460031b161c19169055388061175a565b868b0151835560209a8b019a60019093019201611717565b60098752601f880160051c60008051602061250c8339815191520190602089106117ed575b601f0160051c60008051602061250c83398151915201905b8181106117e2575061164a565b8781556001016117d5565b60008051602061250c83398151915291506117bd565b905082015138611610565b600888526000805160206124ec8339815191529150601f198316885b8181106118655750908360019493921061184c575b5050811b01600855611625565b84015160001960f88460031b161c19169055388061183f565b9192602060018192868901518155019401920161182a565b60088752601f820160051c6000805160206124ec8339815191520190602083106118d2575b601f0160051c6000805160206124ec83398151915201905b8181106118c757506115fa565b8781556001016118ba565b6000805160206124ec83398151915291506118a2565b9050870151386115c1565b600788526000805160206124cc8339815191529150601f198316885b8a82821061194c5750509083600194939210611933575b5050811b016007556115d6565b89015160001960f88460031b161c191690553880611926565b6001849560209395849301518155019401920161190f565b60078752601f820160051c6000805160206124cc8339815191520190602083106119b9575b601f0160051c6000805160206124cc83398151915201905b8181106119ae57506115ab565b8781556001016119a1565b6000805160206124cc8339815191529150611989565b905085015138611572565b6006885260008051602061252c8339815191529150601f198316885b818110611a3157509083600194939210611a18575b5050811b01600655611587565b87015160001960f88460031b161c191690553880611a0b565b9192602060018192868c0151815501940192016119f6565b60068752601f820160051c60008051602061252c833981519152019060208310611a9e575b601f0160051c60008051602061252c83398151915201905b818110611a93575061155c565b878155600101611a86565b60008051602061252c8339815191529150611a6e565b8580fd5b8380fd5b8280fd5b503461032d57602036600319011261032d5780546004359060249083906001600160a01b0316611af13382146121c6565b6040519283809263d1e4be0760e01b82528660048301525afa908115610322578391611dea575b508051810190602081830312611ab8576020810151916001600160401b038311610d6357611b4d926020809201920101612247565b611b5681612379565b90828452600460205260408420549283855260036020526040852060026001820191611b908663ffffffff60e01b855460d81b16946122cb565b0183516001600160401b038111610df95791818793611bb08a9454611e89565b601f8111611d93575b506020601f8211600114611cfd57937f4cdfd2dabd9bcce8c3b563affcc5fbecb1b95914a0f02da623a9fcf5f13b0d9b989693611ca09693838394611c8f9b988591611cf2575b508160011b916000199060031b1c19161790555b60018060a01b0360025416908260405160208101928352866024820152611c3e604482018c6120e3565b60448152611c4d606482611ef4565b51925af13d15611cea573d90611c6282612164565b91611c706040519384611ef4565b82523d8b602084013e5b15611ca6575b505050604051938480946120e3565b604060208401526040830190612129565b0390a280f35b611cdf7fe9c0294b4419b2194cbe1d9f814a03250327281e6e123b1e7288822710d8a8bf91604051918291602083526020830190612129565b0390a3388681611c80565b606090611c7a565b905088015138611c00565b82855280852090601f198316865b818110611d755750936001848895947f4cdfd2dabd9bcce8c3b563affcc5fbecb1b95914a0f02da623a9fcf5f13b0d9b9d9b9894611c8f9d9a96611ca09c9910611d5c575b5050811b019055611c14565b8a015160001960f88460031b161c191690553880611d50565b8a83015184558c98508d975060019093019260209283019201611d0b565b919384919395505260208920601f830160051c81019160208410611de0575b9189959391601f8c96940160051c01905b818110611dd05750611bb9565b9485558995508a94600101611dc3565b9091508190611db2565b611dfe91503d8085833e6103118183611ef4565b91505038611b18565b503461032d57602036600319011261032d57604090600435815260036020522080546104756001830154926116de611e4d6003611e4660028501612041565b9301612041565b916040519586958652611e666020870160ff83166120e3565b60d81b6001600160e01b031916604086015260a060608601819052850190612129565b90600182811c92168015611eb9575b6020831014611ea357565b634e487b7160e01b600052602260045260246000fd5b91607f1691611e98565b60a081019081106001600160401b03821117611ede57604052565b634e487b7160e01b600052604160045260246000fd5b90601f801991011681019081106001600160401b03821117611ede57604052565b6040519060008260075491611f2983611e89565b8083529260018116908115611f9d5750600114611f4f575b611f4d92500383611ef4565b565b506007600090815290916000805160206124cc8339815191525b818310611f81575050906020611f4d92820101611f41565b6020919350806001915483858901015201910190918492611f69565b60209250611f4d94915060ff191682840152151560051b820101611f41565b6040519060008260065491611fd083611e89565b8083529260018116908115611f9d5750600114611ff357611f4d92500383611ef4565b5060066000908152909160008051602061252c8339815191525b818310612025575050906020611f4d92820101611f41565b602091935080600191548385890101520191019091849261200d565b906040519182600082549261205584611e89565b80845293600181169081156120c1575060011461207a575b50611f4d92500383611ef4565b90506000929192526020600020906000915b8183106120a5575050906020611f4d928201013861206d565b602091935080600191548385890101520191019091849261208c565b905060209250611f4d94915060ff191682840152151560051b8201013861206d565b9060048210156120f05752565b634e487b7160e01b600052602160045260246000fd5b60005b8381106121195750506000910152565b8181015183820152602001612109565b9060209161214281518092818552858086019101612106565b601f01601f1916010190565b600435906001600160a01b03821682036111a557565b6001600160401b038111611ede57601f01601f191660200190565b81601f820112156111a55780359061219682612164565b926121a46040519485611ef4565b828452602083830101116111a557816000926020809301838601378301015290565b156121cd57565b60405162461bcd60e51b815260206004820152601f60248201527f4f6e6c792044746e2063616e2063616c6c20746869732066756e6374696f6e006044820152606490fd5b9092919261221f81612164565b9161222d6040519384611ef4565b8294828452828201116111a5576020611f4d930190612106565b9080601f830112156111a557815161226192602001612212565b90565b90916060828403126111a557815160038110156111a5579260208301516001600160401b0381116111a5578161229b918501612247565b926040810151906001600160401b0382116111a557019080601f830112156111a557815161226192602001612212565b9060048110156120f05760ff80198354169116179055565b908160209103126111a557516001600160a01b03811681036111a55790565b80511561230f5760200190565b634e487b7160e01b600052603260045260246000fd5b80516001101561230f5760400190565b80516002101561230f5760600190565b906020808351928381520192019060005b8181106123635750505090565b8251845260209384019390920191600101612356565b602081519101207f6273151f959616268004b58dbb21e5c851b7b8d04498b4aabee12291d22fc03481148015612479575b8015612450575b61244a577fba9154e0baa69c78e0ca563b867df81bae9d177c4ea1452c35c84386a70f0f7a8114908115612420575b81156123f6575b506123f157600390565b600290565b7fa357fcb91396b2afa7ab60192e270c625a2eb250b8f839ddb179f207b40459b4915014386123e7565b7fa2dad57cc42b2b0635f411233812e479f7896335ae3219ac4ef034f5a34c3f0b811491506123e0565b50600190565b507f7749ed7587e6dbf171ce6be50bea67236732d7ccfd51e327bc28b612ec06faa781146123b1565b507f23025ebdc5cdfc5bdfe2d2c2a52d7e7f374f5c135d6d47e3c935c86567e86a5381146123aa565b6001546001600160a01b031633036124b657565b63118cdaa760e01b6000523360045260246000fdfea66cc928b5edb82af9bd49922954155ab7b0942694bea4ce44661d9a8736c688f3f7a9fe364faab93b216da50a3214154f22a0a2b415b23a84c8169e8b636ee36e1540171b6c0c960b71a7020d9f60077f6af931a8bbf590da0223dacf75c7aff652222313e28459528d920b65115c16c04f3efc82aaedc97be59f3f377c0d3fa264697066735822122021bd7399c88d6c43537956bfd535d6eaa29ec233077aa20be66b4b3abdd64e0164736f6c634300081c0033",
          "opcodes": "PUSH1 0x80 CALLVALUE PUSH2 0xE9 JUMPI PUSH1 0x1F PUSH2 0x2686 CODESIZE DUP2 SWAP1 SUB SWAP2 DUP3 ADD PUSH1 0x1F NOT AND DUP4 ADD SWAP2 PUSH1 0x1 PUSH1 0x1 PUSH1 0x40 SHL SUB DUP4 GT DUP5 DUP5 LT OR PUSH2 0xEE JUMPI DUP1 DUP5 SWAP3 PUSH1 0x20 SWAP5 PUSH1 0x40 MSTORE DUP4 CODECOPY DUP2 ADD SUB SLT PUSH2 0xE9 JUMPI MLOAD PUSH1 0x1 PUSH1 0x1 PUSH1 0xA0 SHL SUB DUP2 AND SWAP1 DUP2 SWAP1 SUB PUSH2 0xE9 JUMPI DUP1 ISZERO PUSH2 0xD3 JUMPI PUSH1 0x1 DUP1 SLOAD PUSH1 0x1 PUSH1 0x1 PUSH1 0xA0 SHL SUB NOT DUP2 AND DUP4 OR SWAP1 SWAP2 SSTORE PUSH1 0x40 MLOAD SWAP2 SWAP1 PUSH1 0x1 PUSH1 0x1 PUSH1 0xA0 SHL SUB AND PUSH32 0x8BE0079C531659141344CD1FD0A4F28419497F9722A3DAAFE3B4186F6B6457E0 PUSH1 0x0 DUP1 LOG3 PUSH7 0x38D7EA4C68000 PUSH1 0xA SSTORE PUSH7 0x38D7EA4C68000 PUSH1 0xB SSTORE PUSH8 0xDE0B6B3A7640000 PUSH1 0xC SSTORE PUSH3 0x61A80 PUSH1 0xD SSTORE PUSH2 0x2581 SWAP1 DUP2 PUSH2 0x105 DUP3 CODECOPY RETURN JUMPDEST PUSH4 0x1E4FBDF7 PUSH1 0xE0 SHL PUSH1 0x0 MSTORE PUSH1 0x0 PUSH1 0x4 MSTORE PUSH1 0x24 PUSH1 0x0 REVERT JUMPDEST PUSH1 0x0 DUP1 REVERT JUMPDEST PUSH4 0x4E487B71 PUSH1 0xE0 SHL PUSH1 0x0 MSTORE PUSH1 0x41 PUSH1 0x4 MSTORE PUSH1 0x24 PUSH1 0x0 REVERT INVALID PUSH1 0x80 PUSH1 0x40 MSTORE PUSH1 0x4 CALLDATASIZE LT ISZERO PUSH2 0x12 JUMPI PUSH1 0x0 DUP1 REVERT JUMPDEST PUSH1 0x0 DUP1 CALLDATALOAD PUSH1 0xE0 SHR DUP1 PUSH4 0x22AF00FA EQ PUSH2 0x1E07 JUMPI DUP1 PUSH4 0x288D29DC EQ PUSH2 0x1AC0 JUMPI DUP1 PUSH4 0x30A9056F EQ PUSH2 0x144A JUMPI DUP1 PUSH4 0x31A9B104 EQ PUSH2 0x142C JUMPI DUP1 PUSH4 0x32165346 EQ PUSH2 0x140E JUMPI DUP1 PUSH4 0x68BE1B1E EQ PUSH2 0x13E7 JUMPI DUP1 PUSH4 0x6A924CBD EQ PUSH2 0x13CB JUMPI DUP1 PUSH4 0x6FCBA377 EQ PUSH2 0x1359 JUMPI DUP1 PUSH4 0x715018A6 EQ PUSH2 0x12FC JUMPI DUP1 PUSH4 0x795769E5 EQ PUSH2 0xFDB JUMPI DUP1 PUSH4 0x7BF13D4D EQ PUSH2 0x601 JUMPI DUP1 PUSH4 0x84CC5C26 EQ PUSH2 0x5E5 JUMPI DUP1 PUSH4 0x8DA5CB5B EQ PUSH2 0x5BC JUMPI DUP1 PUSH4 0x9648C9F4 EQ PUSH2 0x59E JUMPI DUP1 PUSH4 0x9D648D67 EQ PUSH2 0x580 JUMPI DUP1 PUSH4 0xA6EDB342 EQ PUSH2 0x4EB JUMPI DUP1 PUSH4 0xA81675C7 EQ PUSH2 0x42A JUMPI DUP1 PUSH4 0xC8B894A3 EQ PUSH2 0x400 JUMPI DUP1 PUSH4 0xCFE152C0 EQ PUSH2 0x3D7 JUMPI DUP1 PUSH4 0xDAF81269 EQ PUSH2 0x3B9 JUMPI DUP1 PUSH4 0xF2FDE38B EQ PUSH2 0x330 JUMPI PUSH4 0xFA2B9443 EQ PUSH2 0x10F JUMPI PUSH1 0x0 DUP1 REVERT JUMPDEST CALLVALUE PUSH2 0x32D JUMPI PUSH1 0x20 CALLDATASIZE PUSH1 0x3 NOT ADD SLT PUSH2 0x32D JUMPI DUP1 SLOAD PUSH1 0x4 CALLDATALOAD SWAP1 PUSH1 0x24 SWAP1 DUP4 SWAP1 PUSH1 0x1 PUSH1 0x1 PUSH1 0xA0 SHL SUB AND PUSH2 0x13F CALLER DUP3 EQ PUSH2 0x21C6 JUMP JUMPDEST PUSH1 0x40 MLOAD SWAP3 DUP4 DUP1 SWAP3 PUSH4 0xD1E4BE07 PUSH1 0xE0 SHL DUP3 MSTORE DUP7 PUSH1 0x4 DUP4 ADD MSTORE GAS STATICCALL SWAP1 DUP2 ISZERO PUSH2 0x322 JUMPI DUP4 SWAP2 PUSH2 0x2FD JUMPI JUMPDEST POP DUP2 DUP4 MSTORE PUSH1 0x4 PUSH1 0x20 MSTORE PUSH1 0x40 DUP4 KECCAK256 SLOAD SWAP1 DUP2 DUP5 MSTORE PUSH1 0x3 PUSH1 0x20 MSTORE PUSH1 0x3 PUSH1 0x40 DUP6 KECCAK256 ADD DUP2 MLOAD PUSH1 0x1 PUSH1 0x1 PUSH1 0x40 SHL SUB DUP2 GT PUSH2 0x2E9 JUMPI PUSH2 0x19E DUP3 SLOAD PUSH2 0x1E89 JUMP JUMPDEST PUSH1 0x1F DUP2 GT PUSH2 0x2A4 JUMPI JUMPDEST POP PUSH1 0x20 PUSH1 0x1F DUP3 GT PUSH1 0x1 EQ PUSH2 0x21E JUMPI SWAP2 DUP2 PUSH32 0x70685F7CBEDA2418040E1BD2E3E95CDDA3133B1A80EA33CCAA06CE38C7C040BB SWAP5 SWAP3 PUSH2 0x20D SWAP5 DUP10 SWAP2 PUSH2 0x213 JUMPI JUMPDEST POP DUP2 PUSH1 0x1 SHL SWAP2 PUSH1 0x0 NOT SWAP1 PUSH1 0x3 SHL SHR NOT AND OR SWAP1 SSTORE JUMPDEST PUSH1 0x40 MLOAD SWAP2 DUP3 SWAP2 PUSH1 0x20 DUP4 MSTORE PUSH1 0x20 DUP4 ADD SWAP1 PUSH2 0x2129 JUMP JUMPDEST SUB SWAP1 LOG3 DUP1 RETURN JUMPDEST SWAP1 POP DUP4 ADD MLOAD CODESIZE PUSH2 0x1E5 JUMP JUMPDEST DUP3 DUP8 MSTORE DUP1 DUP8 KECCAK256 SWAP1 PUSH1 0x1F NOT DUP4 AND DUP9 JUMPDEST DUP2 DUP2 LT PUSH2 0x28C JUMPI POP SWAP3 PUSH2 0x20D SWAP5 SWAP3 PUSH1 0x1 SWAP3 DUP3 PUSH32 0x70685F7CBEDA2418040E1BD2E3E95CDDA3133B1A80EA33CCAA06CE38C7C040BB SWAP9 SWAP7 LT PUSH2 0x273 JUMPI JUMPDEST POP POP DUP2 SHL ADD SWAP1 SSTORE PUSH2 0x1F9 JUMP JUMPDEST DUP6 ADD MLOAD PUSH1 0x0 NOT PUSH1 0xF8 DUP5 PUSH1 0x3 SHL AND SHR NOT AND SWAP1 SSTORE CODESIZE DUP1 PUSH2 0x267 JUMP JUMPDEST SWAP2 SWAP3 PUSH1 0x20 PUSH1 0x1 DUP2 SWAP3 DUP7 DUP11 ADD MLOAD DUP2 SSTORE ADD SWAP5 ADD SWAP3 ADD PUSH2 0x22C JUMP JUMPDEST DUP3 DUP8 MSTORE PUSH1 0x20 DUP8 KECCAK256 PUSH1 0x1F DUP4 ADD PUSH1 0x5 SHR DUP2 ADD SWAP2 PUSH1 0x20 DUP5 LT PUSH2 0x2DF JUMPI JUMPDEST PUSH1 0x1F ADD PUSH1 0x5 SHR ADD SWAP1 JUMPDEST DUP2 DUP2 LT PUSH2 0x2D4 JUMPI POP PUSH2 0x1A7 JUMP JUMPDEST DUP8 DUP2 SSTORE PUSH1 0x1 ADD PUSH2 0x2C7 JUMP JUMPDEST SWAP1 SWAP2 POP DUP2 SWAP1 PUSH2 0x2BE JUMP JUMPDEST PUSH4 0x4E487B71 PUSH1 0xE0 SHL DUP7 MSTORE PUSH1 0x41 PUSH1 0x4 MSTORE PUSH1 0x24 DUP7 REVERT JUMPDEST PUSH2 0x319 SWAP2 POP RETURNDATASIZE DUP1 DUP6 DUP4 RETURNDATACOPY PUSH2 0x311 DUP2 DUP4 PUSH2 0x1EF4 JUMP JUMPDEST DUP2 ADD SWAP1 PUSH2 0x2264 JUMP JUMPDEST POP SWAP1 POP CODESIZE PUSH2 0x166 JUMP JUMPDEST PUSH1 0x40 MLOAD RETURNDATASIZE DUP6 DUP3 RETURNDATACOPY RETURNDATASIZE SWAP1 REVERT JUMPDEST DUP1 REVERT JUMPDEST POP CALLVALUE PUSH2 0x32D JUMPI PUSH1 0x20 CALLDATASIZE PUSH1 0x3 NOT ADD SLT PUSH2 0x32D JUMPI PUSH2 0x34A PUSH2 0x214E JUMP JUMPDEST PUSH2 0x352 PUSH2 0x24A2 JUMP JUMPDEST PUSH1 0x1 PUSH1 0x1 PUSH1 0xA0 SHL SUB AND DUP1 ISZERO PUSH2 0x3A5 JUMPI PUSH1 0x1 DUP1 SLOAD PUSH1 0x1 PUSH1 0x1 PUSH1 0xA0 SHL SUB NOT DUP2 AND DUP4 OR SWAP1 SWAP2 SSTORE PUSH1 0x1 PUSH1 0x1 PUSH1 0xA0 SHL SUB AND PUSH32 0x8BE0079C531659141344CD1FD0A4F28419497F9722A3DAAFE3B4186F6B6457E0 DUP4 DUP1 LOG3 DUP1 RETURN JUMPDEST PUSH4 0x1E4FBDF7 PUSH1 0xE0 SHL DUP3 MSTORE PUSH1 0x4 DUP3 SWAP1 MSTORE PUSH1 0x24 DUP3 REVERT JUMPDEST POP CALLVALUE PUSH2 0x32D JUMPI DUP1 PUSH1 0x3 NOT CALLDATASIZE ADD SLT PUSH2 0x32D JUMPI PUSH1 0x20 PUSH1 0xA SLOAD PUSH1 0x40 MLOAD SWAP1 DUP2 MSTORE RETURN JUMPDEST POP CALLVALUE PUSH2 0x32D JUMPI DUP1 PUSH1 0x3 NOT CALLDATASIZE ADD SLT PUSH2 0x32D JUMPI PUSH1 0x2 SLOAD PUSH1 0x40 MLOAD PUSH1 0x1 PUSH1 0x1 PUSH1 0xA0 SHL SUB SWAP1 SWAP2 AND DUP2 MSTORE PUSH1 0x20 SWAP1 RETURN JUMPDEST POP CALLVALUE PUSH2 0x32D JUMPI PUSH1 0x20 CALLDATASIZE PUSH1 0x3 NOT ADD SLT PUSH2 0x32D JUMPI PUSH1 0x40 PUSH1 0x20 SWAP2 PUSH1 0x4 CALLDATALOAD DUP2 MSTORE PUSH1 0x4 DUP4 MSTORE KECCAK256 SLOAD PUSH1 0x40 MLOAD SWAP1 DUP2 MSTORE RETURN JUMPDEST POP CALLVALUE PUSH2 0x32D JUMPI DUP1 PUSH1 0x3 NOT CALLDATASIZE ADD SLT PUSH2 0x32D JUMPI PUSH1 0x40 MLOAD SWAP1 DUP1 PUSH1 0x8 SLOAD SWAP1 PUSH2 0x44D DUP3 PUSH2 0x1E89 JUMP JUMPDEST DUP1 DUP6 MSTORE SWAP2 PUSH1 0x1 DUP2 AND SWAP1 DUP2 ISZERO PUSH2 0x4C4 JUMPI POP PUSH1 0x1 EQ PUSH2 0x479 JUMPI JUMPDEST PUSH2 0x475 DUP5 PUSH2 0x1F9 DUP2 DUP7 SUB DUP3 PUSH2 0x1EF4 JUMP JUMPDEST SUB SWAP1 RETURN JUMPDEST PUSH1 0x8 DUP2 MSTORE PUSH1 0x0 DUP1 MLOAD PUSH1 0x20 PUSH2 0x24EC DUP4 CODECOPY DUP2 MLOAD SWAP2 MSTORE SWAP4 SWAP3 POP SWAP1 JUMPDEST DUP1 DUP3 LT PUSH2 0x4AA JUMPI POP SWAP1 SWAP2 POP DUP2 ADD PUSH1 0x20 ADD PUSH2 0x1F9 DUP3 PUSH2 0x465 JUMP JUMPDEST SWAP2 SWAP3 PUSH1 0x1 DUP2 PUSH1 0x20 SWAP3 SLOAD DUP4 DUP6 DUP9 ADD ADD MSTORE ADD SWAP2 ADD SWAP1 SWAP3 SWAP2 PUSH2 0x491 JUMP JUMPDEST PUSH1 0xFF NOT AND PUSH1 0x20 DUP1 DUP8 ADD SWAP2 SWAP1 SWAP2 MSTORE SWAP3 ISZERO ISZERO PUSH1 0x5 SHL DUP6 ADD SWAP1 SWAP3 ADD SWAP3 POP PUSH2 0x1F9 SWAP2 POP DUP4 SWAP1 POP PUSH2 0x465 JUMP JUMPDEST POP CALLVALUE PUSH2 0x32D JUMPI DUP1 PUSH1 0x3 NOT CALLDATASIZE ADD SLT PUSH2 0x32D JUMPI PUSH1 0x40 MLOAD SWAP1 DUP1 PUSH1 0x9 SLOAD SWAP1 PUSH2 0x50E DUP3 PUSH2 0x1E89 JUMP JUMPDEST DUP1 DUP6 MSTORE SWAP2 PUSH1 0x1 DUP2 AND SWAP1 DUP2 ISZERO PUSH2 0x4C4 JUMPI POP PUSH1 0x1 EQ PUSH2 0x535 JUMPI PUSH2 0x475 DUP5 PUSH2 0x1F9 DUP2 DUP7 SUB DUP3 PUSH2 0x1EF4 JUMP JUMPDEST PUSH1 0x9 DUP2 MSTORE PUSH1 0x0 DUP1 MLOAD PUSH1 0x20 PUSH2 0x250C DUP4 CODECOPY DUP2 MLOAD SWAP2 MSTORE SWAP4 SWAP3 POP SWAP1 JUMPDEST DUP1 DUP3 LT PUSH2 0x566 JUMPI POP SWAP1 SWAP2 POP DUP2 ADD PUSH1 0x20 ADD PUSH2 0x1F9 DUP3 PUSH2 0x465 JUMP JUMPDEST SWAP2 SWAP3 PUSH1 0x1 DUP2 PUSH1 0x20 SWAP3 SLOAD DUP4 DUP6 DUP9 ADD ADD MSTORE ADD SWAP2 ADD SWAP1 SWAP3 SWAP2 PUSH2 0x54D JUMP JUMPDEST POP CALLVALUE PUSH2 0x32D JUMPI DUP1 PUSH1 0x3 NOT CALLDATASIZE ADD SLT PUSH2 0x32D JUMPI PUSH1 0x20 PUSH1 0xC SLOAD PUSH1 0x40 MLOAD SWAP1 DUP2 MSTORE RETURN JUMPDEST POP CALLVALUE PUSH2 0x32D JUMPI DUP1 PUSH1 0x3 NOT CALLDATASIZE ADD SLT PUSH2 0x32D JUMPI PUSH1 0x20 PUSH1 0x5 SLOAD PUSH1 0x40 MLOAD SWAP1 DUP2 MSTORE RETURN JUMPDEST POP CALLVALUE PUSH2 0x32D JUMPI DUP1 PUSH1 0x3 NOT CALLDATASIZE ADD SLT PUSH2 0x32D JUMPI PUSH1 0x1 SLOAD PUSH1 0x40 MLOAD PUSH1 0x1 PUSH1 0x1 PUSH1 0xA0 SHL SUB SWAP1 SWAP2 AND DUP2 MSTORE PUSH1 0x20 SWAP1 RETURN JUMPDEST POP CALLVALUE PUSH2 0x32D JUMPI DUP1 PUSH1 0x3 NOT CALLDATASIZE ADD SLT PUSH2 0x32D JUMPI PUSH2 0x475 PUSH2 0x1F9 PUSH2 0x1FBC JUMP JUMPDEST POP PUSH1 0x60 CALLDATASIZE PUSH1 0x3 NOT ADD SLT PUSH2 0x32D JUMPI PUSH1 0x24 CALLDATALOAD PUSH1 0x1 PUSH1 0x1 PUSH1 0x40 SHL SUB DUP2 GT PUSH2 0xFD7 JUMPI PUSH2 0x62D SWAP1 CALLDATASIZE SWAP1 PUSH1 0x4 ADD PUSH2 0x217F JUMP JUMPDEST SWAP1 PUSH1 0x44 CALLDATALOAD PUSH1 0x1 PUSH1 0x1 PUSH1 0xE0 SHL SUB NOT DUP2 AND DUP2 SUB PUSH2 0xFD7 JUMPI PUSH1 0x4 CALLDATALOAD ISZERO PUSH2 0xFA2 JUMPI DUP3 MLOAD ISZERO PUSH2 0xF69 JUMPI PUSH1 0x1 PUSH1 0x1 PUSH1 0xE0 SHL SUB NOT DUP2 AND ISZERO PUSH2 0xF30 JUMPI PUSH1 0x2 SLOAD PUSH1 0x1 PUSH1 0x1 PUSH1 0xA0 SHL SUB AND CALLER SUB PUSH2 0xEFA JUMPI PUSH1 0xD SLOAD SWAP1 DUP2 CALLVALUE LT PUSH2 0xEC2 JUMPI PUSH1 0x80 SWAP1 PUSH1 0x40 MLOAD SWAP5 PUSH2 0x68F DUP4 DUP8 PUSH2 0x1EF4 JUMP JUMPDEST PUSH1 0x3 DUP7 MSTORE PUSH1 0x1F NOT DUP4 ADD DUP6 JUMPDEST DUP2 DUP2 LT PUSH2 0xEB1 JUMPI POP POP PUSH2 0x6AB PUSH2 0x1FBC JUMP JUMPDEST PUSH2 0x6B4 DUP8 PUSH2 0x2302 JUMP JUMPDEST MSTORE PUSH2 0x6BE DUP7 PUSH2 0x2302 JUMP JUMPDEST POP PUSH2 0x6C8 DUP7 PUSH2 0x2325 JUMP JUMPDEST MSTORE PUSH2 0x6D2 DUP6 PUSH2 0x2325 JUMP JUMPDEST POP PUSH2 0x6DB PUSH2 0x1F15 JUMP JUMPDEST PUSH2 0x6E4 DUP7 PUSH2 0x2335 JUMP JUMPDEST MSTORE PUSH2 0x6EE DUP6 PUSH2 0x2335 JUMP JUMPDEST POP PUSH1 0x40 DUP1 MLOAD PUSH2 0x6FD DUP3 DUP3 PUSH2 0x1EF4 JUMP JUMPDEST PUSH1 0x1 DUP2 MSTORE PUSH1 0x1F NOT DUP3 ADD CALLDATASIZE PUSH1 0x20 DUP4 ADD CALLDATACOPY DUP2 MLOAD PUSH1 0x20 DUP2 ADD SWAP1 DUP8 DUP2 PUSH1 0x9 SLOAD SWAP2 PUSH2 0x722 DUP4 PUSH2 0x1E89 JUMP JUMPDEST SWAP3 PUSH1 0x1 DUP2 AND SWAP1 DUP2 ISZERO PUSH2 0xE96 JUMPI POP PUSH1 0x1 EQ PUSH2 0xE4D JUMPI JUMPDEST PUSH2 0x74A SWAP3 POP SUB PUSH1 0x1F NOT DUP2 ADD DUP4 MSTORE DUP3 PUSH2 0x1EF4 JUMP JUMPDEST MLOAD SWAP1 KECCAK256 PUSH2 0x756 DUP3 PUSH2 0x2302 JUMP JUMPDEST MSTORE DUP6 DUP5 DUP4 MLOAD PUSH2 0x764 DUP2 PUSH2 0x1EC3 JUMP JUMPDEST PUSH1 0x60 DUP2 MSTORE PUSH1 0x60 PUSH1 0x20 DUP3 ADD MSTORE DUP3 DUP6 DUP3 ADD MSTORE DUP3 PUSH1 0x60 DUP3 ADD MSTORE ADD MSTORE PUSH1 0x20 SWAP7 DUP3 MLOAD SWAP2 PUSH2 0x78C DUP10 DUP5 PUSH2 0x1EF4 JUMP JUMPDEST DUP8 DUP4 MSTORE PUSH1 0x0 CALLDATASIZE DUP2 CALLDATACOPY DUP4 MLOAD SWAP3 PUSH2 0x7A0 DUP5 PUSH2 0x1EC3 JUMP JUMPDEST DUP4 MSTORE DUP9 DUP4 ADD MSTORE PUSH1 0x1 DUP4 DUP4 ADD MSTORE PUSH1 0x8 PUSH1 0x60 DUP4 ADD MSTORE DUP7 DUP6 DUP4 ADD MSTORE DUP3 MLOAD SWAP1 DUP2 DUP5 DUP2 ADD SWAP2 DUP11 DUP1 DUP4 ADD MSTORE DUP1 MLOAD DUP1 SWAP4 MSTORE PUSH1 0x60 DUP3 ADD SWAP3 DUP12 PUSH1 0x60 DUP3 PUSH1 0x5 SHL DUP6 ADD ADD SWAP3 ADD SWAP4 DUP12 SWAP1 JUMPDEST DUP14 DUP4 DUP4 LT PUSH2 0xE21 JUMPI POP POP POP POP PUSH2 0x7FE SWAP3 POP SUB PUSH1 0x1F NOT DUP2 ADD DUP4 MSTORE DUP3 PUSH2 0x1EF4 JUMP JUMPDEST PUSH1 0xA SLOAD PUSH1 0xB SLOAD PUSH1 0xC SLOAD SWAP2 DUP6 MLOAD SWAP4 DUP5 PUSH1 0xC0 DUP2 ADD LT PUSH1 0x1 PUSH1 0x1 PUSH1 0x40 SHL SUB PUSH1 0xC0 DUP8 ADD GT OR PUSH2 0xE0D JUMPI PUSH1 0xC0 DUP6 ADD DUP8 MSTORE DUP5 MSTORE DUP6 MLOAD PUSH2 0x837 DUP13 DUP3 PUSH2 0x1EF4 JUMP JUMPDEST DUP11 DUP2 MSTORE DUP12 DUP6 ADD MSTORE PUSH1 0x1 DUP7 DUP6 ADD MSTORE PUSH1 0x60 DUP5 ADD MSTORE DUP7 DUP4 ADD MSTORE PUSH1 0xA0 DUP3 ADD MSTORE DUP3 MLOAD SWAP6 DUP7 PUSH1 0x60 DUP2 ADD LT PUSH1 0x1 PUSH1 0x1 PUSH1 0x40 SHL SUB PUSH1 0x60 DUP10 ADD GT OR PUSH2 0xDF9 JUMPI PUSH1 0x60 DUP8 ADD DUP5 MSTORE PUSH4 0xA234A77 PUSH1 0xE2 SHL DUP8 MSTORE PUSH4 0xFA2B9443 PUSH1 0xE0 SHL DUP10 DUP9 ADD MSTORE ADDRESS DUP5 DUP9 ADD MSTORE DUP4 MLOAD PUSH1 0x8 SLOAD DUP11 SWAP1 DUP3 SWAP1 DUP12 SWAP1 PUSH2 0x8A2 DUP2 PUSH2 0x1E89 JUMP JUMPDEST SWAP1 PUSH1 0x1 DUP2 AND SWAP1 DUP2 ISZERO PUSH2 0xDDB JUMPI POP PUSH1 0x1 EQ PUSH2 0xDA0 JUMPI JUMPDEST POP PUSH2 0x8CB SWAP3 POP SUB PUSH1 0x1F NOT DUP2 ADD DUP4 MSTORE DUP3 PUSH2 0x1EF4 JUMP JUMPDEST DUP10 DUP2 MLOAD SWAP2 ADD KECCAK256 SWAP7 PUSH1 0x1 DUP1 PUSH1 0xA0 SHL SUB DUP10 SLOAD AND SWAP4 PUSH1 0x5 SLOAD SWAP9 DUP7 MLOAD SWAP10 PUSH4 0x728EB411 PUSH1 0xE1 SHL DUP12 MSTORE PUSH1 0x4 DUP12 ADD MSTORE PUSH1 0x24 DUP11 ADD MSTORE PUSH2 0x120 PUSH1 0x44 DUP11 ADD MSTORE DUP8 PUSH2 0x934 PUSH2 0x91D DUP12 PUSH1 0xA0 PUSH2 0x124 DUP7 MLOAD SWAP3 ADD MSTORE PUSH2 0x1C4 DUP14 ADD SWAP1 PUSH2 0x2345 JUMP JUMPDEST DUP4 DUP15 ADD MLOAD DUP13 DUP3 SUB PUSH2 0x123 NOT ADD PUSH2 0x144 DUP15 ADD MSTORE PUSH2 0x2345 JUMP JUMPDEST SWAP2 PUSH4 0xFFFFFFFF DUP9 DUP3 ADD MLOAD AND PUSH2 0x164 DUP13 ADD MSTORE PUSH1 0xFF PUSH1 0x60 DUP3 ADD MLOAD AND PUSH2 0x184 DUP13 ADD MSTORE ADD MLOAD PUSH1 0x5 DUP2 LT ISZERO PUSH2 0xD8C JUMPI PUSH2 0x1A4 DUP11 ADD MSTORE PUSH1 0x3 NOT DUP10 DUP3 SUB ADD PUSH1 0x64 DUP11 ADD MSTORE PUSH2 0x996 PUSH2 0x986 DUP6 MLOAD PUSH1 0xC0 DUP5 MSTORE PUSH1 0xC0 DUP5 ADD SWAP1 PUSH2 0x2129 JUMP JUMPDEST DUP6 DUP14 ADD MLOAD DUP4 DUP3 SUB DUP5 DUP16 ADD MSTORE PUSH2 0x2129 JUMP JUMPDEST SWAP4 DUP7 DUP2 ADD MLOAD PUSH1 0x2 DUP2 LT ISZERO PUSH2 0xD78 JUMPI DUP8 DUP4 ADD MSTORE PUSH1 0x60 DUP1 DUP3 ADD MLOAD SWAP1 DUP4 ADD MSTORE DUP9 DUP2 ADD MLOAD DUP10 DUP4 ADD MSTORE PUSH1 0xA0 SWAP1 DUP2 ADD MLOAD SWAP2 ADD MSTORE DUP1 MLOAD PUSH1 0x1 PUSH1 0x1 PUSH1 0xE0 SHL SUB NOT SWAP1 DUP2 AND PUSH1 0x84 DUP11 ADD MSTORE DUP11 DUP3 ADD MLOAD AND PUSH1 0xA4 DUP10 ADD MSTORE DUP5 ADD MLOAD PUSH1 0x1 PUSH1 0x1 PUSH1 0xA0 SHL SUB AND PUSH1 0xC4 DUP9 ADD MSTORE CALLER PUSH1 0xE4 DUP9 ADD MSTORE PUSH2 0x104 DUP8 ADD MSTORE DUP8 SWAP2 DUP7 SWAP2 DUP3 SWAP1 SUB SWAP1 DUP3 SWAP1 CALLVALUE SWAP1 GAS CALL SWAP4 DUP5 ISZERO PUSH2 0xD6E JUMPI DUP6 SWAP5 PUSH2 0xD3B JUMPI JUMPDEST POP DUP4 DUP6 MSTORE PUSH1 0x4 DUP7 MSTORE PUSH1 0x4 CALLDATALOAD DUP2 DUP7 KECCAK256 SSTORE DUP1 MLOAD SWAP2 PUSH2 0xA34 DUP4 PUSH2 0x1EC3 JUMP JUMPDEST DUP5 DUP4 MSTORE DUP7 DUP4 ADD DUP7 DUP2 MSTORE PUSH1 0x1 PUSH1 0x1 PUSH1 0xE0 SHL SUB NOT SWAP1 SWAP2 AND DUP3 DUP5 ADD SWAP1 DUP2 MSTORE DUP3 MLOAD SWAP3 PUSH2 0xA5C DUP10 DUP6 PUSH2 0x1EF4 JUMP JUMPDEST DUP8 DUP5 MSTORE PUSH1 0x60 DUP6 ADD SWAP4 DUP5 MSTORE DUP1 MLOAD SWAP6 PUSH2 0xA73 DUP11 DUP9 PUSH2 0x1EF4 JUMP JUMPDEST DUP9 DUP8 MSTORE DUP6 ADD SWAP6 DUP7 MSTORE PUSH1 0x4 CALLDATALOAD DUP9 MSTORE PUSH1 0x3 DUP10 MSTORE DUP8 KECCAK256 SWAP4 MLOAD DUP5 SSTORE PUSH1 0x1 DUP5 ADD SWAP2 MLOAD PUSH1 0x4 DUP2 LT ISZERO PUSH2 0xD27 JUMPI PUSH2 0xAA3 SWAP1 DUP4 PUSH2 0x22CB JUMP JUMPDEST MLOAD DUP2 SLOAD PUSH5 0xFFFFFFFF00 NOT AND PUSH1 0xD8 SWAP2 SWAP1 SWAP2 SHR PUSH5 0xFFFFFFFF00 AND OR SWAP1 SSTORE MLOAD DUP1 MLOAD PUSH1 0x2 DUP4 ADD SWAP2 PUSH1 0x1 PUSH1 0x1 PUSH1 0x40 SHL SUB DUP3 GT PUSH2 0xD13 JUMPI PUSH2 0xADE DUP4 SLOAD PUSH2 0x1E89 JUMP JUMPDEST PUSH1 0x1F DUP2 GT PUSH2 0xCD0 JUMPI JUMPDEST POP DUP8 SWAP1 PUSH1 0x1F DUP4 GT PUSH1 0x1 EQ PUSH2 0xC6A JUMPI PUSH1 0x3 SWAP5 SWAP4 SWAP3 SWAP2 DUP9 SWAP2 DUP4 PUSH2 0xC5F JUMPI JUMPDEST POP POP DUP2 PUSH1 0x1 SHL SWAP2 PUSH1 0x0 NOT SWAP1 DUP7 SHL SHR NOT AND OR SWAP1 SSTORE JUMPDEST ADD SWAP1 MLOAD SWAP4 DUP5 MLOAD SWAP1 PUSH1 0x1 PUSH1 0x1 PUSH1 0x40 SHL SUB DUP3 GT PUSH2 0xC4B JUMPI PUSH2 0xB36 DUP4 SLOAD PUSH2 0x1E89 JUMP JUMPDEST PUSH1 0x1F DUP2 GT PUSH2 0xC08 JUMPI JUMPDEST POP DUP1 PUSH1 0x1F DUP4 GT PUSH1 0x1 EQ PUSH2 0xBA3 JUMPI POP DUP5 SWAP6 DUP3 SWAP4 SWAP5 SWAP6 SWAP3 PUSH2 0xB98 JUMPI JUMPDEST POP POP DUP2 PUSH1 0x1 SHL SWAP2 PUSH1 0x0 NOT SWAP1 PUSH1 0x3 SHL SHR NOT AND OR SWAP1 SSTORE JUMPDEST PUSH1 0x4 CALLDATALOAD PUSH32 0xCEFD1532CE99545B2ECDECFE9555DBB5F55800CF824606D71BD0B0E3FB54F52E DUP4 DUP1 LOG3 DUP1 RETURN JUMPDEST ADD MLOAD SWAP1 POP CODESIZE DUP1 PUSH2 0xB59 JUMP JUMPDEST SWAP1 PUSH1 0x1F NOT DUP4 AND SWAP7 DUP5 DUP8 MSTORE DUP3 DUP8 KECCAK256 SWAP3 DUP8 SWAP1 JUMPDEST DUP10 DUP3 LT PUSH2 0xBF0 JUMPI POP POP DUP4 PUSH1 0x1 SWAP6 SWAP7 SWAP8 SWAP9 LT PUSH2 0xBD7 JUMPI JUMPDEST POP POP POP DUP2 SHL ADD SWAP1 SSTORE PUSH2 0xB6E JUMP JUMPDEST ADD MLOAD PUSH1 0x0 NOT PUSH1 0xF8 DUP5 PUSH1 0x3 SHL AND SHR NOT AND SWAP1 SSTORE CODESIZE DUP1 DUP1 PUSH2 0xBCA JUMP JUMPDEST DUP1 PUSH1 0x1 DUP6 SWAP7 DUP3 SWAP5 SWAP7 DUP7 ADD MLOAD DUP2 SSTORE ADD SWAP6 ADD SWAP4 ADD SWAP1 PUSH2 0xBB4 JUMP JUMPDEST DUP4 DUP7 MSTORE DUP2 DUP7 KECCAK256 PUSH1 0x1F DUP5 ADD PUSH1 0x5 SHR DUP2 ADD SWAP2 DUP4 DUP6 LT PUSH2 0xC41 JUMPI JUMPDEST PUSH1 0x1F ADD PUSH1 0x5 SHR ADD SWAP1 JUMPDEST DUP2 DUP2 LT PUSH2 0xC36 JUMPI POP PUSH2 0xB3F JUMP JUMPDEST DUP7 DUP2 SSTORE PUSH1 0x1 ADD PUSH2 0xC29 JUMP JUMPDEST SWAP1 SWAP2 POP DUP2 SWAP1 PUSH2 0xC20 JUMP JUMPDEST PUSH4 0x4E487B71 PUSH1 0xE0 SHL DUP6 MSTORE PUSH1 0x41 PUSH1 0x4 MSTORE PUSH1 0x24 DUP6 REVERT JUMPDEST ADD MLOAD SWAP1 POP CODESIZE DUP1 PUSH2 0xB03 JUMP JUMPDEST DUP4 DUP9 MSTORE DUP9 DUP9 KECCAK256 SWAP2 SWAP1 PUSH1 0x1F NOT DUP5 AND DUP10 JUMPDEST DUP12 DUP3 DUP3 LT PUSH2 0xCBA JUMPI POP POP SWAP2 PUSH1 0x1 SWAP4 SWAP2 DUP6 PUSH1 0x3 SWAP9 SWAP8 SWAP7 SWAP5 LT PUSH2 0xCA2 JUMPI JUMPDEST POP POP POP DUP2 SHL ADD SWAP1 SSTORE PUSH2 0xB17 JUMP JUMPDEST ADD MLOAD PUSH1 0x0 NOT DUP4 DUP9 SHL PUSH1 0xF8 AND SHR NOT AND SWAP1 SSTORE CODESIZE DUP1 DUP1 PUSH2 0xC95 JUMP JUMPDEST PUSH1 0x1 DUP6 SWAP7 DUP3 SWAP4 SWAP7 DUP7 ADD MLOAD DUP2 SSTORE ADD SWAP6 ADD SWAP4 ADD PUSH2 0xC79 JUMP JUMPDEST DUP4 DUP9 MSTORE DUP9 DUP9 KECCAK256 PUSH1 0x1F DUP5 ADD PUSH1 0x5 SHR DUP2 ADD SWAP2 DUP11 DUP6 LT PUSH2 0xD09 JUMPI JUMPDEST PUSH1 0x1F ADD PUSH1 0x5 SHR ADD SWAP1 JUMPDEST DUP2 DUP2 LT PUSH2 0xCFE JUMPI POP PUSH2 0xAE7 JUMP JUMPDEST DUP9 DUP2 SSTORE PUSH1 0x1 ADD PUSH2 0xCF1 JUMP JUMPDEST SWAP1 SWAP2 POP DUP2 SWAP1 PUSH2 0xCE8 JUMP JUMPDEST PUSH4 0x4E487B71 PUSH1 0xE0 SHL DUP8 MSTORE PUSH1 0x41 PUSH1 0x4 MSTORE PUSH1 0x24 DUP8 REVERT JUMPDEST PUSH4 0x4E487B71 PUSH1 0xE0 SHL DUP9 MSTORE PUSH1 0x21 PUSH1 0x4 MSTORE PUSH1 0x24 DUP9 REVERT JUMPDEST SWAP1 SWAP4 POP DUP6 DUP2 DUP2 RETURNDATASIZE DUP4 GT PUSH2 0xD67 JUMPI JUMPDEST PUSH2 0xD53 DUP2 DUP4 PUSH2 0x1EF4 JUMP JUMPDEST DUP2 ADD SUB SLT PUSH2 0xD63 JUMPI MLOAD SWAP3 CODESIZE PUSH2 0xA19 JUMP JUMPDEST DUP5 DUP1 REVERT JUMPDEST POP RETURNDATASIZE PUSH2 0xD49 JUMP JUMPDEST DUP2 MLOAD RETURNDATASIZE DUP8 DUP3 RETURNDATACOPY RETURNDATASIZE SWAP1 REVERT JUMPDEST PUSH4 0x4E487B71 PUSH1 0xE0 SHL DUP13 MSTORE PUSH1 0x21 PUSH1 0x4 MSTORE PUSH1 0x24 DUP13 REVERT JUMPDEST PUSH4 0x4E487B71 PUSH1 0xE0 SHL DUP12 MSTORE PUSH1 0x21 PUSH1 0x4 MSTORE PUSH1 0x24 DUP12 REVERT JUMPDEST SWAP1 POP PUSH1 0x8 DUP13 MSTORE DUP3 DUP13 KECCAK256 DUP13 SWAP1 JUMPDEST DUP3 DUP3 LT PUSH2 0xDC4 JUMPI POP POP SWAP2 PUSH2 0x8CB SWAP3 DUP3 ADD ADD DUP13 SWAP3 PUSH2 0x8B7 JUMP JUMPDEST DUP1 SLOAD DUP7 DUP4 ADD DUP7 ADD MSTORE DUP6 SWAP4 POP SWAP1 DUP5 ADD SWAP1 PUSH1 0x1 ADD PUSH2 0xDAC JUMP JUMPDEST PUSH1 0xFF NOT AND DUP5 DUP7 ADD MSTORE POP DUP14 SWAP4 DUP2 ISZERO ISZERO SWAP1 SWAP2 MUL DUP4 ADD ADD SWAP1 POP PUSH2 0x8CB PUSH2 0x8B7 JUMP JUMPDEST PUSH4 0x4E487B71 PUSH1 0xE0 SHL DUP9 MSTORE PUSH1 0x41 PUSH1 0x4 MSTORE PUSH1 0x24 DUP9 REVERT JUMPDEST PUSH4 0x4E487B71 PUSH1 0xE0 SHL DUP12 MSTORE PUSH1 0x41 PUSH1 0x4 MSTORE PUSH1 0x24 DUP12 REVERT JUMPDEST DUP1 SWAP2 SWAP4 SWAP6 POP PUSH2 0xE3D PUSH1 0x1 SWAP4 SWAP6 PUSH1 0x5F NOT DUP11 DUP3 SUB ADD DUP7 MSTORE DUP9 MLOAD PUSH2 0x2129 JUMP JUMPDEST SWAP7 ADD SWAP3 ADD SWAP3 ADD DUP6 SWAP4 SWAP2 SWAP5 SWAP3 PUSH2 0x7DF JUMP JUMPDEST POP POP PUSH1 0x9 DUP10 MSTORE DUP2 DUP10 PUSH1 0x0 DUP1 MLOAD PUSH1 0x20 PUSH2 0x250C DUP4 CODECOPY DUP2 MLOAD SWAP2 MSTORE JUMPDEST DUP4 DUP3 LT PUSH2 0xE7C JUMPI POP POP PUSH1 0x20 PUSH2 0x74A SWAP3 DUP3 ADD ADD PUSH2 0x737 JUMP JUMPDEST PUSH1 0x20 SWAP2 SWAP3 POP DUP1 PUSH1 0x1 SWAP2 SLOAD DUP4 DUP6 DUP9 ADD ADD MSTORE ADD SWAP2 ADD DUP4 SWAP2 PUSH2 0xE65 JUMP JUMPDEST PUSH1 0xFF NOT AND DUP7 MSTORE POP PUSH2 0x74A SWAP3 DUP1 ISZERO ISZERO MUL DUP3 ADD PUSH1 0x20 ADD SWAP1 POP PUSH2 0x737 JUMP JUMPDEST DUP1 PUSH1 0x60 PUSH1 0x20 DUP1 SWAP4 DUP12 ADD ADD MSTORE ADD PUSH2 0x69A JUMP JUMPDEST PUSH1 0x40 MLOAD PUSH3 0x461BCD PUSH1 0xE5 SHL DUP2 MSTORE PUSH1 0x20 PUSH1 0x4 DUP3 ADD MSTORE PUSH1 0x10 PUSH1 0x24 DUP3 ADD MSTORE PUSH16 0x696E73756666696369656E7420676173 PUSH1 0x80 SHL PUSH1 0x44 DUP3 ADD MSTORE PUSH1 0x64 SWAP1 REVERT JUMPDEST PUSH1 0x40 MLOAD PUSH3 0x461BCD PUSH1 0xE5 SHL DUP2 MSTORE PUSH1 0x20 PUSH1 0x4 DUP3 ADD MSTORE PUSH1 0xE PUSH1 0x24 DUP3 ADD MSTORE PUSH14 0x34B73B30B634B21039B2B73232B9 PUSH1 0x91 SHL PUSH1 0x44 DUP3 ADD MSTORE PUSH1 0x64 SWAP1 REVERT JUMPDEST PUSH1 0x40 MLOAD PUSH3 0x461BCD PUSH1 0xE5 SHL DUP2 MSTORE PUSH1 0x20 PUSH1 0x4 DUP3 ADD MSTORE PUSH1 0x11 PUSH1 0x24 DUP3 ADD MSTORE PUSH17 0x696E76616C6964206F6E5265736F6C7665 PUSH1 0x78 SHL PUSH1 0x44 DUP3 ADD MSTORE PUSH1 0x64 SWAP1 REVERT JUMPDEST PUSH1 0x40 MLOAD PUSH3 0x461BCD PUSH1 0xE5 SHL DUP2 MSTORE PUSH1 0x20 PUSH1 0x4 DUP3 ADD MSTORE PUSH1 0x11 PUSH1 0x24 DUP3 ADD MSTORE PUSH17 0x1A5B9D985B1A590818995D141C9BDB5C1D PUSH1 0x7A SHL PUSH1 0x44 DUP3 ADD MSTORE PUSH1 0x64 SWAP1 REVERT JUMPDEST PUSH1 0x40 MLOAD PUSH3 0x461BCD PUSH1 0xE5 SHL DUP2 MSTORE PUSH1 0x20 PUSH1 0x4 DUP3 ADD MSTORE PUSH1 0xD PUSH1 0x24 DUP3 ADD MSTORE PUSH13 0x1A5B9D985B1A590818995D1259 PUSH1 0x9A SHL PUSH1 0x44 DUP3 ADD MSTORE PUSH1 0x64 SWAP1 REVERT JUMPDEST POP DUP1 REVERT JUMPDEST POP CALLVALUE PUSH2 0x32D JUMPI DUP1 PUSH1 0x3 NOT CALLDATASIZE ADD SLT PUSH2 0x32D JUMPI PUSH2 0xFF4 PUSH2 0x24A2 JUMP JUMPDEST DUP1 PUSH1 0x5 SLOAD DUP1 PUSH2 0x12A5 JUMPI JUMPDEST POP POP DUP1 SLOAD PUSH1 0x40 MLOAD PUSH4 0x647846A5 PUSH1 0xE0 SHL DUP2 MSTORE PUSH1 0x1 PUSH1 0x1 PUSH1 0xA0 SHL SUB SWAP1 SWAP2 AND SWAP1 PUSH1 0x20 DUP2 PUSH1 0x4 DUP2 DUP6 GAS STATICCALL SWAP1 DUP2 ISZERO PUSH2 0x322 JUMPI DUP4 SWAP2 PUSH2 0x1286 JUMPI JUMPDEST POP PUSH1 0x40 MLOAD PUSH4 0x70A08231 PUSH1 0xE0 SHL DUP2 MSTORE ADDRESS PUSH1 0x4 DUP3 ADD MSTORE SWAP2 PUSH1 0x1 PUSH1 0x1 PUSH1 0xA0 SHL SUB SWAP2 SWAP1 SWAP2 AND SWAP1 PUSH1 0x20 DUP4 PUSH1 0x24 DUP2 DUP6 GAS STATICCALL SWAP3 DUP4 ISZERO PUSH2 0x127B JUMPI DUP5 SWAP4 PUSH2 0x1247 JUMPI JUMPDEST POP DUP3 ISZERO PUSH2 0x1212 JUMPI DUP4 PUSH1 0x20 PUSH1 0x4 SWAP3 PUSH1 0x40 MLOAD SWAP4 DUP5 DUP1 SWAP3 PUSH4 0x669E34AD PUSH1 0xE1 SHL DUP3 MSTORE GAS STATICCALL DUP1 ISZERO PUSH2 0x1205 JUMPI PUSH1 0x20 SWAP3 DUP3 SWAP2 PUSH2 0x11D8 JUMPI JUMPDEST POP PUSH1 0x40 MLOAD PUSH4 0xA9059CBB PUSH1 0xE0 SHL DUP5 DUP3 ADD SWAP1 DUP2 MSTORE PUSH1 0x1 PUSH1 0x1 PUSH1 0xA0 SHL SUB SWAP1 SWAP3 AND PUSH1 0x24 DUP3 ADD MSTORE PUSH1 0x44 DUP1 DUP3 ADD DUP8 SWAP1 MSTORE DUP2 MSTORE PUSH2 0x10D2 PUSH1 0x64 DUP3 PUSH2 0x1EF4 JUMP JUMPDEST MLOAD SWAP1 DUP3 DUP6 GAS CALL ISZERO PUSH2 0x11CD JUMPI DUP3 MLOAD RETURNDATASIZE PUSH2 0x11C4 JUMPI POP DUP1 EXTCODESIZE ISZERO JUMPDEST PUSH2 0x11B2 JUMPI POP DUP2 SLOAD PUSH1 0x40 MLOAD PUSH4 0x6D8DE31F PUSH1 0xE0 SHL DUP2 MSTORE SWAP1 PUSH1 0x20 SWAP1 DUP3 SWAP1 PUSH1 0x4 SWAP1 DUP3 SWAP1 DUP8 SWAP1 PUSH1 0x1 PUSH1 0x1 PUSH1 0xA0 SHL SUB AND GAS CALL SWAP1 DUP2 ISZERO PUSH2 0x322 JUMPI DUP4 SWAP2 PUSH2 0x115B JUMPI JUMPDEST POP DUP1 PUSH32 0x82EFE7218A4D776C25C08AF33123ACEF8998C9049484A73357D0DD8ED91FF9DD SWAP3 PUSH1 0x40 SWAP3 PUSH1 0x5 SSTORE DUP3 MLOAD SWAP2 DUP3 MSTORE PUSH1 0x20 DUP3 ADD MSTORE LOG1 DUP1 RETURN JUMPDEST SWAP1 POP PUSH1 0x20 DUP2 RETURNDATASIZE PUSH1 0x20 GT PUSH2 0x11AA JUMPI JUMPDEST DUP2 PUSH2 0x1176 PUSH1 0x20 SWAP4 DUP4 PUSH2 0x1EF4 JUMP JUMPDEST DUP2 ADD SUB SLT PUSH2 0x11A5 JUMPI MLOAD PUSH32 0x82EFE7218A4D776C25C08AF33123ACEF8998C9049484A73357D0DD8ED91FF9DD PUSH2 0x1123 JUMP JUMPDEST PUSH1 0x0 DUP1 REVERT JUMPDEST RETURNDATASIZE SWAP2 POP PUSH2 0x1169 JUMP JUMPDEST PUSH4 0x5274AFE7 PUSH1 0xE0 SHL DUP4 MSTORE PUSH1 0x4 MSTORE PUSH1 0x24 DUP3 REVERT JUMPDEST PUSH1 0x1 EQ ISZERO PUSH2 0x10E9 JUMP JUMPDEST PUSH1 0x40 MLOAD RETURNDATASIZE DUP5 DUP3 RETURNDATACOPY RETURNDATASIZE SWAP1 REVERT JUMPDEST PUSH2 0x11F8 SWAP2 POP DUP4 RETURNDATASIZE DUP6 GT PUSH2 0x11FE JUMPI JUMPDEST PUSH2 0x11F0 DUP2 DUP4 PUSH2 0x1EF4 JUMP JUMPDEST DUP2 ADD SWAP1 PUSH2 0x22E3 JUMP JUMPDEST CODESIZE PUSH2 0x109B JUMP JUMPDEST POP RETURNDATASIZE PUSH2 0x11E6 JUMP JUMPDEST POP PUSH1 0x40 MLOAD SWAP1 RETURNDATASIZE SWAP1 DUP3 RETURNDATACOPY RETURNDATASIZE SWAP1 REVERT JUMPDEST PUSH1 0x40 MLOAD PUSH3 0x461BCD PUSH1 0xE5 SHL DUP2 MSTORE PUSH1 0x20 PUSH1 0x4 DUP3 ADD MSTORE PUSH1 0xD PUSH1 0x24 DUP3 ADD MSTORE PUSH13 0x4E6F2066656520746F6B656E73 PUSH1 0x98 SHL PUSH1 0x44 DUP3 ADD MSTORE PUSH1 0x64 SWAP1 REVERT JUMPDEST SWAP1 SWAP3 POP PUSH1 0x20 DUP2 RETURNDATASIZE PUSH1 0x20 GT PUSH2 0x1273 JUMPI JUMPDEST DUP2 PUSH2 0x1263 PUSH1 0x20 SWAP4 DUP4 PUSH2 0x1EF4 JUMP JUMPDEST DUP2 ADD SUB SLT PUSH2 0x11A5 JUMPI MLOAD SWAP2 CODESIZE PUSH2 0x106B JUMP JUMPDEST RETURNDATASIZE SWAP2 POP PUSH2 0x1256 JUMP JUMPDEST PUSH1 0x40 MLOAD RETURNDATASIZE DUP7 DUP3 RETURNDATACOPY RETURNDATASIZE SWAP1 REVERT JUMPDEST PUSH2 0x129F SWAP2 POP PUSH1 0x20 RETURNDATASIZE PUSH1 0x20 GT PUSH2 0x11FE JUMPI PUSH2 0x11F0 DUP2 DUP4 PUSH2 0x1EF4 JUMP JUMPDEST CODESIZE PUSH2 0x1032 JUMP JUMPDEST DUP2 SLOAD PUSH1 0x1 PUSH1 0x1 PUSH1 0xA0 SHL SUB AND SWAP1 DUP2 EXTCODESIZE ISZERO PUSH2 0x12F8 JUMPI DUP3 SWAP2 PUSH1 0x24 DUP4 SWAP3 PUSH1 0x40 MLOAD SWAP6 DUP7 SWAP4 DUP5 SWAP3 PUSH4 0xE2D6F51B PUSH1 0xE0 SHL DUP5 MSTORE PUSH1 0x4 DUP5 ADD MSTORE GAS CALL DUP1 ISZERO PUSH2 0x1205 JUMPI PUSH2 0x12E8 JUMPI JUMPDEST SWAP1 PUSH2 0xFFE JUMP JUMPDEST PUSH2 0x12F1 SWAP2 PUSH2 0x1EF4 JUMP JUMPDEST CODESIZE DUP2 PUSH2 0x12E2 JUMP JUMPDEST POP POP REVERT JUMPDEST POP CALLVALUE PUSH2 0x32D JUMPI DUP1 PUSH1 0x3 NOT CALLDATASIZE ADD SLT PUSH2 0x32D JUMPI PUSH2 0x1315 PUSH2 0x24A2 JUMP JUMPDEST PUSH1 0x1 DUP1 SLOAD PUSH1 0x1 PUSH1 0x1 PUSH1 0xA0 SHL SUB NOT DUP2 AND SWAP1 SWAP2 SSTORE DUP2 SWAP1 PUSH1 0x1 PUSH1 0x1 PUSH1 0xA0 SHL SUB AND PUSH32 0x8BE0079C531659141344CD1FD0A4F28419497F9722A3DAAFE3B4186F6B6457E0 DUP3 DUP1 LOG3 DUP1 RETURN JUMPDEST POP CALLVALUE PUSH2 0x32D JUMPI PUSH1 0x80 CALLDATASIZE PUSH1 0x3 NOT ADD SLT PUSH2 0x32D JUMPI PUSH32 0x16E6F67290546B8DD0E587F4B7F67D4F61932AE17FFD8C60D3509DBC05C175FE PUSH1 0x80 PUSH1 0x4 CALLDATALOAD PUSH1 0x64 CALLDATALOAD PUSH1 0x44 CALLDATALOAD PUSH1 0x24 CALLDATALOAD PUSH2 0x13A2 PUSH2 0x24A2 JUMP JUMPDEST DUP4 PUSH1 0xA SSTORE DUP1 PUSH1 0xB SSTORE DUP2 PUSH1 0xC SSTORE DUP3 PUSH1 0xD SSTORE PUSH1 0x40 MLOAD SWAP4 DUP5 MSTORE PUSH1 0x20 DUP5 ADD MSTORE PUSH1 0x40 DUP4 ADD MSTORE PUSH1 0x60 DUP3 ADD MSTORE LOG1 DUP1 RETURN JUMPDEST POP CALLVALUE PUSH2 0x32D JUMPI DUP1 PUSH1 0x3 NOT CALLDATASIZE ADD SLT PUSH2 0x32D JUMPI PUSH2 0x475 PUSH2 0x1F9 PUSH2 0x1F15 JUMP JUMPDEST POP CALLVALUE PUSH2 0x32D JUMPI DUP1 PUSH1 0x3 NOT CALLDATASIZE ADD SLT PUSH2 0x32D JUMPI SLOAD PUSH1 0x40 MLOAD PUSH1 0x1 PUSH1 0x1 PUSH1 0xA0 SHL SUB SWAP1 SWAP2 AND DUP2 MSTORE PUSH1 0x20 SWAP1 RETURN JUMPDEST POP CALLVALUE PUSH2 0x32D JUMPI DUP1 PUSH1 0x3 NOT CALLDATASIZE ADD SLT PUSH2 0x32D JUMPI PUSH1 0x20 PUSH1 0xD SLOAD PUSH1 0x40 MLOAD SWAP1 DUP2 MSTORE RETURN JUMPDEST POP CALLVALUE PUSH2 0x32D JUMPI DUP1 PUSH1 0x3 NOT CALLDATASIZE ADD SLT PUSH2 0x32D JUMPI PUSH1 0x20 PUSH1 0xB SLOAD PUSH1 0x40 MLOAD SWAP1 DUP2 MSTORE RETURN JUMPDEST POP CALLVALUE PUSH2 0x32D JUMPI PUSH1 0xC0 CALLDATASIZE PUSH1 0x3 NOT ADD SLT PUSH2 0x32D JUMPI PUSH2 0x1464 PUSH2 0x214E JUMP JUMPDEST SWAP1 PUSH1 0x24 CALLDATALOAD PUSH1 0x1 PUSH1 0x1 PUSH1 0xA0 SHL SUB DUP2 AND SWAP1 DUP2 SWAP1 SUB PUSH2 0xFD7 JUMPI PUSH1 0x44 CALLDATALOAD PUSH1 0x1 PUSH1 0x1 PUSH1 0x40 SHL SUB DUP2 GT PUSH2 0x1ABC JUMPI PUSH2 0x1499 SWAP1 CALLDATASIZE SWAP1 PUSH1 0x4 ADD PUSH2 0x217F JUMP JUMPDEST SWAP1 PUSH1 0x64 CALLDATALOAD PUSH1 0x1 PUSH1 0x1 PUSH1 0x40 SHL SUB DUP2 GT PUSH2 0x1AB8 JUMPI PUSH2 0x14B9 SWAP1 CALLDATASIZE SWAP1 PUSH1 0x4 ADD PUSH2 0x217F JUMP JUMPDEST SWAP4 PUSH1 0x84 CALLDATALOAD PUSH1 0x1 PUSH1 0x1 PUSH1 0x40 SHL SUB DUP2 GT PUSH2 0xD63 JUMPI PUSH2 0x14D9 SWAP1 CALLDATASIZE SWAP1 PUSH1 0x4 ADD PUSH2 0x217F JUMP JUMPDEST PUSH1 0xA4 CALLDATALOAD PUSH1 0x1 PUSH1 0x1 PUSH1 0x40 SHL SUB DUP2 GT PUSH2 0x1AB4 JUMPI PUSH2 0x14F8 SWAP1 CALLDATASIZE SWAP1 PUSH1 0x4 ADD PUSH2 0x217F JUMP JUMPDEST SWAP2 PUSH2 0x1501 PUSH2 0x24A2 JUMP JUMPDEST DUP4 PUSH12 0xFFFFFFFFFFFFFFFFFFFFFFFF PUSH1 0xA0 SHL DUP8 SLOAD AND OR DUP7 SSTORE PUSH1 0x1 DUP1 PUSH1 0xA0 SHL SUB AND PUSH12 0xFFFFFFFFFFFFFFFFFFFFFFFF PUSH1 0xA0 SHL PUSH1 0x2 SLOAD AND OR PUSH1 0x2 SSTORE DUP4 MLOAD PUSH1 0x1 PUSH1 0x1 PUSH1 0x40 SHL SUB DUP2 GT PUSH2 0x2E9 JUMPI PUSH2 0x1553 PUSH1 0x6 SLOAD PUSH2 0x1E89 JUMP JUMPDEST PUSH1 0x1F DUP2 GT PUSH2 0x1A49 JUMPI JUMPDEST POP DUP1 PUSH1 0x20 PUSH1 0x1F DUP3 GT PUSH1 0x1 EQ PUSH2 0x19DA JUMPI DUP8 SWAP2 PUSH2 0x19CF JUMPI JUMPDEST POP DUP2 PUSH1 0x1 SHL SWAP2 PUSH1 0x0 NOT SWAP1 PUSH1 0x3 SHL SHR NOT AND OR PUSH1 0x6 SSTORE JUMPDEST DUP6 MLOAD PUSH1 0x1 PUSH1 0x1 PUSH1 0x40 SHL SUB DUP2 GT PUSH2 0x2E9 JUMPI PUSH2 0x15A2 PUSH1 0x7 SLOAD PUSH2 0x1E89 JUMP JUMPDEST PUSH1 0x1F DUP2 GT PUSH2 0x1964 JUMPI JUMPDEST POP DUP1 PUSH1 0x20 PUSH1 0x1F DUP3 GT PUSH1 0x1 EQ PUSH2 0x18F3 JUMPI DUP8 SWAP2 PUSH2 0x18E8 JUMPI JUMPDEST POP DUP2 PUSH1 0x1 SHL SWAP2 PUSH1 0x0 NOT SWAP1 PUSH1 0x3 SHL SHR NOT AND OR PUSH1 0x7 SSTORE JUMPDEST DUP1 MLOAD PUSH1 0x1 PUSH1 0x1 PUSH1 0x40 SHL SUB DUP2 GT PUSH2 0x2E9 JUMPI PUSH2 0x15F1 PUSH1 0x8 SLOAD PUSH2 0x1E89 JUMP JUMPDEST PUSH1 0x1F DUP2 GT PUSH2 0x187D JUMPI JUMPDEST POP DUP1 PUSH1 0x20 PUSH1 0x1F DUP3 GT PUSH1 0x1 EQ PUSH2 0x180E JUMPI DUP8 SWAP2 PUSH2 0x1803 JUMPI JUMPDEST POP DUP2 PUSH1 0x1 SHL SWAP2 PUSH1 0x0 NOT SWAP1 PUSH1 0x3 SHL SHR NOT AND OR PUSH1 0x8 SSTORE JUMPDEST DUP2 MLOAD SWAP6 PUSH1 0x1 PUSH1 0x1 PUSH1 0x40 SHL SUB DUP8 GT PUSH2 0x2E9 JUMPI PUSH2 0x1641 PUSH1 0x9 SLOAD PUSH2 0x1E89 JUMP JUMPDEST PUSH1 0x1F DUP2 GT PUSH2 0x1798 JUMPI JUMPDEST POP PUSH1 0x20 SWAP7 PUSH1 0x1F DUP2 GT PUSH1 0x1 EQ PUSH2 0x16FD JUMPI SWAP2 PUSH2 0x16D0 PUSH2 0x16DE SWAP3 DUP5 PUSH2 0x16EC SWAP7 SWAP6 DUP11 SWAP12 PUSH32 0xB189524B4A4D28735ED1E814418B9BDE84EF638C0A2EEA241E624E9A122904F4 SWAP12 SWAP2 PUSH2 0x16F2 JUMPI JUMPDEST POP DUP2 PUSH1 0x1 SHL SWAP2 PUSH1 0x0 NOT SWAP1 PUSH1 0x3 SHL SHR NOT AND OR PUSH1 0x9 SSTORE JUMPDEST PUSH2 0x16C2 PUSH1 0x40 MLOAD SWAP9 DUP10 SWAP9 DUP10 MSTORE PUSH1 0xA0 PUSH1 0x20 DUP11 ADD MSTORE PUSH1 0xA0 DUP10 ADD SWAP1 PUSH2 0x2129 JUMP JUMPDEST SWAP1 DUP8 DUP3 SUB PUSH1 0x40 DUP10 ADD MSTORE PUSH2 0x2129 JUMP JUMPDEST SWAP1 DUP6 DUP3 SUB PUSH1 0x60 DUP8 ADD MSTORE PUSH2 0x2129 JUMP JUMPDEST SWAP1 DUP4 DUP3 SUB PUSH1 0x80 DUP6 ADD MSTORE PUSH2 0x2129 JUMP JUMPDEST SUB SWAP1 LOG1 DUP1 RETURN JUMPDEST SWAP1 POP DUP7 ADD MLOAD CODESIZE PUSH2 0x1691 JUMP JUMPDEST PUSH1 0x9 DUP8 MSTORE PUSH1 0x0 DUP1 MLOAD PUSH1 0x20 PUSH2 0x250C DUP4 CODECOPY DUP2 MLOAD SWAP2 MSTORE PUSH1 0x1F NOT DUP3 AND DUP9 JUMPDEST DUP2 DUP2 LT PUSH2 0x1780 JUMPI POP SWAP3 PUSH1 0x1 DUP4 PUSH2 0x16D0 SWAP4 PUSH32 0xB189524B4A4D28735ED1E814418B9BDE84EF638C0A2EEA241E624E9A122904F4 SWAP12 SWAP13 PUSH2 0x16EC SWAP10 SWAP9 SWAP7 PUSH2 0x16DE SWAP9 LT PUSH2 0x1767 JUMPI JUMPDEST POP POP DUP2 SHL ADD PUSH1 0x9 SSTORE PUSH2 0x16A6 JUMP JUMPDEST DUP9 ADD MLOAD PUSH1 0x0 NOT PUSH1 0xF8 DUP5 PUSH1 0x3 SHL AND SHR NOT AND SWAP1 SSTORE CODESIZE DUP1 PUSH2 0x175A JUMP JUMPDEST DUP7 DUP12 ADD MLOAD DUP4 SSTORE PUSH1 0x20 SWAP11 DUP12 ADD SWAP11 PUSH1 0x1 SWAP1 SWAP4 ADD SWAP3 ADD PUSH2 0x1717 JUMP JUMPDEST PUSH1 0x9 DUP8 MSTORE PUSH1 0x1F DUP9 ADD PUSH1 0x5 SHR PUSH1 0x0 DUP1 MLOAD PUSH1 0x20 PUSH2 0x250C DUP4 CODECOPY DUP2 MLOAD SWAP2 MSTORE ADD SWAP1 PUSH1 0x20 DUP10 LT PUSH2 0x17ED JUMPI JUMPDEST PUSH1 0x1F ADD PUSH1 0x5 SHR PUSH1 0x0 DUP1 MLOAD PUSH1 0x20 PUSH2 0x250C DUP4 CODECOPY DUP2 MLOAD SWAP2 MSTORE ADD SWAP1 JUMPDEST DUP2 DUP2 LT PUSH2 0x17E2 JUMPI POP PUSH2 0x164A JUMP JUMPDEST DUP8 DUP2 SSTORE PUSH1 0x1 ADD PUSH2 0x17D5 JUMP JUMPDEST PUSH1 0x0 DUP1 MLOAD PUSH1 0x20 PUSH2 0x250C DUP4 CODECOPY DUP2 MLOAD SWAP2 MSTORE SWAP2 POP PUSH2 0x17BD JUMP JUMPDEST SWAP1 POP DUP3 ADD MLOAD CODESIZE PUSH2 0x1610 JUMP JUMPDEST PUSH1 0x8 DUP9 MSTORE PUSH1 0x0 DUP1 MLOAD PUSH1 0x20 PUSH2 0x24EC DUP4 CODECOPY DUP2 MLOAD SWAP2 MSTORE SWAP2 POP PUSH1 0x1F NOT DUP4 AND DUP9 JUMPDEST DUP2 DUP2 LT PUSH2 0x1865 JUMPI POP SWAP1 DUP4 PUSH1 0x1 SWAP5 SWAP4 SWAP3 LT PUSH2 0x184C JUMPI JUMPDEST POP POP DUP2 SHL ADD PUSH1 0x8 SSTORE PUSH2 0x1625 JUMP JUMPDEST DUP5 ADD MLOAD PUSH1 0x0 NOT PUSH1 0xF8 DUP5 PUSH1 0x3 SHL AND SHR NOT AND SWAP1 SSTORE CODESIZE DUP1 PUSH2 0x183F JUMP JUMPDEST SWAP2 SWAP3 PUSH1 0x20 PUSH1 0x1 DUP2 SWAP3 DUP7 DUP10 ADD MLOAD DUP2 SSTORE ADD SWAP5 ADD SWAP3 ADD PUSH2 0x182A JUMP JUMPDEST PUSH1 0x8 DUP8 MSTORE PUSH1 0x1F DUP3 ADD PUSH1 0x5 SHR PUSH1 0x0 DUP1 MLOAD PUSH1 0x20 PUSH2 0x24EC DUP4 CODECOPY DUP2 MLOAD SWAP2 MSTORE ADD SWAP1 PUSH1 0x20 DUP4 LT PUSH2 0x18D2 JUMPI JUMPDEST PUSH1 0x1F ADD PUSH1 0x5 SHR PUSH1 0x0 DUP1 MLOAD PUSH1 0x20 PUSH2 0x24EC DUP4 CODECOPY DUP2 MLOAD SWAP2 MSTORE ADD SWAP1 JUMPDEST DUP2 DUP2 LT PUSH2 0x18C7 JUMPI POP PUSH2 0x15FA JUMP JUMPDEST DUP8 DUP2 SSTORE PUSH1 0x1 ADD PUSH2 0x18BA JUMP JUMPDEST PUSH1 0x0 DUP1 MLOAD PUSH1 0x20 PUSH2 0x24EC DUP4 CODECOPY DUP2 MLOAD SWAP2 MSTORE SWAP2 POP PUSH2 0x18A2 JUMP JUMPDEST SWAP1 POP DUP8 ADD MLOAD CODESIZE PUSH2 0x15C1 JUMP JUMPDEST PUSH1 0x7 DUP9 MSTORE PUSH1 0x0 DUP1 MLOAD PUSH1 0x20 PUSH2 0x24CC DUP4 CODECOPY DUP2 MLOAD SWAP2 MSTORE SWAP2 POP PUSH1 0x1F NOT DUP4 AND DUP9 JUMPDEST DUP11 DUP3 DUP3 LT PUSH2 0x194C JUMPI POP POP SWAP1 DUP4 PUSH1 0x1 SWAP5 SWAP4 SWAP3 LT PUSH2 0x1933 JUMPI JUMPDEST POP POP DUP2 SHL ADD PUSH1 0x7 SSTORE PUSH2 0x15D6 JUMP JUMPDEST DUP10 ADD MLOAD PUSH1 0x0 NOT PUSH1 0xF8 DUP5 PUSH1 0x3 SHL AND SHR NOT AND SWAP1 SSTORE CODESIZE DUP1 PUSH2 0x1926 JUMP JUMPDEST PUSH1 0x1 DUP5 SWAP6 PUSH1 0x20 SWAP4 SWAP6 DUP5 SWAP4 ADD MLOAD DUP2 SSTORE ADD SWAP5 ADD SWAP3 ADD PUSH2 0x190F JUMP JUMPDEST PUSH1 0x7 DUP8 MSTORE PUSH1 0x1F DUP3 ADD PUSH1 0x5 SHR PUSH1 0x0 DUP1 MLOAD PUSH1 0x20 PUSH2 0x24CC DUP4 CODECOPY DUP2 MLOAD SWAP2 MSTORE ADD SWAP1 PUSH1 0x20 DUP4 LT PUSH2 0x19B9 JUMPI JUMPDEST PUSH1 0x1F ADD PUSH1 0x5 SHR PUSH1 0x0 DUP1 MLOAD PUSH1 0x20 PUSH2 0x24CC DUP4 CODECOPY DUP2 MLOAD SWAP2 MSTORE ADD SWAP1 JUMPDEST DUP2 DUP2 LT PUSH2 0x19AE JUMPI POP PUSH2 0x15AB JUMP JUMPDEST DUP8 DUP2 SSTORE PUSH1 0x1 ADD PUSH2 0x19A1 JUMP JUMPDEST PUSH1 0x0 DUP1 MLOAD PUSH1 0x20 PUSH2 0x24CC DUP4 CODECOPY DUP2 MLOAD SWAP2 MSTORE SWAP2 POP PUSH2 0x1989 JUMP JUMPDEST SWAP1 POP DUP6 ADD MLOAD CODESIZE PUSH2 0x1572 JUMP JUMPDEST PUSH1 0x6 DUP9 MSTORE PUSH1 0x0 DUP1 MLOAD PUSH1 0x20 PUSH2 0x252C DUP4 CODECOPY DUP2 MLOAD SWAP2 MSTORE SWAP2 POP PUSH1 0x1F NOT DUP4 AND DUP9 JUMPDEST DUP2 DUP2 LT PUSH2 0x1A31 JUMPI POP SWAP1 DUP4 PUSH1 0x1 SWAP5 SWAP4 SWAP3 LT PUSH2 0x1A18 JUMPI JUMPDEST POP POP DUP2 SHL ADD PUSH1 0x6 SSTORE PUSH2 0x1587 JUMP JUMPDEST DUP8 ADD MLOAD PUSH1 0x0 NOT PUSH1 0xF8 DUP5 PUSH1 0x3 SHL AND SHR NOT AND SWAP1 SSTORE CODESIZE DUP1 PUSH2 0x1A0B JUMP JUMPDEST SWAP2 SWAP3 PUSH1 0x20 PUSH1 0x1 DUP2 SWAP3 DUP7 DUP13 ADD MLOAD DUP2 SSTORE ADD SWAP5 ADD SWAP3 ADD PUSH2 0x19F6 JUMP JUMPDEST PUSH1 0x6 DUP8 MSTORE PUSH1 0x1F DUP3 ADD PUSH1 0x5 SHR PUSH1 0x0 DUP1 MLOAD PUSH1 0x20 PUSH2 0x252C DUP4 CODECOPY DUP2 MLOAD SWAP2 MSTORE ADD SWAP1 PUSH1 0x20 DUP4 LT PUSH2 0x1A9E JUMPI JUMPDEST PUSH1 0x1F ADD PUSH1 0x5 SHR PUSH1 0x0 DUP1 MLOAD PUSH1 0x20 PUSH2 0x252C DUP4 CODECOPY DUP2 MLOAD SWAP2 MSTORE ADD SWAP1 JUMPDEST DUP2 DUP2 LT PUSH2 0x1A93 JUMPI POP PUSH2 0x155C JUMP JUMPDEST DUP8 DUP2 SSTORE PUSH1 0x1 ADD PUSH2 0x1A86 JUMP JUMPDEST PUSH1 0x0 DUP1 MLOAD PUSH1 0x20 PUSH2 0x252C DUP4 CODECOPY DUP2 MLOAD SWAP2 MSTORE SWAP2 POP PUSH2 0x1A6E JUMP JUMPDEST DUP6 DUP1 REVERT JUMPDEST DUP4 DUP1 REVERT JUMPDEST DUP3 DUP1 REVERT JUMPDEST POP CALLVALUE PUSH2 0x32D JUMPI PUSH1 0x20 CALLDATASIZE PUSH1 0x3 NOT ADD SLT PUSH2 0x32D JUMPI DUP1 SLOAD PUSH1 0x4 CALLDATALOAD SWAP1 PUSH1 0x24 SWAP1 DUP4 SWAP1 PUSH1 0x1 PUSH1 0x1 PUSH1 0xA0 SHL SUB AND PUSH2 0x1AF1 CALLER DUP3 EQ PUSH2 0x21C6 JUMP JUMPDEST PUSH1 0x40 MLOAD SWAP3 DUP4 DUP1 SWAP3 PUSH4 0xD1E4BE07 PUSH1 0xE0 SHL DUP3 MSTORE DUP7 PUSH1 0x4 DUP4 ADD MSTORE GAS STATICCALL SWAP1 DUP2 ISZERO PUSH2 0x322 JUMPI DUP4 SWAP2 PUSH2 0x1DEA JUMPI JUMPDEST POP DUP1 MLOAD DUP2 ADD SWAP1 PUSH1 0x20 DUP2 DUP4 SUB SLT PUSH2 0x1AB8 JUMPI PUSH1 0x20 DUP2 ADD MLOAD SWAP2 PUSH1 0x1 PUSH1 0x1 PUSH1 0x40 SHL SUB DUP4 GT PUSH2 0xD63 JUMPI PUSH2 0x1B4D SWAP3 PUSH1 0x20 DUP1 SWAP3 ADD SWAP3 ADD ADD PUSH2 0x2247 JUMP JUMPDEST PUSH2 0x1B56 DUP2 PUSH2 0x2379 JUMP JUMPDEST SWAP1 DUP3 DUP5 MSTORE PUSH1 0x4 PUSH1 0x20 MSTORE PUSH1 0x40 DUP5 KECCAK256 SLOAD SWAP3 DUP4 DUP6 MSTORE PUSH1 0x3 PUSH1 0x20 MSTORE PUSH1 0x40 DUP6 KECCAK256 PUSH1 0x2 PUSH1 0x1 DUP3 ADD SWAP2 PUSH2 0x1B90 DUP7 PUSH4 0xFFFFFFFF PUSH1 0xE0 SHL DUP6 SLOAD PUSH1 0xD8 SHL AND SWAP5 PUSH2 0x22CB JUMP JUMPDEST ADD DUP4 MLOAD PUSH1 0x1 PUSH1 0x1 PUSH1 0x40 SHL SUB DUP2 GT PUSH2 0xDF9 JUMPI SWAP2 DUP2 DUP8 SWAP4 PUSH2 0x1BB0 DUP11 SWAP5 SLOAD PUSH2 0x1E89 JUMP JUMPDEST PUSH1 0x1F DUP2 GT PUSH2 0x1D93 JUMPI JUMPDEST POP PUSH1 0x20 PUSH1 0x1F DUP3 GT PUSH1 0x1 EQ PUSH2 0x1CFD JUMPI SWAP4 PUSH32 0x4CDFD2DABD9BCCE8C3B563AFFCC5FBECB1B95914A0F02DA623A9FCF5F13B0D9B SWAP9 SWAP7 SWAP4 PUSH2 0x1CA0 SWAP7 SWAP4 DUP4 DUP4 SWAP5 PUSH2 0x1C8F SWAP12 SWAP9 DUP6 SWAP2 PUSH2 0x1CF2 JUMPI JUMPDEST POP DUP2 PUSH1 0x1 SHL SWAP2 PUSH1 0x0 NOT SWAP1 PUSH1 0x3 SHL SHR NOT AND OR SWAP1 SSTORE JUMPDEST PUSH1 0x1 DUP1 PUSH1 0xA0 SHL SUB PUSH1 0x2 SLOAD AND SWAP1 DUP3 PUSH1 0x40 MLOAD PUSH1 0x20 DUP2 ADD SWAP3 DUP4 MSTORE DUP7 PUSH1 0x24 DUP3 ADD MSTORE PUSH2 0x1C3E PUSH1 0x44 DUP3 ADD DUP13 PUSH2 0x20E3 JUMP JUMPDEST PUSH1 0x44 DUP2 MSTORE PUSH2 0x1C4D PUSH1 0x64 DUP3 PUSH2 0x1EF4 JUMP JUMPDEST MLOAD SWAP3 GAS CALL RETURNDATASIZE ISZERO PUSH2 0x1CEA JUMPI RETURNDATASIZE SWAP1 PUSH2 0x1C62 DUP3 PUSH2 0x2164 JUMP JUMPDEST SWAP2 PUSH2 0x1C70 PUSH1 0x40 MLOAD SWAP4 DUP5 PUSH2 0x1EF4 JUMP JUMPDEST DUP3 MSTORE RETURNDATASIZE DUP12 PUSH1 0x20 DUP5 ADD RETURNDATACOPY JUMPDEST ISZERO PUSH2 0x1CA6 JUMPI JUMPDEST POP POP POP PUSH1 0x40 MLOAD SWAP4 DUP5 DUP1 SWAP5 PUSH2 0x20E3 JUMP JUMPDEST PUSH1 0x40 PUSH1 0x20 DUP5 ADD MSTORE PUSH1 0x40 DUP4 ADD SWAP1 PUSH2 0x2129 JUMP JUMPDEST SUB SWAP1 LOG2 DUP1 RETURN JUMPDEST PUSH2 0x1CDF PUSH32 0xE9C0294B4419B2194CBE1D9F814A03250327281E6E123B1E7288822710D8A8BF SWAP2 PUSH1 0x40 MLOAD SWAP2 DUP3 SWAP2 PUSH1 0x20 DUP4 MSTORE PUSH1 0x20 DUP4 ADD SWAP1 PUSH2 0x2129 JUMP JUMPDEST SUB SWAP1 LOG3 CODESIZE DUP7 DUP2 PUSH2 0x1C80 JUMP JUMPDEST PUSH1 0x60 SWAP1 PUSH2 0x1C7A JUMP JUMPDEST SWAP1 POP DUP9 ADD MLOAD CODESIZE PUSH2 0x1C00 JUMP JUMPDEST DUP3 DUP6 MSTORE DUP1 DUP6 KECCAK256 SWAP1 PUSH1 0x1F NOT DUP4 AND DUP7 JUMPDEST DUP2 DUP2 LT PUSH2 0x1D75 JUMPI POP SWAP4 PUSH1 0x1 DUP5 DUP9 SWAP6 SWAP5 PUSH32 0x4CDFD2DABD9BCCE8C3B563AFFCC5FBECB1B95914A0F02DA623A9FCF5F13B0D9B SWAP14 SWAP12 SWAP9 SWAP5 PUSH2 0x1C8F SWAP14 SWAP11 SWAP7 PUSH2 0x1CA0 SWAP13 SWAP10 LT PUSH2 0x1D5C JUMPI JUMPDEST POP POP DUP2 SHL ADD SWAP1 SSTORE PUSH2 0x1C14 JUMP JUMPDEST DUP11 ADD MLOAD PUSH1 0x0 NOT PUSH1 0xF8 DUP5 PUSH1 0x3 SHL AND SHR NOT AND SWAP1 SSTORE CODESIZE DUP1 PUSH2 0x1D50 JUMP JUMPDEST DUP11 DUP4 ADD MLOAD DUP5 SSTORE DUP13 SWAP9 POP DUP14 SWAP8 POP PUSH1 0x1 SWAP1 SWAP4 ADD SWAP3 PUSH1 0x20 SWAP3 DUP4 ADD SWAP3 ADD PUSH2 0x1D0B JUMP JUMPDEST SWAP2 SWAP4 DUP5 SWAP2 SWAP4 SWAP6 POP MSTORE PUSH1 0x20 DUP10 KECCAK256 PUSH1 0x1F DUP4 ADD PUSH1 0x5 SHR DUP2 ADD SWAP2 PUSH1 0x20 DUP5 LT PUSH2 0x1DE0 JUMPI JUMPDEST SWAP2 DUP10 SWAP6 SWAP4 SWAP2 PUSH1 0x1F DUP13 SWAP7 SWAP5 ADD PUSH1 0x5 SHR ADD SWAP1 JUMPDEST DUP2 DUP2 LT PUSH2 0x1DD0 JUMPI POP PUSH2 0x1BB9 JUMP JUMPDEST SWAP5 DUP6 SSTORE DUP10 SWAP6 POP DUP11 SWAP5 PUSH1 0x1 ADD PUSH2 0x1DC3 JUMP JUMPDEST SWAP1 SWAP2 POP DUP2 SWAP1 PUSH2 0x1DB2 JUMP JUMPDEST PUSH2 0x1DFE SWAP2 POP RETURNDATASIZE DUP1 DUP6 DUP4 RETURNDATACOPY PUSH2 0x311 DUP2 DUP4 PUSH2 0x1EF4 JUMP JUMPDEST SWAP2 POP POP CODESIZE PUSH2 0x1B18 JUMP JUMPDEST POP CALLVALUE PUSH2 0x32D JUMPI PUSH1 0x20 CALLDATASIZE PUSH1 0x3 NOT ADD SLT PUSH2 0x32D JUMPI PUSH1 0x40 SWAP1 PUSH1 0x4 CALLDATALOAD DUP2 MSTORE PUSH1 0x3 PUSH1 0x20 MSTORE KECCAK256 DUP1 SLOAD PUSH2 0x475 PUSH1 0x1 DUP4 ADD SLOAD SWAP3 PUSH2 0x16DE PUSH2 0x1E4D PUSH1 0x3 PUSH2 0x1E46 PUSH1 0x2 DUP6 ADD PUSH2 0x2041 JUMP JUMPDEST SWAP4 ADD PUSH2 0x2041 JUMP JUMPDEST SWAP2 PUSH1 0x40 MLOAD SWAP6 DUP7 SWAP6 DUP7 MSTORE PUSH2 0x1E66 PUSH1 0x20 DUP8 ADD PUSH1 0xFF DUP4 AND PUSH2 0x20E3 JUMP JUMPDEST PUSH1 0xD8 SHL PUSH1 0x1 PUSH1 0x1 PUSH1 0xE0 SHL SUB NOT AND PUSH1 0x40 DUP7 ADD MSTORE PUSH1 0xA0 PUSH1 0x60 DUP7 ADD DUP2 SWAP1 MSTORE DUP6 ADD SWAP1 PUSH2 0x2129 JUMP JUMPDEST SWAP1 PUSH1 0x1 DUP3 DUP2 SHR SWAP3 AND DUP1 ISZERO PUSH2 0x1EB9 JUMPI JUMPDEST PUSH1 0x20 DUP4 LT EQ PUSH2 0x1EA3 JUMPI JUMP JUMPDEST PUSH4 0x4E487B71 PUSH1 0xE0 SHL PUSH1 0x0 MSTORE PUSH1 0x22 PUSH1 0x4 MSTORE PUSH1 0x24 PUSH1 0x0 REVERT JUMPDEST SWAP2 PUSH1 0x7F AND SWAP2 PUSH2 0x1E98 JUMP JUMPDEST PUSH1 0xA0 DUP2 ADD SWAP1 DUP2 LT PUSH1 0x1 PUSH1 0x1 PUSH1 0x40 SHL SUB DUP3 GT OR PUSH2 0x1EDE JUMPI PUSH1 0x40 MSTORE JUMP JUMPDEST PUSH4 0x4E487B71 PUSH1 0xE0 SHL PUSH1 0x0 MSTORE PUSH1 0x41 PUSH1 0x4 MSTORE PUSH1 0x24 PUSH1 0x0 REVERT JUMPDEST SWAP1 PUSH1 0x1F DUP1 NOT SWAP2 ADD AND DUP2 ADD SWAP1 DUP2 LT PUSH1 0x1 PUSH1 0x1 PUSH1 0x40 SHL SUB DUP3 GT OR PUSH2 0x1EDE JUMPI PUSH1 0x40 MSTORE JUMP JUMPDEST PUSH1 0x40 MLOAD SWAP1 PUSH1 0x0 DUP3 PUSH1 0x7 SLOAD SWAP2 PUSH2 0x1F29 DUP4 PUSH2 0x1E89 JUMP JUMPDEST DUP1 DUP4 MSTORE SWAP3 PUSH1 0x1 DUP2 AND SWAP1 DUP2 ISZERO PUSH2 0x1F9D JUMPI POP PUSH1 0x1 EQ PUSH2 0x1F4F JUMPI JUMPDEST PUSH2 0x1F4D SWAP3 POP SUB DUP4 PUSH2 0x1EF4 JUMP JUMPDEST JUMP JUMPDEST POP PUSH1 0x7 PUSH1 0x0 SWAP1 DUP2 MSTORE SWAP1 SWAP2 PUSH1 0x0 DUP1 MLOAD PUSH1 0x20 PUSH2 0x24CC DUP4 CODECOPY DUP2 MLOAD SWAP2 MSTORE JUMPDEST DUP2 DUP4 LT PUSH2 0x1F81 JUMPI POP POP SWAP1 PUSH1 0x20 PUSH2 0x1F4D SWAP3 DUP3 ADD ADD PUSH2 0x1F41 JUMP JUMPDEST PUSH1 0x20 SWAP2 SWAP4 POP DUP1 PUSH1 0x1 SWAP2 SLOAD DUP4 DUP6 DUP10 ADD ADD MSTORE ADD SWAP2 ADD SWAP1 SWAP2 DUP5 SWAP3 PUSH2 0x1F69 JUMP JUMPDEST PUSH1 0x20 SWAP3 POP PUSH2 0x1F4D SWAP5 SWAP2 POP PUSH1 0xFF NOT AND DUP3 DUP5 ADD MSTORE ISZERO ISZERO PUSH1 0x5 SHL DUP3 ADD ADD PUSH2 0x1F41 JUMP JUMPDEST PUSH1 0x40 MLOAD SWAP1 PUSH1 0x0 DUP3 PUSH1 0x6 SLOAD SWAP2 PUSH2 0x1FD0 DUP4 PUSH2 0x1E89 JUMP JUMPDEST DUP1 DUP4 MSTORE SWAP3 PUSH1 0x1 DUP2 AND SWAP1 DUP2 ISZERO PUSH2 0x1F9D JUMPI POP PUSH1 0x1 EQ PUSH2 0x1FF3 JUMPI PUSH2 0x1F4D SWAP3 POP SUB DUP4 PUSH2 0x1EF4 JUMP JUMPDEST POP PUSH1 0x6 PUSH1 0x0 SWAP1 DUP2 MSTORE SWAP1 SWAP2 PUSH1 0x0 DUP1 MLOAD PUSH1 0x20 PUSH2 0x252C DUP4 CODECOPY DUP2 MLOAD SWAP2 MSTORE JUMPDEST DUP2 DUP4 LT PUSH2 0x2025 JUMPI POP POP SWAP1 PUSH1 0x20 PUSH2 0x1F4D SWAP3 DUP3 ADD ADD PUSH2 0x1F41 JUMP JUMPDEST PUSH1 0x20 SWAP2 SWAP4 POP DUP1 PUSH1 0x1 SWAP2 SLOAD DUP4 DUP6 DUP10 ADD ADD MSTORE ADD SWAP2 ADD SWAP1 SWAP2 DUP5 SWAP3 PUSH2 0x200D JUMP JUMPDEST SWAP1 PUSH1 0x40 MLOAD SWAP2 DUP3 PUSH1 0x0 DUP3 SLOAD SWAP3 PUSH2 0x2055 DUP5 PUSH2 0x1E89 JUMP JUMPDEST DUP1 DUP5 MSTORE SWAP4 PUSH1 0x1 DUP2 AND SWAP1 DUP2 ISZERO PUSH2 0x20C1 JUMPI POP PUSH1 0x1 EQ PUSH2 0x207A JUMPI JUMPDEST POP PUSH2 0x1F4D SWAP3 POP SUB DUP4 PUSH2 0x1EF4 JUMP JUMPDEST SWAP1 POP PUSH1 0x0 SWAP3 SWAP2 SWAP3 MSTORE PUSH1 0x20 PUSH1 0x0 KECCAK256 SWAP1 PUSH1 0x0 SWAP2 JUMPDEST DUP2 DUP4 LT PUSH2 0x20A5 JUMPI POP POP SWAP1 PUSH1 0x20 PUSH2 0x1F4D SWAP3 DUP3 ADD ADD CODESIZE PUSH2 0x206D JUMP JUMPDEST PUSH1 0x20 SWAP2 SWAP4 POP DUP1 PUSH1 0x1 SWAP2 SLOAD DUP4 DUP6 DUP10 ADD ADD MSTORE ADD SWAP2 ADD SWAP1 SWAP2 DUP5 SWAP3 PUSH2 0x208C JUMP JUMPDEST SWAP1 POP PUSH1 0x20 SWAP3 POP PUSH2 0x1F4D SWAP5 SWAP2 POP PUSH1 0xFF NOT AND DUP3 DUP5 ADD MSTORE ISZERO ISZERO PUSH1 0x5 SHL DUP3 ADD ADD CODESIZE PUSH2 0x206D JUMP JUMPDEST SWAP1 PUSH1 0x4 DUP3 LT ISZERO PUSH2 0x20F0 JUMPI MSTORE JUMP JUMPDEST PUSH4 0x4E487B71 PUSH1 0xE0 SHL PUSH1 0x0 MSTORE PUSH1 0x21 PUSH1 0x4 MSTORE PUSH1 0x24 PUSH1 0x0 REVERT JUMPDEST PUSH1 0x0 JUMPDEST DUP4 DUP2 LT PUSH2 0x2119 JUMPI POP POP PUSH1 0x0 SWAP2 ADD MSTORE JUMP JUMPDEST DUP2 DUP2 ADD MLOAD DUP4 DUP3 ADD MSTORE PUSH1 0x20 ADD PUSH2 0x2109 JUMP JUMPDEST SWAP1 PUSH1 0x20 SWAP2 PUSH2 0x2142 DUP2 MLOAD DUP1 SWAP3 DUP2 DUP6 MSTORE DUP6 DUP1 DUP7 ADD SWAP2 ADD PUSH2 0x2106 JUMP JUMPDEST PUSH1 0x1F ADD PUSH1 0x1F NOT AND ADD ADD SWAP1 JUMP JUMPDEST PUSH1 0x4 CALLDATALOAD SWAP1 PUSH1 0x1 PUSH1 0x1 PUSH1 0xA0 SHL SUB DUP3 AND DUP3 SUB PUSH2 0x11A5 JUMPI JUMP JUMPDEST PUSH1 0x1 PUSH1 0x1 PUSH1 0x40 SHL SUB DUP2 GT PUSH2 0x1EDE JUMPI PUSH1 0x1F ADD PUSH1 0x1F NOT AND PUSH1 0x20 ADD SWAP1 JUMP JUMPDEST DUP2 PUSH1 0x1F DUP3 ADD SLT ISZERO PUSH2 0x11A5 JUMPI DUP1 CALLDATALOAD SWAP1 PUSH2 0x2196 DUP3 PUSH2 0x2164 JUMP JUMPDEST SWAP3 PUSH2 0x21A4 PUSH1 0x40 MLOAD SWAP5 DUP6 PUSH2 0x1EF4 JUMP JUMPDEST DUP3 DUP5 MSTORE PUSH1 0x20 DUP4 DUP4 ADD ADD GT PUSH2 0x11A5 JUMPI DUP2 PUSH1 0x0 SWAP3 PUSH1 0x20 DUP1 SWAP4 ADD DUP4 DUP7 ADD CALLDATACOPY DUP4 ADD ADD MSTORE SWAP1 JUMP JUMPDEST ISZERO PUSH2 0x21CD JUMPI JUMP JUMPDEST PUSH1 0x40 MLOAD PUSH3 0x461BCD PUSH1 0xE5 SHL DUP2 MSTORE PUSH1 0x20 PUSH1 0x4 DUP3 ADD MSTORE PUSH1 0x1F PUSH1 0x24 DUP3 ADD MSTORE PUSH32 0x4F6E6C792044746E2063616E2063616C6C20746869732066756E6374696F6E00 PUSH1 0x44 DUP3 ADD MSTORE PUSH1 0x64 SWAP1 REVERT JUMPDEST SWAP1 SWAP3 SWAP2 SWAP3 PUSH2 0x221F DUP2 PUSH2 0x2164 JUMP JUMPDEST SWAP2 PUSH2 0x222D PUSH1 0x40 MLOAD SWAP4 DUP5 PUSH2 0x1EF4 JUMP JUMPDEST DUP3 SWAP5 DUP3 DUP5 MSTORE DUP3 DUP3 ADD GT PUSH2 0x11A5 JUMPI PUSH1 0x20 PUSH2 0x1F4D SWAP4 ADD SWAP1 PUSH2 0x2106 JUMP JUMPDEST SWAP1 DUP1 PUSH1 0x1F DUP4 ADD SLT ISZERO PUSH2 0x11A5 JUMPI DUP2 MLOAD PUSH2 0x2261 SWAP3 PUSH1 0x20 ADD PUSH2 0x2212 JUMP JUMPDEST SWAP1 JUMP JUMPDEST SWAP1 SWAP2 PUSH1 0x60 DUP3 DUP5 SUB SLT PUSH2 0x11A5 JUMPI DUP2 MLOAD PUSH1 0x3 DUP2 LT ISZERO PUSH2 0x11A5 JUMPI SWAP3 PUSH1 0x20 DUP4 ADD MLOAD PUSH1 0x1 PUSH1 0x1 PUSH1 0x40 SHL SUB DUP2 GT PUSH2 0x11A5 JUMPI DUP2 PUSH2 0x229B SWAP2 DUP6 ADD PUSH2 0x2247 JUMP JUMPDEST SWAP3 PUSH1 0x40 DUP2 ADD MLOAD SWAP1 PUSH1 0x1 PUSH1 0x1 PUSH1 0x40 SHL SUB DUP3 GT PUSH2 0x11A5 JUMPI ADD SWAP1 DUP1 PUSH1 0x1F DUP4 ADD SLT ISZERO PUSH2 0x11A5 JUMPI DUP2 MLOAD PUSH2 0x2261 SWAP3 PUSH1 0x20 ADD PUSH2 0x2212 JUMP JUMPDEST SWAP1 PUSH1 0x4 DUP2 LT ISZERO PUSH2 0x20F0 JUMPI PUSH1 0xFF DUP1 NOT DUP4 SLOAD AND SWAP2 AND OR SWAP1 SSTORE JUMP JUMPDEST SWAP1 DUP2 PUSH1 0x20 SWAP2 SUB SLT PUSH2 0x11A5 JUMPI MLOAD PUSH1 0x1 PUSH1 0x1 PUSH1 0xA0 SHL SUB DUP2 AND DUP2 SUB PUSH2 0x11A5 JUMPI SWAP1 JUMP JUMPDEST DUP1 MLOAD ISZERO PUSH2 0x230F JUMPI PUSH1 0x20 ADD SWAP1 JUMP JUMPDEST PUSH4 0x4E487B71 PUSH1 0xE0 SHL PUSH1 0x0 MSTORE PUSH1 0x32 PUSH1 0x4 MSTORE PUSH1 0x24 PUSH1 0x0 REVERT JUMPDEST DUP1 MLOAD PUSH1 0x1 LT ISZERO PUSH2 0x230F JUMPI PUSH1 0x40 ADD SWAP1 JUMP JUMPDEST DUP1 MLOAD PUSH1 0x2 LT ISZERO PUSH2 0x230F JUMPI PUSH1 0x60 ADD SWAP1 JUMP JUMPDEST SWAP1 PUSH1 0x20 DUP1 DUP4 MLOAD SWAP3 DUP4 DUP2 MSTORE ADD SWAP3 ADD SWAP1 PUSH1 0x0 JUMPDEST DUP2 DUP2 LT PUSH2 0x2363 JUMPI POP POP POP SWAP1 JUMP JUMPDEST DUP3 MLOAD DUP5 MSTORE PUSH1 0x20 SWAP4 DUP5 ADD SWAP4 SWAP1 SWAP3 ADD SWAP2 PUSH1 0x1 ADD PUSH2 0x2356 JUMP JUMPDEST PUSH1 0x20 DUP2 MLOAD SWAP2 ADD KECCAK256 PUSH32 0x6273151F959616268004B58DBB21E5C851B7B8D04498B4AABEE12291D22FC034 DUP2 EQ DUP1 ISZERO PUSH2 0x2479 JUMPI JUMPDEST DUP1 ISZERO PUSH2 0x2450 JUMPI JUMPDEST PUSH2 0x244A JUMPI PUSH32 0xBA9154E0BAA69C78E0CA563B867DF81BAE9D177C4EA1452C35C84386A70F0F7A DUP2 EQ SWAP1 DUP2 ISZERO PUSH2 0x2420 JUMPI JUMPDEST DUP2 ISZERO PUSH2 0x23F6 JUMPI JUMPDEST POP PUSH2 0x23F1 JUMPI PUSH1 0x3 SWAP1 JUMP JUMPDEST PUSH1 0x2 SWAP1 JUMP JUMPDEST PUSH32 0xA357FCB91396B2AFA7AB60192E270C625A2EB250B8F839DDB179F207B40459B4 SWAP2 POP EQ CODESIZE PUSH2 0x23E7 JUMP JUMPDEST PUSH32 0xA2DAD57CC42B2B0635F411233812E479F7896335AE3219AC4EF034F5A34C3F0B DUP2 EQ SWAP2 POP PUSH2 0x23E0 JUMP JUMPDEST POP PUSH1 0x1 SWAP1 JUMP JUMPDEST POP PUSH32 0x7749ED7587E6DBF171CE6BE50BEA67236732D7CCFD51E327BC28B612EC06FAA7 DUP2 EQ PUSH2 0x23B1 JUMP JUMPDEST POP PUSH32 0x23025EBDC5CDFC5BDFE2D2C2A52D7E7F374F5C135D6D47E3C935C86567E86A53 DUP2 EQ PUSH2 0x23AA JUMP JUMPDEST PUSH1 0x1 SLOAD PUSH1 0x1 PUSH1 0x1 PUSH1 0xA0 SHL SUB AND CALLER SUB PUSH2 0x24B6 JUMPI JUMP JUMPDEST PUSH4 0x118CDAA7 PUSH1 0xE0 SHL PUSH1 0x0 MSTORE CALLER PUSH1 0x4 MSTORE PUSH1 0x24 PUSH1 0x0 REVERT INVALID 0xA6 PUSH13 0xC928B5EDB82AF9BD4992295415 GAS 0xB7 0xB0 SWAP5 0x26 SWAP5 0xBE LOG4 0xCE PREVRANDAO PUSH7 0x1D9A8736C688F3 0xF7 0xA9 INVALID CALLDATASIZE 0x4F 0xAA 0xB9 EXTCODESIZE 0x21 PUSH14 0xA50A3214154F22A0A2B415B23A84 0xC8 AND SWAP15 DUP12 PUSH4 0x6EE36E15 BLOCKHASH OR SHL PUSH13 0xC960B71A7020D9F60077F6AF9 BALANCE 0xA8 0xBB CREATE2 SWAP1 0xDA MUL 0x23 0xDA 0xCF PUSH22 0xC7AFF652222313E28459528D920B65115C16C04F3EFC DUP3 0xAA 0xED 0xC9 PUSH28 0xE59F3F377C0D3FA264697066735822122021BD7399C88D6C43537956 0xBF 0xD5 CALLDATALOAD 0xD6 0xEA LOG2 SWAP15 0xC2 CALLER SMOD PUSH27 0xA20BE66B4B3ABDD64E0164736F6C634300081C0033000000000000 "
        },
        "methodIdentifiers": {
          "ai()": "68be1b1e",
          "betMarket()": "cfe152c0",
          "bets(uint256)": "22af00fa",
          "callbackResolve(bytes32)": "288d29dc",
          "callbackResolveError(bytes32)": "fa2b9443",
          "configure(address,address,string,string,string,string)": "30a9056f",
          "feePerByteReq()": "daf81269",
          "feePerByteRes()": "31a9b104",
          "modelName()": "a81675c7",
          "nodeName()": "a6edb342",
          "owner()": "8da5cb5b",
          "renounceOwnership()": "715018a6",
          "requestToBet(bytes32)": "c8b894a3",
          "resolutionGasLimit()": "32165346",
          "resolve(uint256,string,bytes4)": "7bf13d4d",
          "restartSession()": "795769e5",
          "sessionId()": "9648c9f4",
          "setFees(uint256,uint256,uint256,uint256)": "6fcba377",
          "systemPrompt1()": "84cc5c26",
          "systemPrompt2()": "6a924cbd",
          "totalFeePerRes()": "9d648d67",
          "transferOwnership(address)": "f2fde38b"
        }
      }
    }
  }
}