{
  "@deeptrust/contracts/dtn-defaults.sol": {
    "DtnDefaults": {
      "abi": [
        {
          "inputs": [],
          "name": "ROUTING_SYSTEM_VALIDATED_ANY_CONSTANT",
          "outputs": [
            {
              "internalType": "uint256",
              "name": "",
              "type": "uint256"
            }
          ],
          "stateMutability": "view",
          "type": "function"
        }
      ],
      "evm": {
        "bytecode": {
          "linkReferences": {},
          "object": "6080806040523460175760759081601d823930815050f35b600080fdfe6080806040526004361015601257600080fd5b60003560e01c63dd26fb4514602657600080fd5b6000366003190112603a5780600160209252f35b600080fdfea26469706673582212207751720dd4284b28cd580cf00fe93833ab2110834140714f0d713a67557a809264736f6c634300081c0033",
          "opcodes": "PUSH1 0x80 DUP1 PUSH1 0x40 MSTORE CALLVALUE PUSH1 0x17 JUMPI PUSH1 0x75 SWAP1 DUP2 PUSH1 0x1D DUP3 CODECOPY ADDRESS DUP2 POP POP RETURN JUMPDEST PUSH1 0x0 DUP1 REVERT INVALID PUSH1 0x80 DUP1 PUSH1 0x40 MSTORE PUSH1 0x4 CALLDATASIZE LT ISZERO PUSH1 0x12 JUMPI PUSH1 0x0 DUP1 REVERT JUMPDEST PUSH1 0x0 CALLDATALOAD PUSH1 0xE0 SHR PUSH4 0xDD26FB45 EQ PUSH1 0x26 JUMPI PUSH1 0x0 DUP1 REVERT JUMPDEST PUSH1 0x0 CALLDATASIZE PUSH1 0x3 NOT ADD SLT PUSH1 0x3A JUMPI DUP1 PUSH1 0x1 PUSH1 0x20 SWAP3 MSTORE RETURN JUMPDEST PUSH1 0x0 DUP1 REVERT INVALID LOG2 PUSH5 0x6970667358 0x22 SLT KECCAK256 PUSH24 0x51720DD4284B28CD580CF00FE93833AB2110834140714F0D PUSH18 0x3A67557A809264736F6C634300081C003300 "
        },
        "methodIdentifiers": {
          "ROUTING_SYSTEM_VALIDATED_ANY_CONSTANT()": "dd26fb45"
        }
      }
    }
  }
}