{
  "_format": "hh-sol-artifact-1",
  "contractName": "BetMarket",
  "sourceName": "contracts/BetMarket.sol",
  "abi": [
    {
      "inputs": [
        {
          "internalType": "address",
          "name": "owner",
          "type": "address"
        }
      ],
      "stateMutability": "nonpayable",
      "type": "constructor"
    },
    {
      "inputs": [
        {
          "internalType": "address",
          "name": "owner",
          "type": "address"
        }
      ],
      "name": "OwnableInvalidOwner",
      "type": "error"
    },
    {
      "inputs": [
        {
          "internalType": "address",
          "name": "account",
          "type": "address"
        }
      ],
      "name": "OwnableUnauthorizedAccount",
      "type": "error"
    },
    {
      "inputs": [
        {
          "internalType": "uint256",
          "name": "x",
          "type": "uint256"
        },
        {
          "internalType": "uint256",
          "name": "y",
          "type": "uint256"
        }
      ],
      "name": "PRBMath_MulDiv18_Overflow",
      "type": "error"
    },
    {
      "inputs": [
        {
          "internalType": "uint256",
          "name": "x",
          "type": "uint256"
        },
        {
          "internalType": "uint256",
          "name": "y",
          "type": "uint256"
        },
        {
          "internalType": "uint256",
          "name": "denominator",
          "type": "uint256"
        }
      ],
      "name": "PRBMath_MulDiv_Overflow",
      "type": "error"
    },
    {
      "inputs": [],
      "name": "PRBMath_SD59x18_Div_InputTooSmall",
      "type": "error"
    },
    {
      "inputs": [
        {
          "internalType": "SD59x18",
          "name": "x",
          "type": "int256"
        },
        {
          "internalType": "SD59x18",
          "name": "y",
          "type": "int256"
        }
      ],
      "name": "PRBMath_SD59x18_Div_Overflow",
      "type": "error"
    },
    {
      "inputs": [
        {
          "internalType": "SD59x18",
          "name": "x",
          "type": "int256"
        }
      ],
      "name": "PRBMath_SD59x18_Exp2_InputTooBig",
      "type": "error"
    },
    {
      "inputs": [
        {
          "internalType": "SD59x18",
          "name": "x",
          "type": "int256"
        }
      ],
      "name": "PRBMath_SD59x18_Exp_InputTooBig",
      "type": "error"
    },
    {
      "inputs": [
        {
          "internalType": "SD59x18",
          "name": "x",
          "type": "int256"
        }
      ],
      "name": "PRBMath_SD59x18_Log_InputTooSmall",
      "type": "error"
    },
    {
      "inputs": [],
      "name": "PRBMath_SD59x18_Mul_InputTooSmall",
      "type": "error"
    },
    {
      "inputs": [
        {
          "internalType": "SD59x18",
          "name": "x",
          "type": "int256"
        },
        {
          "internalType": "SD59x18",
          "name": "y",
          "type": "int256"
        }
      ],
      "name": "PRBMath_SD59x18_Mul_Overflow",
      "type": "error"
    },
    {
      "inputs": [
        {
          "internalType": "address",
          "name": "token",
          "type": "address"
        }
      ],
      "name": "SafeERC20FailedOperation",
      "type": "error"
    },
    {
      "anonymous": false,
      "inputs": [
        {
          "indexed": true,
          "internalType": "uint256",
          "name": "poolId",
          "type": "uint256"
        },
        {
          "indexed": true,
          "internalType": "address",
          "name": "creator",
          "type": "address"
        },
        {
          "indexed": false,
          "internalType": "string",
          "name": "title",
          "type": "string"
        },
        {
          "indexed": false,
          "internalType": "uint256",
          "name": "initialLiquidity",
          "type": "uint256"
        },
        {
          "indexed": false,
          "internalType": "uint256",
          "name": "closingTime",
          "type": "uint256"
        }
      ],
      "name": "BetCreated",
      "type": "event"
    },
    {
      "anonymous": false,
      "inputs": [
        {
          "indexed": true,
          "internalType": "address",
          "name": "recipient",
          "type": "address"
        },
        {
          "indexed": false,
          "internalType": "uint256",
          "name": "amount",
          "type": "uint256"
        }
      ],
      "name": "FeesWithdrawn",
      "type": "event"
    },
    {
      "anonymous": false,
      "inputs": [
        {
          "indexed": true,
          "internalType": "address",
          "name": "previousOwner",
          "type": "address"
        },
        {
          "indexed": true,
          "internalType": "address",
          "name": "newOwner",
          "type": "address"
        }
      ],
      "name": "OwnershipTransferred",
      "type": "event"
    },
    {
      "anonymous": false,
      "inputs": [
        {
          "indexed": true,
          "internalType": "uint256",
          "name": "poolId",
          "type": "uint256"
        },
        {
          "indexed": false,
          "internalType": "enum BetMarket.Resolution",
          "name": "outcome",
          "type": "uint8"
        }
      ],
      "name": "PoolResolved",
      "type": "event"
    },
    {
      "anonymous": false,
      "inputs": [
        {
          "indexed": true,
          "internalType": "uint256",
          "name": "poolId",
          "type": "uint256"
        }
      ],
      "name": "PoolResolving",
      "type": "event"
    },
    {
      "anonymous": false,
      "inputs": [
        {
          "indexed": true,
          "internalType": "uint256",
          "name": "poolId",
          "type": "uint256"
        },
        {
          "indexed": true,
          "internalType": "address",
          "name": "trader",
          "type": "address"
        },
        {
          "indexed": false,
          "internalType": "bool",
          "name": "isBuy",
          "type": "bool"
        },
        {
          "indexed": false,
          "internalType": "bool",
          "name": "isYes",
          "type": "bool"
        },
        {
          "indexed": false,
          "internalType": "uint256",
          "name": "tokenAmount",
          "type": "uint256"
        },
        {
          "indexed": false,
          "internalType": "uint256",
          "name": "collateralAmount",
          "type": "uint256"
        }
      ],
      "name": "Trade",
      "type": "event"
    },
    {
      "anonymous": false,
      "inputs": [
        {
          "indexed": true,
          "internalType": "uint256",
          "name": "poolId",
          "type": "uint256"
        },
        {
          "indexed": true,
          "internalType": "address",
          "name": "user",
          "type": "address"
        },
        {
          "indexed": false,
          "internalType": "uint256",
          "name": "amount",
          "type": "uint256"
        }
      ],
      "name": "Withdrawn",
      "type": "event"
    },
    {
      "inputs": [],
      "name": "REFERRER_FEE_BPS",
      "outputs": [
        {
          "internalType": "uint256",
          "name": "",
          "type": "uint256"
        }
      ],
      "stateMutability": "view",
      "type": "function"
    },
    {
      "inputs": [],
      "name": "TOTAL_FEE_BPS",
      "outputs": [
        {
          "internalType": "uint256",
          "name": "",
          "type": "uint256"
        }
      ],
      "stateMutability": "view",
      "type": "function"
    },
    {
      "inputs": [
        {
          "internalType": "uint256",
          "name": "",
          "type": "uint256"
        }
      ],
      "name": "betIds",
      "outputs": [
        {
          "internalType": "uint256",
          "name": "",
          "type": "uint256"
        }
      ],
      "stateMutability": "view",
      "type": "function"
    },
    {
      "inputs": [],
      "name": "betIdsLength",
      "outputs": [
        {
          "internalType": "uint256",
          "name": "",
          "type": "uint256"
        }
      ],
      "stateMutability": "view",
      "type": "function"
    },
    {
      "inputs": [
        {
          "internalType": "uint256",
          "name": "poolId",
          "type": "uint256"
        },
        {
          "internalType": "uint256",
          "name": "amount",
          "type": "uint256"
        },
        {
          "internalType": "address",
          "name": "referrer",
          "type": "address"
        }
      ],
      "name": "buyNo",
      "outputs": [],
      "stateMutability": "nonpayable",
      "type": "function"
    },
    {
      "inputs": [
        {
          "internalType": "uint256",
          "name": "poolId",
          "type": "uint256"
        },
        {
          "internalType": "uint256",
          "name": "amount",
          "type": "uint256"
        },
        {
          "internalType": "address",
          "name": "referrer",
          "type": "address"
        }
      ],
      "name": "buyYes",
      "outputs": [],
      "stateMutability": "nonpayable",
      "type": "function"
    },
    {
      "inputs": [],
      "name": "collateralToken",
      "outputs": [
        {
          "internalType": "contract IERC20",
          "name": "",
          "type": "address"
        }
      ],
      "stateMutability": "view",
      "type": "function"
    },
    {
      "inputs": [
        {
          "internalType": "address",
          "name": "_collateralToken",
          "type": "address"
        },
        {
          "internalType": "address",
          "name": "_dtnResolver",
          "type": "address"
        },
        {
          "internalType": "address",
          "name": "_reserveAddress",
          "type": "address"
        }
      ],
      "name": "configure",
      "outputs": [],
      "stateMutability": "nonpayable",
      "type": "function"
    },
    {
      "inputs": [
        {
          "internalType": "uint256",
          "name": "poolId",
          "type": "uint256"
        },
        {
          "internalType": "uint256",
          "name": "amount",
          "type": "uint256"
        }
      ],
      "name": "costToBuyNo",
      "outputs": [
        {
          "internalType": "uint256",
          "name": "",
          "type": "uint256"
        }
      ],
      "stateMutability": "view",
      "type": "function"
    },
    {
      "inputs": [
        {
          "internalType": "uint256",
          "name": "poolId",
          "type": "uint256"
        },
        {
          "internalType": "uint256",
          "name": "amount",
          "type": "uint256"
        }
      ],
      "name": "costToBuyYes",
      "outputs": [
        {
          "internalType": "uint256",
          "name": "",
          "type": "uint256"
        }
      ],
      "stateMutability": "view",
      "type": "function"
    },
    {
      "inputs": [
        {
          "internalType": "string",
          "name": "_title",
          "type": "string"
        },
        {
          "internalType": "string",
          "name": "_resolutionPrompt",
          "type": "string"
        },
        {
          "internalType": "uint256",
          "name": "_initialLiquidity",
          "type": "uint256"
        },
        {
          "internalType": "uint256",
          "name": "_closingTime",
          "type": "uint256"
        },
        {
          "internalType": "uint256",
          "name": "_resolutionTime",
          "type": "uint256"
        },
        {
          "internalType": "string",
          "name": "_discussionUrl",
          "type": "string"
        },
        {
          "internalType": "string",
          "name": "_tags",
          "type": "string"
        },
        {
          "internalType": "string",
          "name": "_logoUrl",
          "type": "string"
        }
      ],
      "name": "createBet",
      "outputs": [],
      "stateMutability": "nonpayable",
      "type": "function"
    },
    {
      "inputs": [],
      "name": "dtnResolver",
      "outputs": [
        {
          "internalType": "contract IBetResolver",
          "name": "",
          "type": "address"
        }
      ],
      "stateMutability": "view",
      "type": "function"
    },
    {
      "inputs": [
        {
          "internalType": "uint256[]",
          "name": "_betIds",
          "type": "uint256[]"
        }
      ],
      "name": "getBetSummaries",
      "outputs": [
        {
          "internalType": "uint256[]",
          "name": "_yesSupply",
          "type": "uint256[]"
        },
        {
          "internalType": "uint256[]",
          "name": "_noSupply",
          "type": "uint256[]"
        },
        {
          "internalType": "uint256[]",
          "name": "_collaterals",
          "type": "uint256[]"
        },
        {
          "internalType": "uint8[]",
          "name": "_resolutions",
          "type": "uint8[]"
        }
      ],
      "stateMutability": "view",
      "type": "function"
    },
    {
      "inputs": [
        {
          "internalType": "uint256",
          "name": "",
          "type": "uint256"
        },
        {
          "internalType": "address",
          "name": "",
          "type": "address"
        }
      ],
      "name": "isBlockedFromTrading",
      "outputs": [
        {
          "internalType": "bool",
          "name": "",
          "type": "bool"
        }
      ],
      "stateMutability": "view",
      "type": "function"
    },
    {
      "inputs": [
        {
          "internalType": "uint256",
          "name": "",
          "type": "uint256"
        },
        {
          "internalType": "address",
          "name": "",
          "type": "address"
        }
      ],
      "name": "noBalances",
      "outputs": [
        {
          "internalType": "uint256",
          "name": "",
          "type": "uint256"
        }
      ],
      "stateMutability": "view",
      "type": "function"
    },
    {
      "inputs": [
        {
          "internalType": "uint256",
          "name": "poolId",
          "type": "uint256"
        },
        {
          "internalType": "enum IBetResolver.Outcome",
          "name": "outcome",
          "type": "uint8"
        }
      ],
      "name": "onPoolResolve",
      "outputs": [],
      "stateMutability": "nonpayable",
      "type": "function"
    },
    {
      "inputs": [],
      "name": "owner",
      "outputs": [
        {
          "internalType": "address",
          "name": "",
          "type": "address"
        }
      ],
      "stateMutability": "view",
      "type": "function"
    },
    {
      "inputs": [
        {
          "internalType": "uint256",
          "name": "",
          "type": "uint256"
        }
      ],
      "name": "pools",
      "outputs": [
        {
          "internalType": "uint256",
          "name": "id",
          "type": "uint256"
        },
        {
          "internalType": "address",
          "name": "creator",
          "type": "address"
        },
        {
          "internalType": "uint256",
          "name": "closingTime",
          "type": "uint256"
        },
        {
          "internalType": "uint256",
          "name": "resolutionTime",
          "type": "uint256"
        },
        {
          "internalType": "SD59x18",
          "name": "b",
          "type": "int256"
        },
        {
          "internalType": "SD59x18",
          "name": "nYes",
          "type": "int256"
        },
        {
          "internalType": "SD59x18",
          "name": "nNo",
          "type": "int256"
        },
        {
          "internalType": "uint256",
          "name": "totalSupplyYes",
          "type": "uint256"
        },
        {
          "internalType": "uint256",
          "name": "totalSupplyNo",
          "type": "uint256"
        },
        {
          "internalType": "uint256",
          "name": "collateral",
          "type": "uint256"
        },
        {
          "internalType": "enum BetMarket.Resolution",
          "name": "resolution",
          "type": "uint8"
        },
        {
          "internalType": "string",
          "name": "title",
          "type": "string"
        },
        {
          "internalType": "string",
          "name": "resolutionPrompt",
          "type": "string"
        },
        {
          "internalType": "string",
          "name": "discussionUrl",
          "type": "string"
        },
        {
          "internalType": "string",
          "name": "tags",
          "type": "string"
        },
        {
          "internalType": "string",
          "name": "logoUrl",
          "type": "string"
        }
      ],
      "stateMutability": "view",
      "type": "function"
    },
    {
      "inputs": [],
      "name": "renounceOwnership",
      "outputs": [],
      "stateMutability": "nonpayable",
      "type": "function"
    },
    {
      "inputs": [],
      "name": "reserveAddress",
      "outputs": [
        {
          "internalType": "address",
          "name": "",
          "type": "address"
        }
      ],
      "stateMutability": "view",
      "type": "function"
    },
    {
      "inputs": [
        {
          "internalType": "uint256",
          "name": "poolId",
          "type": "uint256"
        }
      ],
      "name": "resolve",
      "outputs": [],
      "stateMutability": "payable",
      "type": "function"
    },
    {
      "inputs": [
        {
          "internalType": "uint256",
          "name": "poolId",
          "type": "uint256"
        },
        {
          "internalType": "uint256",
          "name": "amount",
          "type": "uint256"
        }
      ],
      "name": "revenueFromSellNo",
      "outputs": [
        {
          "internalType": "uint256",
          "name": "",
          "type": "uint256"
        }
      ],
      "stateMutability": "view",
      "type": "function"
    },
    {
      "inputs": [
        {
          "internalType": "uint256",
          "name": "poolId",
          "type": "uint256"
        },
        {
          "internalType": "uint256",
          "name": "amount",
          "type": "uint256"
        }
      ],
      "name": "revenueFromSellYes",
      "outputs": [
        {
          "internalType": "uint256",
          "name": "",
          "type": "uint256"
        }
      ],
      "stateMutability": "view",
      "type": "function"
    },
    {
      "inputs": [
        {
          "internalType": "uint256",
          "name": "poolId",
          "type": "uint256"
        },
        {
          "internalType": "uint256",
          "name": "amount",
          "type": "uint256"
        },
        {
          "internalType": "address",
          "name": "referrer",
          "type": "address"
        }
      ],
      "name": "sellNo",
      "outputs": [],
      "stateMutability": "nonpayable",
      "type": "function"
    },
    {
      "inputs": [
        {
          "internalType": "uint256",
          "name": "poolId",
          "type": "uint256"
        },
        {
          "internalType": "uint256",
          "name": "amount",
          "type": "uint256"
        },
        {
          "internalType": "address",
          "name": "referrer",
          "type": "address"
        }
      ],
      "name": "sellYes",
      "outputs": [],
      "stateMutability": "nonpayable",
      "type": "function"
    },
    {
      "inputs": [
        {
          "internalType": "address",
          "name": "newOwner",
          "type": "address"
        }
      ],
      "name": "transferOwnership",
      "outputs": [],
      "stateMutability": "nonpayable",
      "type": "function"
    },
    {
      "inputs": [
        {
          "internalType": "uint256",
          "name": "poolId",
          "type": "uint256"
        }
      ],
      "name": "withdraw",
      "outputs": [],
      "stateMutability": "nonpayable",
      "type": "function"
    },
    {
      "inputs": [],
      "name": "withdrawFees",
      "outputs": [],
      "stateMutability": "nonpayable",
      "type": "function"
    },
    {
      "inputs": [
        {
          "internalType": "uint256",
          "name": "poolId",
          "type": "uint256"
        },
        {
          "internalType": "address",
          "name": "user",
          "type": "address"
        }
      ],
      "name": "withdrawableAmount",
      "outputs": [
        {
          "internalType": "uint256",
          "name": "",
          "type": "uint256"
        }
      ],
      "stateMutability": "view",
      "type": "function"
    },
    {
      "inputs": [
        {
          "internalType": "address",
          "name": "",
          "type": "address"
        }
      ],
      "name": "withdrawableFees",
      "outputs": [
        {
          "internalType": "uint256",
          "name": "",
          "type": "uint256"
        }
      ],
      "stateMutability": "view",
      "type": "function"
    },
    {
      "inputs": [
        {
          "internalType": "uint256",
          "name": "",
          "type": "uint256"
        },
        {
          "internalType": "address",
          "name": "",
          "type": "address"
        }
      ],
      "name": "yesBalances",
      "outputs": [
        {
          "internalType": "uint256",
          "name": "",
          "type": "uint256"
        }
      ],
      "stateMutability": "view",
      "type": "function"
    }
  ],
  "bytecode": "0x60803460bc57601f6138ce38819003918201601f19168301916001600160401b0383118484101760c15780849260209460405283398101031260bc57516001600160a01b0381169081900360bc57801560a657600080546001600160a01b031981168317825560405192916001600160a01b03909116907f8be0079c531659141344cd1fd0a4f28419497f9722a3daafe3b4186f6b6457e09080a36137f690816100d88239f35b631e4fbdf760e01b600052600060045260246000fd5b600080fd5b634e487b7160e01b600052604160045260246000fdfe60a0604052600436101561001257600080fd5b6000803560e01c80631117380714611e64578063228f07a614611e4a5780632e1a7d4d14611d7157806342f24ed214611d50578063476343ee14611c9b5780634a2d5b9414611b245780634f896d4f1461196457806350a87b3b1461191d57806355d28f201461188d5780636f28507c14611871578063715018a6146118175780637831a74f146117f05780637ed708cb146116be57806386c68f11146116a05780638a00de091461166c5780638da5cb5b14611645578063974f74d114611623578063a1d5fec114610b76578063ac4afa38146109f2578063b2016bd4146109c9578063b991c37e146107fe578063ba624d0e146107c4578063bb484ac2146107a8578063be48906014610761578063c82cfeb414610738578063cce3866e14610582578063e2c9f66e14610430578063f0c6a48e1461025c578063f2fde38b146101d6578063f79ed94b146101ad5763fd8749951461017257600080fd5b346101aa5760203660031901126101aa576020906040906001600160a01b03610199611ec8565b168152600483522054604051908152f35b80fd5b50346101aa57806003193601126101aa576003546040516001600160a01b039091168152602090f35b50346101aa5760203660031901126101aa576101f0611ec8565b6101f8612723565b6001600160a01b031680156102485781546001600160a01b03198116821783556001600160a01b03167f8be0079c531659141344cd1fd0a4f28419497f9722a3daafe3b4186f6b6457e08380a380f35b631e4fbdf760e01b82526004829052602482fd5b50346101aa5760203660031901126101aa576004356001600160401b03811161042c573660238201121561042c578060040135906102998261211b565b916102a76040519384611f1e565b8083526024602084019160051b8301019136831161042857602401905b82821061041857505050516102d88161255c565b906102e28161255c565b926102ec8261255c565b6102f58361211b565b946103036040519687611f1e565b83865261030f8461211b565b602087019490601f1901368637835b8181106103a05750506103646103499692610356602093604051998a9960808b5260808b0190612132565b90898203868b0152612132565b908782036040890152612132565b91858303606087015251918281520192915b818110610384575050500390f35b825160ff16845285945060209384019390920191600101610376565b806103b0600192999798996120ea565b90549060031b1c8652600660205260ff600a604088208b6103d68560078401549261258e565b5260088101546103e6858961258e565b5260098101546103f6858a61258e565b5201541661040381612089565b61040d828961258e565b52019695949661031e565b81358152602091820191016102c4565b8480fd5b5080fd5b50346101aa5761043f36611ef4565b8284939293526006602052604084206104583382612a78565b6104638415156126e2565b61046d848461298a565b91601483028381046014148415171561056e57612710900461048f81856122b8565b926009810161049f8682546122b8565b9055620f424087046005820180548a838201938412911290801582169115161761055a579260076105229361053796936000805160206137a183398151915299989655016104ee8a82546122b8565b9055878a52600760205260408a2060018060a01b033316600052602052604060002061051b8a82546122b8565b9055612b87565b600154309033906001600160a01b031661274c565b60408051600180825260208201529081019490945260608401523392608090a380f35b634e487b7160e01b8a52601160045260248afd5b634e487b7160e01b87526011600452602487fd5b50346101aa5761059136611ef4565b8284526006602052604084209192916105aa3382612a78565b6105b58415156126e2565b6105bf8484612a28565b91601483028381046014148415171561056e5761271090046105e181856122b8565b92600981016105f18682546122b8565b9055620f4240870488156106a5576005820180548a838201938412911290801582169115161761055a579361067693600761069f9794610522946000805160206137a18339815191529a9855016106498b82546122b8565b9055888b52600760205260408b2060018060a01b033316600052602052604060002061051b8b82546122b8565b604051918291339688846060919493926080820195600183521515602083015260408201520152565b0390a380f35b60068293969495920194855460008382019384129112908015821691151617610722576000805160206137a1833981519152966008610676956105229461069f9955016106f38b82546122b8565b9055886000526008602052604060002060018060a01b033316600052602052604060002061051b8b82546122b8565b634e487b7160e01b600052601160045260246000fd5b50346101aa57806003193601126101aa576002546040516001600160a01b039091168152602090f35b50346101aa5760403660031901126101aa57604061077d611ead565b9160043581526008602052209060018060a01b03166000526020526020604060002054604051908152f35b50346101aa57806003193601126101aa576020604051600a8152f35b50346101aa5760203660031901126101aa5760043590600a548210156101aa5760206107ef836120ea565b90549060031b1c604051908152f35b50346101aa5761080d36611ef4565b828493929352600660205260408420906108273383612a78565b6108328415156126e2565b828552600760209081526040808720336000908152925290205484116109845761085c84846124de565b90601482028281046014148315171561056e576126fc900461087e81846122b8565b93841561094757600981016108948682546121af565b9055620f424087046005820180548a838203931281841281169184139015161761055a579260076109109361092396936000805160206137a183398151915299989655016108e38a82546121af565b9055878a52600760205260408a2060018060a01b033316600052602052604060002061051b8a82546121af565b60015433906001600160a01b03166126a2565b6040805160008152600160208201529081019490945260608401523392608090a380f35b60405162461bcd60e51b8152602060048201526015602482015274526566756e642063616e6e6f74206265207a65726f60581b6044820152606490fd5b60405162461bcd60e51b815260206004820152601860248201527f496e73756666696369656e74205945532062616c616e636500000000000000006044820152606490fd5b50346101aa57806003193601126101aa576001546040516001600160a01b039091168152602090f35b50346101aa5760203660031901126101aa57600435815260066020526040902080549080600160a01b6001900360018201541660028201546003830154600484015460058501546006860154600787015490600888015492600989015494600a8a015460ff1696600b8b01610a6690611fe5565b98610a73600c8d01611fe5565b9a610a80600d8e01611fe5565b9c600e01610a8d90611fe5565b9d600f01610a9a90611fe5565b9e604051608052608051526080516020015260805160400152608051606001526080516080015260805160a0015260805160c0015260805160e0015260805161010001526080516101200152610aef81612089565b608051610140015260805161016001610200905260805161020001610b13916120a9565b60805181036080516101800152610b29916120a9565b60805181036080516101a00152610b3f916120a9565b60805181036080516101c00152610b55916120a9565b9060805182036080516101e0015260805191610b70916120a9565b03608051f35b50346101aa576101003660031901126101aa576004356001600160401b03811161042c57610ba8903690600401611f55565b6024356001600160401b03811161161f57610bc7903690600401611f55565b906084359160a4356001600160401b03811161042857610beb903690600401611f55565b60c4356001600160401b03811161161b57610c0a903690600401611f55565b9360e4356001600160401b03811161161757610c2a903690600401611f55565b604435156115d25742606435111561158257606435821061153e576108008451116114f9576005549560001987146114e5576001870160055560443560011b60443581046002036114d1576064900493610c95610c89866044356122b8565b60011c956044356122b8565b60011c956040519461020086018681106001600160401b038211176114bd5760405260018a018652336020870152606435604087015260608601526044356080860152620f4240860460a0860152620f4240870460c08601528560e08601528661010086015260443561012086015289610140860152876101608601526101808501526101a08401526101c08301526101e0820152600185018652600660205260408620815181556001810160018060a01b036020840151166001600160601b0360a01b82541617905560408201516002820155606082015160038201556080820151600482015560a0820151600582015560c0820151600682015560e0820151600782015561010082015160088201556101208201516009820155600a8101610140830151610dc481612089565b610dcd81612089565b60ff801983541691161790556101608201518051906001600160401b0382116113e5578190610dff600b850154611fab565b601f811161146d575b50602090601f8311600114611404578a926113f9575b50508160011b916000199060031b1c191617600b8201555b6101808201518051906001600160401b0382116113e5578190610e5c600c850154611fab565b601f8111611392575b50602090601f8311600114611329578a9261131e575b50508160011b916000199060031b1c191617600c8201555b600d81016101a08301518051906001600160401b03821161124c578190610eba8454611fab565b601f81116112ce575b50602090601f831160011461126b578b92611260575b50508160011b916000199060031b1c19161790555b600e81016101c08301518051906001600160401b03821161124c57610f138354611fab565b601f8111611207575b50602090601f831160011461119d579180600f94926101e096948d92611192575b50508160011b916000199060031b1c19161790555b019101518051906001600160401b03821161117e578190610f738454611fab565b601f811161112e575b50602090601f83116001146110cb5789926110c0575b50508160011b916000199060031b1c19161790555b6001848101808752600960209081526040808920336000818152918452828220805460ff1916909617909555838a5260078352818a208582528352818120959095559188526008815281882092845291909152902055600a54680100000000000000008110156110ac578060016110219201600a556120ea565b815460001960039290921b91821b1916600185810190921b17909155546110589060443590309033906001600160a01b031661274c565b7f0c06e0bf49f5d31fc398a077db97270a76e6b0d9a883ab354de578f6c89270a761108e604051926060845260608401906120a9565b9160443560208201526064356040820152806001339501930390a380f35b634e487b7160e01b84526041600452602484fd5b015190503880610f92565b848a52818a209250601f1984168a5b81811061111657509084600195949392106110fd575b505050811b019055610fa7565b015160001960f88460031b161c191690553880806110f0565b929360206001819287860151815501950193016110da565b90915083895260208920601f840160051c81019160208510611174575b90601f859493920160051c01905b8181106111665750610f7c565b8a8155849350600101611159565b909150819061114b565b634e487b7160e01b88526041600452602488fd5b015190503880610f3d565b838b52818b209190601f1984168c5b8181106111ef57509260019285926101e09896600f9896106111d6575b505050811b019055610f52565b015160001960f88460031b161c191690553880806111c9565b929360206001819287860151815501950193016111ac565b838b5260208b20601f840160051c81019160208510611242575b601f0160051c01905b8181106112375750610f1c565b8b815560010161122a565b9091508190611221565b634e487b7160e01b8a52604160045260248afd5b015190503880610ed9565b848c52818c209250601f1984168c5b8181106112b6575090846001959493921061129d575b505050811b019055610eee565b015160001960f88460031b161c19169055388080611290565b9293602060018192878601518155019501930161127a565b909150838b5260208b20601f840160051c81019160208510611314575b90601f859493920160051c01905b8181106113065750610ec3565b8c81558493506001016112f9565b90915081906112eb565b015190503880610e7b565b600c85018b52818b209250601f1984168b5b81811061137a5750908460019594939210611361575b505050811b01600c820155610e93565b015160001960f88460031b161c19169055388080611351565b9293602060018192878601518155019501930161133b565b909150600c84018a5260208a20601f840160051c810191602085106113db575b90601f859493920160051c01905b8181106113cd5750610e65565b8b81558493506001016113c0565b90915081906113b2565b634e487b7160e01b89526041600452602489fd5b015190503880610e1e565b600b85018b52818b209250601f1984168b5b818110611455575090846001959493921061143c575b505050811b01600b820155610e36565b015160001960f88460031b161c1916905538808061142c565b92936020600181928786015181550195019301611416565b909150600b84018a5260208a20601f840160051c8101602085106114b6575b90849392915b601f830160051c820181106114a8575050610e08565b8c8155859450600101611492565b508061148c565b634e487b7160e01b8c52604160045260248cfd5b634e487b7160e01b89526011600452602489fd5b634e487b7160e01b88526011600452602488fd5b60405162461bcd60e51b815260206004820152601a60248201527f5265736f6c7574696f6e2070726f6d707420746f6f206c6f6e670000000000006044820152606490fd5b606460405162461bcd60e51b815260206004820152602060248201527f5265736f6c7574696f6e206d75737420626520616674657220636c6f73696e676044820152fd5b60405162461bcd60e51b815260206004820152602260248201527f436c6f73696e672074696d65206d75737420626520696e207468652066757475604482015261726560f01b6064820152608490fd5b60405162461bcd60e51b815260206004820152601d60248201527f496e697469616c206c6971756964697479206d757374206265203e20300000006044820152606490fd5b8680fd5b8580fd5b8280fd5b50346101aa57602061163d61163736611ede565b906124de565b604051908152f35b50346101aa57806003193601126101aa57546040516001600160a01b039091168152602090f35b50346101aa5761163d60209161271061168d61168736611ede565b90612a28565b9161169783612186565b905004906122b8565b50346101aa57806003193601126101aa576020600a54604051908152f35b50346101aa5760403660031901126101aa57600435602435600481101561161f576002546001600160a01b031633036117ab57602060ff7f3c3a67175a1c5129745432bb986e789f21683b1114f335db0389ecae9fc669869284865260068352600a60408720611730815415156122c5565b019081549061174a84831661174481612089565b15612307565b61175381612089565b6001810361177d575050600182198254161781555b54166040519061177781612089565b8152a280f35b60029061178981612089565b0361179e575060028219825416178155611768565b8219166003178155611768565b60405162461bcd60e51b815260206004820152601860248201527f43616c6c6572206973206e6f7420746865206f7261636c6500000000000000006044820152606490fd5b50346101aa5760403660031901126101aa57602061163d61180f611ead565b60043561234b565b50346101aa57806003193601126101aa57611830612723565b80546001600160a01b03198116825581906001600160a01b03167f8be0079c531659141344cd1fd0a4f28419497f9722a3daafe3b4186f6b6457e08280a380f35b50346101aa57806003193601126101aa57602060405160148152f35b50346101aa5760603660031901126101aa576118a7611ec8565b6118af611ead565b6044356001600160a01b0381169290839003611919576118cd612723565b60018060a01b03166001600160601b0360a01b600154161760015560018060a01b03166001600160601b0360a01b60025416176002556001600160601b0360a01b600354161760035580f35b8380fd5b50346101aa5760403660031901126101aa576040611939611ead565b9160043581526007602052209060018060a01b03166000526020526020604060002054604051908152f35b5060203660031901126101aa5760043580825260066020526040822061198c815415156122c5565b6003810154421115611adf57806119ae60ff600a869401541661174481612089565b600254600c91909101906001600160a01b0316803b1561161f5760405191637bf13d4d60e01b83528460048401526060602484015283908054906119f182611fab565b918260648701528686600183169283600014611ab957505050600114611a80575b5050839183808093637ed708cb60e01b6044830152039134905af18015611a7557611a60575b50807fa021fe3d475b6e003ef1b4cbc9fcf4e069d1df9fcf4bc0da5ebba0f9db7ec15e91a280f35b81611a6a91611f1e565b61042c578138611a38565b6040513d84823e3d90fd5b8552602085208592505b818310611a9f57505082016084018183611a12565b805460848685010152879550602090920191600101611a8a565b60ff191660848083019190915294151560051b8101909401945085939250611a12915050565b60405162461bcd60e51b815260206004820152601760248201527f4e6f7420796574207265736f6c7574696f6e2074696d650000000000000000006044820152606490fd5b50346101aa57611b3336611ef4565b82845260066020526040842093919291611b4d3386612a78565b611b588415156126e2565b8281526008602090815260408083203384529091528120548411611c565750611b8183836121bc565b6014810281810460141482151715610722576126fc900491611ba383836122b8565b9283156109475760098701611bb98582546121af565b9055620f42408604966000976006820180548a838203931281841281169184139015161761055a5792600861091093611c3296936000805160206137a18339815191529998965501611c0c8a82546121af565b9055878a52600860209081526040808c20338d529091528a20805461051b908b906121af565b6040805186815286151560208201529081019490945260608401523392608090a380f35b60405162461bcd60e51b815260206004820152601760248201527f496e73756666696369656e74204e4f2062616c616e63650000000000000000006044820152606490fd5b50346101aa57806003193601126101aa57338152600460205260408120548015611d155733808352600460205260408320839055600154611ce69183916001600160a01b03166126a2565b6040519081527fc0819c13be868895eb93e40eaceb96de976442fa1d404e5c55f14bb65a8c489a60203392a280f35b60405162461bcd60e51b81526020600482015260136024820152724e6f206665657320746f20776974686472617760681b6044820152606490fd5b50346101aa5761163d60209161271061168d611d6b36611ede565b9061298a565b50346101aa5760203660031901126101aa57600435611d90338261234b565b908115611e0e5780835260076020908152604080852033808752908352818620869055838652600883528186208187529092528420849055600154611ddf9184916001600160a01b03166126a2565b6040519182527fcf7d23a3cbe4e8b36ff82fd1b05b1b17373dc7804b4ebbd6e2356716ef20237260203393a380f35b60405162461bcd60e51b81526020600482015260146024820152734e6f2066756e647320746f20776974686472617760601b6044820152606490fd5b50346101aa57602061163d611e5e36611ede565b906121bc565b50346101aa5760403660031901126101aa5760ff6040602092611e85611ead565b6004358252600985528282206001600160a01b03909116825284522054604051911615158152f35b602435906001600160a01b0382168203611ec357565b600080fd5b600435906001600160a01b0382168203611ec357565b6040906003190112611ec3576004359060243590565b6060906003190112611ec35760043590602435906044356001600160a01b0381168103611ec35790565b90601f801991011681019081106001600160401b03821117611f3f57604052565b634e487b7160e01b600052604160045260246000fd5b81601f82011215611ec3578035906001600160401b038211611f3f5760405192611f89601f8401601f191660200185611f1e565b82845260208383010111611ec357816000926020809301838601378301015290565b90600182811c92168015611fdb575b6020831014611fc557565b634e487b7160e01b600052602260045260246000fd5b91607f1691611fba565b9060405191826000825492611ff984611fab565b80845293600181169081156120675750600114612020575b5061201e92500383611f1e565b565b90506000929192526020600020906000915b81831061204b57505090602061201e9282010138612011565b6020919350806001915483858901015201910190918492612032565b90506020925061201e94915060ff191682840152151560051b82010138612011565b6004111561209357565b634e487b7160e01b600052602160045260246000fd5b919082519283825260005b8481106120d5575050826000602080949584010152601f8019910116010190565b806020809284010151828286010152016120b4565b600a5481101561210557600a60005260206000200190600090565b634e487b7160e01b600052603260045260246000fd5b6001600160401b038111611f3f5760051b60200190565b906020808351928381520192019060005b8181106121505750505090565b8251845260209384019390920191600101612143565b8115612170570490565b634e487b7160e01b600052601260045260246000fd5b9060148202918083046014149015171561072257565b8181029291811591840414171561072257565b9190820391821161072257565b6000526006602052620f42406040600020910460058201549060046006840154930154906122198261221461220f6121fc6121f78489612790565b612843565b6122096121f7858b612790565b9061289b565b6128b7565b6128ef565b93600082820392128183128116918313901516176107225761220f612214916122096121f78561224f6121f7826122559a612790565b93612790565b80820391600082128184128116908285139015161761072257601483029183830460141491141715610722576127109004808211156122b157612297916121af565b620f4240810290808204620f424014901517156107225790565b5050600090565b9190820180921161072257565b156122cc57565b60405162461bcd60e51b8152602060048201526013602482015272141bdbdb08191bd95cc81b9bdd08195e1a5cdd606a1b6044820152606490fd5b1561230e57565b60405162461bcd60e51b8152602060048201526015602482015274141bdbdb08185b1c9958591e481c995cdbdb1d9959605a1b6044820152606490fd5b80600052600660205260406000209060ff600a830154169061236c82612089565b60018214938480156124cb575b80156124b8575b1561247f57816000526007602052604060002060018060a01b03821660005260205260406000205491600052600860205260406000209060018060a01b0316600052602052604060002054916000946123d882612089565b1561241357509050600782015491826123f3575b5050505b90565b61240b935090600961240692015461219c565b612166565b3880806123ec565b60029061241f81612089565b036124365750600882015491826123f35750505090565b919061244b60078301546008840154906122b8565b9283612459575b5050505090565b612476945061246e61240693926009926122b8565b91015461219c565b38808080612452565b60405162461bcd60e51b8152602060048201526011602482015270141bdbdb081b9bdd081c995cdbdb1d9959607a1b6044820152606490fd5b506124c283612089565b60038314612380565b506124d583612089565b60028314612379565b6000526006602052620f42406040600020910460058201549160046006820154910154906125268261221461220f6125196121f7848a612790565b6122096121f78588612790565b93600084820394128185128116918513901516176107225761220f612214916122096121f78561224f6121f7826122559a612790565b906125668261211b565b6125736040519182611f1e565b8281528092612584601f199161211b565b0190602036910137565b80518210156121055760209160051b010190565b6121f78361224f6121f7826125b695612790565b9060008282019283129112908015821691151617610722576125d7906135bd565b670de0b6b3a7640000810290808205670de0b6b3a76400001490151715610722576714057b7ef767814f9005600160ff1b81148015612695575b61268457600081121561267b57612639816000035b6000841215612674578360000390613708565b916001600160ff1b03831161265c57600019911813156126565790565b60000390565b9063120b5b4360e01b60005260045260245260446000fd5b8390613708565b61263981612626565b63a6070c2560e01b60005260046000fd5b50600160ff1b8214612611565b60405163a9059cbb60e01b60208201526001600160a01b03909216602483015260448083019390935291815261201e916126dd606483611f1e565b612923565b156126e957565b60405162461bcd60e51b81526020600482015260126024820152710416d6f756e74206d757374206265203e20360741b6044820152606490fd5b6000546001600160a01b0316330361273757565b63118cdaa760e01b6000523360045260246000fd5b6040516323b872dd60e01b60208201526001600160a01b03928316602482015292909116604483015260648083019390935291815261201e916126dd608483611f1e565b600160ff1b8114801561281c575b61280b576000811215612802576127c6816000035b60008412156127fb578360000390612c2b565b916001600160ff1b0383116127e357600019911813156126565790565b9063d49c26b360e01b60005260045260245260446000fd5b8390612c2b565b6127c6816127b3565b6309fe2b4560e41b60005260046000fd5b50600160ff1b821461279e565b8015612170576ec097ce7bc90715b34b9f10000000000590565b68023f2fa8f6da5b9d3119811261289557680736ea4425c11ac630811361288157670de0b6b3a76400006714057b7ef767814f6123f0920205612ced565b63ca7ec0c560e01b60005260045260246000fd5b50600090565b9190916000838201938412911290801582169115161761072257565b6128c0906135bd565b670de0b6b3a7640000810290808205670de0b6b3a76400001490151715610722576714057b7ef767814f900590565b600160ff1b811480156126955761268457600081121561267b57612639816000036000841215612674578360000390613708565b906000602091828151910182855af11561297e576000513d61297557506001600160a01b0381163b155b6129545750565b635274afe760e01b60009081526001600160a01b0391909116600452602490fd5b6001141561294d565b6040513d6000823e3d90fd5b9190916000526006602052620f42406040600020920460058301549260046006820154910154906129bc8282876125a2565b92600095868282019283129112908015821691151617612a14576129e2939495506125a2565b81810391600081128284128116908385139015161761072257620f42408302928304620f424014911417156107225790565b634e487b7160e01b86526011600452602486fd5b6000526006602052620f4240604060002091046005820154906004600684015493015490612a578285856125a2565b9360008282019283129112908015821691151617610722576129e2926125a2565b805490612a868215156122c5565b60028101544211612b4d57600a015460ff16612aa181612089565b612b1557600052600960205260406000209060018060a01b031660005260205260ff60406000205416612ad057565b60405162461bcd60e51b815260206004820152601f60248201527f4164647265737320697320626c6f636b65642066726f6d2074726164696e67006044820152606490fd5b60405162461bcd60e51b815260206004820152601060248201526f141bdbdb081a5cc81c995cdbdb1d995960821b6044820152606490fd5b60405162461bcd60e51b8152602060048201526012602482015271151c98591a5b99c81a185cc818db1bdcd95960721b6044820152606490fd5b908115612c27576000906001600160a01b031680151580612c12575b612bd9575b50612bb2916121af565b60018060a01b03600354166000526004602052612bd560406000209182546122b8565b9055565b9050600a820291808304600a03610722576014612bb293049160005260046020526040600020612c0a8382546122b8565b905591612ba8565b506003546001600160a01b0316811415612ba3565b5050565b600019670de0b6b3a7640000820991670de0b6b3a7640000820291828085109403938085039414612ce15781841015612cbe57670de0b6b3a764000082910960018219018216809204600281600302188082026002030280820260020302808202600203028082026002030280820260020302809102600203029360018380600003040190848311900302920304170290565b630c740aef60e31b600052600452670de0b6b3a764000060245260445260646000fd5b50906123f09250612166565b6000811215612d1c5768033dd1780914b9711419811261289557612d1390600003612ced565b6123f090612829565b680a688906bd8affffff81136135aa57670de0b6b3a76400009060401b05600160bf1b67ff000000000000008216613481575b670de0b6b3a76400009066ff0000000000008316613371575b65ff00000000008316613269575b64ff000000008316613169575b63ff0000008316613071575b62ff00008316612f81575b61ff008316612e99575b60ff8316612db9575b029060401c60bf031c90565b60808316612e86575b60408316612e73575b60208316612e60575b60108316612e4d575b60088316612e3a575b60048316612e27575b60028316612e14575b6001831615612dad57680100000000000000010260401c612dad565b680100000000000000010260401c612df8565b680100000000000000030260401c612def565b680100000000000000060260401c612de6565b6801000000000000000b0260401c612ddd565b680100000000000000160260401c612dd4565b6801000000000000002c0260401c612dcb565b680100000000000000590260401c612dc2565b6180008316612f6e575b6140008316612f5b575b6120008316612f48575b6110008316612f35575b6108008316612f22575b6104008316612f0f575b6102008316612efc575b610100831615612da457680100000000000000b10260401c612da4565b680100000000000001630260401c612edf565b680100000000000002c60260401c612ed5565b6801000000000000058c0260401c612ecb565b68010000000000000b170260401c612ec1565b6801000000000000162e0260401c612eb7565b68010000000000002c5d0260401c612ead565b680100000000000058b90260401c612ea3565b62800000831661305e575b62400000831661304b575b622000008316613038575b621000008316613025575b620800008316613012575b620400008316612fff575b620200008316612fec575b62010000831615612d9a576801000000000000b1720260401c612d9a565b680100000000000162e40260401c612fce565b6801000000000002c5c80260401c612fc3565b68010000000000058b910260401c612fb8565b680100000000000b17210260401c612fad565b68010000000000162e430260401c612fa2565b680100000000002c5c860260401c612f97565b6801000000000058b90c0260401c612f8c565b63800000008316613156575b63400000008316613143575b63200000008316613130575b6310000000831661311d575b6308000000831661310a575b630400000083166130f7575b630200000083166130e4575b6301000000831615612d8f5768010000000000b172180260401c612d8f565b6801000000000162e4300260401c6130c5565b68010000000002c5c8600260401c6130b9565b680100000000058b90c00260401c6130ad565b6801000000000b17217f0260401c6130a1565b680100000000162e42ff0260401c613095565b6801000000002c5c85fe0260401c613089565b68010000000058b90bfc0260401c61307d565b6480000000008316613256575b6440000000008316613243575b6420000000008316613230575b641000000000831661321d575b640800000000831661320a575b64040000000083166131f7575b64020000000083166131e4575b640100000000831615612d8357680100000000b17217f80260401c612d83565b68010000000162e42ff10260401c6131c4565b680100000002c5c85fe30260401c6131b7565b6801000000058b90bfce0260401c6131aa565b68010000000b17217fbb0260401c61319d565b6801000000162e42fff00260401c613190565b68010000002c5c8601cc0260401c613183565b680100000058b90c0b490260401c613176565b65800000000000831661335e575b65400000000000831661334b575b652000000000008316613338575b651000000000008316613325575b650800000000008316613312575b6504000000000083166132ff575b6502000000000083166132ec575b65010000000000831615612d76576801000000b1721835510260401c612d76565b680100000162e430e5a20260401c6132cb565b6801000002c5c863b73f0260401c6132bd565b68010000058b90cf1e6e0260401c6132af565b680100000b1721bcfc9a0260401c6132a1565b68010000162e43f4f8310260401c613293565b680100002c5c89d5ec6d0260401c613285565b6801000058b91b5bc9ae0260401c613277565b6680000000000000831661346e575b6640000000000000831661345b575b66200000000000008316613448575b66100000000000008316613435575b66080000000000008316613422575b6604000000000000831661340f575b660200000000000083166133fc575b6601000000000000831615612d685768010000b17255775c040260401c612d68565b6801000162e525ee05470260401c6133da565b68010002c5cc37da94920260401c6133cb565b680100058ba01fb9f96d0260401c6133bc565b6801000b175effdc76ba0260401c6133ad565b680100162f3904051fa10260401c61339e565b6801002c605e2e8cec500260401c61338f565b68010058c86da1c09ea20260401c613380565b6780000000000000008216613597575b670de0b6b3a7640000906740000000000000008316613584575b6720000000000000008316613571575b671000000000000000831661355e575b670800000000000000831661354b575b6704000000000000008316613538575b6702000000000000008316613525575b6701000000000000008316613512575b9050612d4f565b680100b1afa5abcbed610260401c61350b565b68010163da9fb33356d80260401c6134fb565b680102c9a3e778060ee70260401c6134eb565b6801059b0d31585743ae0260401c6134db565b68010b5586cf9890f62a0260401c6134cb565b6801172b83c7d517adce0260401c6134bb565b6801306fe0a31b7152df0260401c6134ab565b5068016a09e667f3bcc909607f1b613491565b626c1a0560e31b60005260045260246000fd5b8060008113156136f457670de0b6b3a764000081126136d357506001905b670de0b6b3a764000081056fffffffffffffffffffffffffffffffff811160071b90811c6001600160401b03811160061b90811c63ffffffff811160051b90811c61ffff811160041b90811c9060ff821160031b91821c92600f841160021b93841c94600160038711811b96871c119617171717171717670de0b6b3a7640000810291811d90670de0b6b3a764000082146136c057506706f05b59d3b20000905b6000821361368a5750500290565b80670de0b6b3a764000091020590671bc16d674ec800008212156136b2575b60011d9061367c565b809192019160011d906136a9565b9050670de0b6b3a7640000929150020290565b60001991508015612170576ec097ce7bc90715b34b9f1000000000056135db565b63059b101b60e01b60005260045260246000fd5b9091906000198382098382029182808310920391808303921461378f57670de0b6b3a7640000821015613776577faccb18165bd6fe31ae1cf318dc5b51eee0e1ba569b88cd74c1773b91fac106699394670de0b6b3a7640000910990828211900360ee1b910360121c170290565b8490635173648d60e01b60005260045260245260446000fd5b5050670de0b6b3a76400009004915056fe1080a6e42ac16e1e06ceeec56bfcd11d5f64a6b48cdf10db0f6566172e7f92a0a26469706673582212201167cfcb1be07b6c78c8fcb2ca89cbf02566b7adf029b0b9757ce299f4b0507e64736f6c634300081c0033",
  "linkReferences": {},
  "deployedLinkReferences": {}
}